{
  "transactions": [
    {
      "hash": "0x22558e5a29a2bd387bdd83d6080273503112391395b2e3a23735cd684c43d744",
      "transactionType": "CALL",
      "contractName": null,
      "contractAddress": "0xC6464Dbb1dda6479d5402E955beEf5Fb81c7dA43",
      "function": null,
      "arguments": null,
      "rpc": "https://rpc.testnet.mantle.xyz",
      "transaction": {
        "type": "0x00",
        "from": "0x29782e6eefef1255d1ddc2bd1b4851b890614868",
        "to": "0xc6464dbb1dda6479d5402e955beef5fb81c7da43",
        "gas": "0xa0fe51",
        "value": "0x0",
        "data": "0x0c6977830000000000000000000000000000000000000000000000000000000000000100000000000000000000000000000000000000000000000000000000000000000100000000000000000000000000000000000000000000000000000000000000010000000000000000000000000000000000000000000000000000000000000001000000000000000000000000000000000000000000000000000000000000000100000000000000000000000000000000000000000000000000000000000000010000000000000000000000000000000000000000000000000000000000000001000000000000000000000000150cc4f90516c23e64231d2b92d737893dbb25150000000000000000000000008734110e5e1dcf439c7f549db740e546fea82d6600000000000000000000000000000000000000000000021e19e0c9bab2400000000000000000000000000000000000000000000000000000000000000002a30000000000000000000000000000000000000000000000000000000000000002a000000000000000000000000000000000000000000000000000000000000002e0000000000000000000000000000000000000000000000000000000000000b608000000000000000000000000000000000000000000000000000000000000be3c00000000000000000000000030f63e60ab33b05f3baff97e5a35010de6f4ea9d000000000000000000000000000000000000000000000000000000000000032000000000000000000000000000000000000000000000000000000000000003a00000000000000000000000000000000000000000000000000000000000000400000000000000000000000000000000000000000000000000000000000000046000000000000000000000000000000000000000000000000000000000000000000000000000000000000000000000000000000000000000000000000000000000000000000000000000000000271d7594985f8ce8cb41c99761c5f42956ff6e5e00000000000000000000000069e0778b9ba7e795329ec8971b1fe46fa783daf6000000000000000000000000e84a814b835e9f54e528fb96205120e3bda3f7d0000000000000000000000000070f86ba8af424e59e9fea8509896bbd0b8dd0c500000000000000000000000000d4fdc04e86269ce7f4b1acd985d5de0ea1c16d00000000000000000000000046b0d5c30537a800b12af7a22d924f163687996500000000000000000000000000000000000000000000000000000000000004a000000000000000000000000000000000000000000000000000000000000000125269762d4653582d574249542d5661756c74000000000000000000000000000000000000000000000000000000000000000000000000000000000000000000125269762d4653582d574249542d5661756c74000000000000000000000000000000000000000000000000000000000000000000000000000000000000000000030000000000000000000000006dfb16bc471982f19db32dee9b6fb40db4503cbf000000000000000000000000a9b72ccc9968afec98a96239b5aa48d828e8d8270000000000000000000000008734110e5e1dcf439c7f549db740e546fea82d66000000000000000000000000000000000000000000000000000000000000000200000000000000000000000000000000000000000000000000000000000009c400000000000000000000000000000000000000000000000000000000000001f400000000000000000000000000000000000000000000000000000000000000020000000000000000000000006dfb16bc471982f19db32dee9b6fb40db4503cbf0000000000000000000000008734110e5e1dcf439c7f549db740e546fea82d66000000000000000000000000000000000000000000000000000000000000000100000000000000000000000000000000000000000000000000000000000009c4000000000000000000000000000000000000000000000000000000000000000e70656e64696e67467573696f6e58000000000000000000000000000000000000",
        "nonce": "0x1a6"
      },
      "additionalContracts": [
        {
          "transactionType": "CREATE",
          "address": "0x5e6f2ec0Da31092f9f66AAaE8502BeAA32895484",
          "initCode": "60e06040523480156200001157600080fd5b5060405162002dfa38038062002dfa8339810160408190526200003491620002c4565b848484848484848460036200004a8382620003f0565b506004620000598282620003f0565b5050506000806200007083620000c060201b60201c565b91509150816200008257601262000084565b805b60ff1660a05250506001600160a01b0316608052620000a333620001a5565b600160065560c091909152600b5550620004f49650505050505050565b60408051600481526024810182526020810180516001600160e01b031663313ce56760e01b17905290516000918291829182916001600160a01b038716916200010991620004bc565b600060405180830381855afa9150503d806000811462000146576040519150601f19603f3d011682016040523d82523d6000602084013e6200014b565b606091505b50915091508180156200016057506020815110155b1562000198576000818060200190518101906200017e9190620004da565b905060ff811162000196576001969095509350505050565b505b5060009485945092505050565b600580546001600160a01b038381166001600160a01b0319831681179093556040519116919082907f8be0079c531659141344cd1fd0a4f28419497f9722a3daafe3b4186f6b6457e090600090a35050565b634e487b7160e01b600052604160045260246000fd5b60005b838110156200022a57818101518382015260200162000210565b50506000910152565b600082601f8301126200024557600080fd5b81516001600160401b0380821115620002625762000262620001f7565b604051601f8301601f19908116603f011681019082821181831017156200028d576200028d620001f7565b81604052838152866020858801011115620002a757600080fd5b620002ba8460208301602089016200020d565b9695505050505050565b600080600080600060a08688031215620002dd57600080fd5b85516001600160a01b0381168114620002f557600080fd5b60208701519095506001600160401b03808211156200031357600080fd5b6200032189838a0162000233565b955060408801519150808211156200033857600080fd5b50620003478882890162000233565b606088015160809098015196999598509695949350505050565b600181811c908216806200037657607f821691505b6020821081036200039757634e487b7160e01b600052602260045260246000fd5b50919050565b601f821115620003eb57600081815260208120601f850160051c81016020861015620003c65750805b601f850160051c820191505b81811015620003e757828155600101620003d2565b5050505b505050565b81516001600160401b038111156200040c576200040c620001f7565b62000424816200041d845462000361565b846200039d565b602080601f8311600181146200045c5760008415620004435750858301515b600019600386901b1c1916600185901b178555620003e7565b600085815260208120601f198616915b828110156200048d578886015182559484019460019091019084016200046c565b5085821015620004ac5787850151600019600388901b60f8161c191681555b5050505050600190811b01905550565b60008251620004d08184602087016200020d565b9190910192915050565b600060208284031215620004ed57600080fd5b5051919050565b60805160a05160c0516128b3620005476000396000818161063f01526115a70152600061037b0152600081816103a70152818161146601528181611b5f01528181611c810152611f0c01526128b36000f3fe608060405234801561001057600080fd5b506004361061027f5760003560e01c80638da5cb5b1161015c578063ba087652116100ce578063dd62ed3e11610087578063dd62ed3e14610614578063def68a9c14610627578063e2d1e75c1461063a578063e668524414610661578063ef8b30f7146105bb578063f2fde38b1461066957600080fd5b8063ba08765214610595578063c63d75b6146105a8578063c6e6f592146105bb578063ce96cb77146105ce578063d4289279146105e1578063d905777e1461060157600080fd5b8063a457c2d711610120578063a457c2d714610523578063a8c62e7614610536578063a9059cbb14610549578063b3d7f6b91461055c578063b460af941461056f578063b85d9c251461058257600080fd5b80638da5cb5b146104c157806394bf804d146104d257806395d89b41146104e55780639674ca6e146104ed5780639b19251a1461050057600080fd5b806339509351116101f55780635b12ff9b116101b95780635b12ff9b146104215780636e553f651461043457806370a0823114610447578063715018a61461047057806376dfabb81461047857806378c8cda7146104ae57600080fd5b806339509351146103df578063402d267d146103f257806340bd2f32146104055780634cdad506146102b457806351b0fc1c1461040e57600080fd5b806318160ddd1161024757806318160ddd146102fd57806319ab453c1461030557806323b872dd1461031a578063296597881461032d578063313ce5671461037457806338d52e0f146103a557600080fd5b806301e1d1141461028457806306fdde031461029f57806307a2d13a146102b4578063095ea7b3146102c75780630a28a477146102ea575b600080fd5b61028c61067c565b6040519081526020015b60405180910390f35b6102a76106ef565b60405161029691906125dc565b61028c6102c236600461260f565b610781565b6102da6102d536600461263d565b610794565b6040519015158152602001610296565b61028c6102f836600461260f565b6107ac565b60025461028c565b610318610313366004612669565b6107b9565b005b6102da610328366004612686565b6108e3565b6040805180820182526000808252602091820152815180830183526008546001600160a01b0316808252600954918301918252835190815290519181019190915201610296565b60405160ff7f0000000000000000000000000000000000000000000000000000000000000000168152602001610296565b7f00000000000000000000000000000000000000000000000000000000000000005b6040516001600160a01b039091168152602001610296565b6102da6103ed36600461263d565b610909565b61028c610400366004612669565b61092b565b61028c600b5481565b61031861041c36600461260f565b610a45565b61031861042f366004612669565b610add565b61028c6104423660046126c7565b610cc0565b61028c610455366004612669565b6001600160a01b031660009081526020819052604090205490565b610318610d33565b60085460095461048f916001600160a01b03169082565b604080516001600160a01b039093168352602083019190915201610296565b6103186104bc366004612669565b610d47565b6005546001600160a01b03166103c7565b61028c6104e03660046126c7565b610e1a565b6102a7610e8d565b6103186104fb366004612669565b610e9c565b6102da61050e366004612669565b600d6020526000908152604090205460ff1681565b6102da61053136600461263d565b610f90565b600a546103c7906001600160a01b031681565b6102da61055736600461263d565b611016565b61028c61056a36600461260f565b611024565b61028c61057d3660046126f7565b611031565b61031861059036600461263d565b6110ad565b61028c6105a33660046126f7565b6111b5565b61028c6105b6366004612669565b611229565b61028c6105c936600461260f565b6113e2565b61028c6105dc366004612669565b6113ef565b61028c6105ef366004612669565b600c6020526000908152604090205481565b61028c61060f366004612669565b611413565b61028c610622366004612739565b611431565b610318610635366004612669565b61145c565b61028c7f000000000000000000000000000000000000000000000000000000000000000081565b61031861154f565b610318610677366004612669565b6116d3565b600a546040805163722713f760e01b815290516000926001600160a01b03169163722713f79160048083019260209291908290030181865afa1580156106c6573d6000803e3d6000fd5b505050506040513d601f19601f820116820180604052508101906106ea9190612767565b905090565b6060600380546106fe90612780565b80601f016020809104026020016040519081016040528092919081815260200182805461072a90612780565b80156107775780601f1061074c57610100808354040283529160200191610777565b820191906000526020600020905b81548152906001019060200180831161075a57829003601f168201915b5050505050905090565b600061078e826000611749565b92915050565b6000336107a281858561177c565b5060019392505050565b600061078e8260016118a0565b600754610100900460ff16158080156107d95750600754600160ff909116105b806107f35750303b1580156107f3575060075460ff166001145b61085b5760405162461bcd60e51b815260206004820152602e60248201527f496e697469616c697a61626c653a20636f6e747261637420697320616c72656160448201526d191e481a5b9a5d1a585b1a5e995960921b60648201526084015b60405180910390fd5b6007805460ff19166001179055801561087e576007805461ff0019166101001790555b600a80546001600160a01b0319166001600160a01b03841617905580156108df576007805461ff0019169055604051600181527f7f26b83ff96e1f2b6a682f133852f6798a09c465da95921460cefb38474024989060200160405180910390a15b5050565b6000336108f18582856118d2565b6108fc85858561194c565b60019150505b9392505050565b6000336107a281858561091c8383611431565b61092691906127d0565b61177c565b600a5460408051635c975abb60e01b815290516000926001600160a01b031691635c975abb9160048083019260209291908290030181865afa158015610975573d6000803e3d6000fd5b505050506040513d601f19601f8201168201806040525081019061099991906127e3565b156109a657506000919050565b60006109b061067c565b600b546109bd9190612805565b6001600160a01b0384166000908152600c6020526040812054919250816109e657600019610a2b565b610a0861056a866001600160a01b031660009081526020819052604090205490565b6001600160a01b0386166000908152600c6020526040902054610a2b9190612805565b9050808310610a3a5780610a3c565b825b95945050505050565b610a4d611af0565b80600b5403610a8d5760405162461bcd60e51b815260206004820152600c60248201526b053616d652054564c206361760a41b6044820152606401610852565b600554600b5460408051918252602082018490526001600160a01b03909216917f62be5807a2922ba46a7c1a6af65af203ab5f9840c6d0b9f469a7689fdfb58eec910160405180910390a2600b55565b6005546001600160a01b0316331480610b695750600a546040805163481c6a7560e01b8152905133926001600160a01b03169163481c6a759160048083019260209291908290030181865afa158015610b3a573d6000803e3d6000fd5b505050506040513d601f19601f82011682018060405250810190610b5e9190612818565b6001600160a01b0316145b610bab5760405162461bcd60e51b815260206004820152601360248201527221286f776e6572207c7c206d616e616765722960681b6044820152606401610852565b806001600160a01b031663fbfa77cf6040518163ffffffff1660e01b8152600401602060405180830381865afa158015610be9573d6000803e3d6000fd5b505050506040513d601f19601f82011682018060405250810190610c0d9190612818565b6001600160a01b0316306001600160a01b031614610c595760405162461bcd60e51b8152602060048201526009602482015268085c1c9bdc1bdcd85b60ba1b6044820152606401610852565b6040805180820182526001600160a01b038316808252426020928301819052600880546001600160a01b0319168317905560095591519182527f1aae2ec5647db56da2d513de40528ba3565c6057525637050660c4323bbac7df910160405180910390a150565b6000610ccb8261092b565b831115610d1a5760405162461bcd60e51b815260206004820152601e60248201527f455243343632363a206465706f736974206d6f7265207468616e206d617800006044820152606401610852565b6000610d25846113e2565b905061090233848684611b4a565b610d3b611af0565b610d456000611bf5565b565b610d4f611af0565b6001600160a01b0381166000908152600d602052604090205460ff16610dc95760405162461bcd60e51b815260206004820152602960248201527f57686974656c69737446696c7465723a2052656d6f76696e67204e6f6e2057686044820152681a5d195b1a5cdd195960ba1b6064820152608401610852565b6001600160a01b038181166000818152600d6020526040808220805460ff1916905560055490519316927f403c5e5cf4d35483fc4491cc180e7c00fd44449e95dc52cf2f470d8c02699f659190a350565b6000610e2582611229565b831115610e745760405162461bcd60e51b815260206004820152601b60248201527f455243343632363a206d696e74206d6f7265207468616e206d617800000000006044820152606401610852565b6000610e7f84611024565b905061090233848387611b4a565b6060600480546106fe90612780565b610ea4611af0565b6001600160a01b0381166000908152600d602052604090205460ff1615610f195760405162461bcd60e51b8152602060048201526024808201527f57686974656c69737446696c7465723a20416c72656164792057686974656c696044820152631cdd195960e21b6064820152608401610852565b6001600160a01b0381166000908152600d60205260409020805460ff19166001179055610f4e6005546001600160a01b031690565b6001600160a01b0316816001600160a01b03167f74dd9d466f35e6d6ff9fa8b6ba203f926982ab037ba5d8e8457a0a9516e27e1460405160405180910390a350565b60003381610f9e8286611431565b905083811015610ffe5760405162461bcd60e51b815260206004820152602560248201527f45524332303a2064656372656173656420616c6c6f77616e63652062656c6f77604482015264207a65726f60d81b6064820152608401610852565b61100b828686840361177c565b506001949350505050565b6000336107a281858561194c565b600061078e826001611749565b600061103c826113ef565b84111561108b5760405162461bcd60e51b815260206004820152601f60248201527f455243343632363a207769746864726177206d6f7265207468616e206d6178006044820152606401610852565b6000611096856107ac565b90506110a53385858885611c47565b949350505050565b6110b5611af0565b6001600160a01b0382166000908152600c602052604090205481900361110d5760405162461bcd60e51b815260206004820152600d60248201526c053616d6520557365722063617609c1b6044820152606401610852565b816001600160a01b03166111296005546001600160a01b031690565b6001600160a01b03167fc1fa2a9952be0d43691fcfb2f79585c61f18978d7be1af78c4882302c3f8d296600c6000866001600160a01b03166001600160a01b031681526020019081526020016000205484604051611191929190918252602082015260400190565b60405180910390a36001600160a01b039091166000908152600c6020526040902055565b60006111c082611413565b84111561120f5760405162461bcd60e51b815260206004820152601d60248201527f455243343632363a2072656465656d206d6f7265207468616e206d61780000006044820152606401610852565b600061121a85610781565b90506110a53385858489611c47565b600a5460408051635c975abb60e01b815290516000926001600160a01b031691635c975abb9160048083019260209291908290030181865afa158015611273573d6000803e3d6000fd5b505050506040513d601f19601f8201168201806040525081019061129791906127e3565b156112a457506000919050565b6000306001600160a01b031663c6e6f592306001600160a01b03166301e1d1146040518163ffffffff1660e01b8152600401602060405180830381865afa1580156112f3573d6000803e3d6000fd5b505050506040513d601f19601f820116820180604052508101906113179190612767565b600b546113249190612805565b6040518263ffffffff1660e01b815260040161134291815260200190565b602060405180830381865afa15801561135f573d6000803e3d6000fd5b505050506040513d601f19601f820116820180604052508101906113839190612767565b6001600160a01b0384166000908152600c6020526040812054919250816113ac57600019610a2b565b6001600160a01b03851660009081526020818152604080832054600c909252909120546113d8906113e2565b610a2b9190612805565b600061078e8260006118a0565b6001600160a01b03811660009081526020819052604081205461078e906000611749565b6001600160a01b03811660009081526020819052604081205461078e565b6001600160a01b03918216600090815260016020908152604080832093909416825291909152205490565b611464611af0565b7f00000000000000000000000000000000000000000000000000000000000000006001600160a01b0316816001600160a01b0316036114ce5760405162461bcd60e51b815260206004820152600660248201526510ba37b5b2b760d11b6044820152606401610852565b6040516370a0823160e01b81523060048201526000906001600160a01b038316906370a0823190602401602060405180830381865afa158015611515573d6000803e3d6000fd5b505050506040513d601f19601f820116820180604052508101906115399190612767565b90506108df6001600160a01b0383163383611e94565b611557611af0565b6008546001600160a01b031661159c5760405162461bcd60e51b815260206004820152600a6024820152692163616e64696461746560b01b6044820152606401610852565b60095442906115cb907f0000000000000000000000000000000000000000000000000000000000000000611efc565b106116015760405162461bcd60e51b81526020600482015260066024820152652164656c617960d01b6044820152606401610852565b6008546040516001600160a01b0390911681527f7f37d440e85aba7fbf641c4bda5ca4ef669a80bffaacde2aa8d9feb1b048c82c9060200160405180910390a1600a8054600880546001600160a01b03198084166001600160a01b038381169190911790955516905564012a05f2006009556040805163fb61778760e01b815290519290911691829163fb61778791600480830192600092919082900301818387803b1580156116b057600080fd5b505af11580156116c4573d6000803e3d6000fd5b505050506116d0611f08565b50565b6116db611af0565b6001600160a01b0381166117405760405162461bcd60e51b815260206004820152602660248201527f4f776e61626c653a206e6577206f776e657220697320746865207a65726f206160448201526564647265737360d01b6064820152608401610852565b6116d081611bf5565b60008061175560025490565b905080156117765761177161176861067c565b8590838661201d565b6110a5565b836110a5565b6001600160a01b0383166117de5760405162461bcd60e51b8152602060048201526024808201527f45524332303a20617070726f76652066726f6d20746865207a65726f206164646044820152637265737360e01b6064820152608401610852565b6001600160a01b03821661183f5760405162461bcd60e51b815260206004820152602260248201527f45524332303a20617070726f766520746f20746865207a65726f206164647265604482015261737360f01b6064820152608401610852565b6001600160a01b0383811660008181526001602090815260408083209487168084529482529182902085905590518481527f8c5be1e5ebec7d5bd14f71427d1e84f3dd0314c0f7b2291e5b200ac8c7c3b925910160405180910390a3505050565b6000806118ac60025490565b90508315806118b9575080155b61177657611771816118c961067c565b8691908661201d565b60006118de8484611431565b9050600019811461194657818110156119395760405162461bcd60e51b815260206004820152601d60248201527f45524332303a20696e73756666696369656e7420616c6c6f77616e63650000006044820152606401610852565b611946848484840361177c565b50505050565b6001600160a01b0383166119b05760405162461bcd60e51b815260206004820152602560248201527f45524332303a207472616e736665722066726f6d20746865207a65726f206164604482015264647265737360d81b6064820152608401610852565b6001600160a01b038216611a125760405162461bcd60e51b815260206004820152602360248201527f45524332303a207472616e7366657220746f20746865207a65726f206164647260448201526265737360e81b6064820152608401610852565b6001600160a01b03831660009081526020819052604090205481811015611a8a5760405162461bcd60e51b815260206004820152602660248201527f45524332303a207472616e7366657220616d6f756e7420657863656564732062604482015265616c616e636560d01b6064820152608401610852565b6001600160a01b03848116600081815260208181526040808320878703905593871680835291849020805487019055925185815290927fddf252ad1be2c89b69c2b068fc378daa952ba7f163c4a11628f55a4df523b3ef910160405180910390a3611946565b6005546001600160a01b03163314610d455760405162461bcd60e51b815260206004820181905260248201527f4f776e61626c653a2063616c6c6572206973206e6f7420746865206f776e65726044820152606401610852565b611b52612078565b611b876001600160a01b037f000000000000000000000000000000000000000000000000000000000000000016853085612080565b611b8f611f08565b611b9983826120b8565b826001600160a01b0316846001600160a01b03167fdcbc1c05240f31ff3ad067ef1ee35ce4997762752e3a095284754544f4c709d78484604051611be7929190918252602082015260400190565b60405180910390a350505050565b600580546001600160a01b038381166001600160a01b0319831681179093556040519116919082907f8be0079c531659141344cd1fd0a4f28419497f9722a3daafe3b4186f6b6457e090600090a35050565b611c4f612078565b826001600160a01b0316856001600160a01b031614611c7357611c738386836118d2565b611c7d8382612177565b60007f00000000000000000000000000000000000000000000000000000000000000006040516370a0823160e01b81523060048201529091506000906001600160a01b038316906370a0823190602401602060405180830381865afa158015611cea573d6000803e3d6000fd5b505050506040513d601f19601f82011682018060405250810190611d0e9190612767565b905083811015611e17576000611d2485836122a9565b600a54604051632e1a7d4d60e01b8152600481018390529192506001600160a01b031690632e1a7d4d90602401600060405180830381600087803b158015611d6b57600080fd5b505af1158015611d7f573d6000803e3d6000fd5b50506040516370a0823160e01b8152306004820152600092506001600160a01b03861691506370a0823190602401602060405180830381865afa158015611dca573d6000803e3d6000fd5b505050506040513d601f19601f82011682018060405250810190611dee9190612767565b90506000611dfc82856122a9565b905082811015611e1357611e108482611efc565b96505b5050505b611e2b6001600160a01b0383168786611e94565b846001600160a01b0316866001600160a01b0316886001600160a01b03167ffbde797d201c681b91056529119e0b02407c7bb96a4a2c75c01fc9667232c8db8787604051611e83929190918252602082015260400190565b60405180910390a450505050505050565b6040516001600160a01b038316602482015260448101829052611ef790849063a9059cbb60e01b906064015b60408051601f198184030181529190526020810180516001600160e01b03166001600160e01b0319909316929092179091526122b5565b505050565b600061090282846127d0565b60007f0000000000000000000000000000000000000000000000000000000000000000600a546040516370a0823160e01b8152306004820152919250611fb2916001600160a01b03918216918416906370a0823190602401602060405180830381865afa158015611f7d573d6000803e3d6000fd5b505050506040513d601f19601f82011682018060405250810190611fa19190612767565b6001600160a01b0384169190611e94565b600a60009054906101000a90046001600160a01b03166001600160a01b031663d0e30db06040518163ffffffff1660e01b8152600401600060405180830381600087803b15801561200257600080fd5b505af1158015612016573d6000803e3d6000fd5b5050505050565b60008061202b868686612387565b9050600183600281111561204157612041612835565b14801561205e5750600084806120595761205961284b565b868809115b15610a3c5761206e6001826127d0565b9695505050505050565b610d45612436565b6040516001600160a01b03808516602483015283166044820152606481018290526119469085906323b872dd60e01b90608401611ec0565b6001600160a01b03821661210e5760405162461bcd60e51b815260206004820152601f60248201527f45524332303a206d696e7420746f20746865207a65726f2061646472657373006044820152606401610852565b806002600082825461212091906127d0565b90915550506001600160a01b038216600081815260208181526040808320805486019055518481527fddf252ad1be2c89b69c2b068fc378daa952ba7f163c4a11628f55a4df523b3ef910160405180910390a35050565b6001600160a01b0382166121d75760405162461bcd60e51b815260206004820152602160248201527f45524332303a206275726e2066726f6d20746865207a65726f206164647265736044820152607360f81b6064820152608401610852565b6001600160a01b0382166000908152602081905260409020548181101561224b5760405162461bcd60e51b815260206004820152602260248201527f45524332303a206275726e20616d6f756e7420657863656564732062616c616e604482015261636560f01b6064820152608401610852565b6001600160a01b0383166000818152602081815260408083208686039055600280548790039055518581529192917fddf252ad1be2c89b69c2b068fc378daa952ba7f163c4a11628f55a4df523b3ef910160405180910390a3505050565b60006109028284612805565b600061230a826040518060400160405280602081526020017f5361666545524332303a206c6f772d6c6576656c2063616c6c206661696c6564815250856001600160a01b03166124959092919063ffffffff16565b805190915015611ef7578080602001905181019061232891906127e3565b611ef75760405162461bcd60e51b815260206004820152602a60248201527f5361666545524332303a204552433230206f7065726174696f6e20646964206e6044820152691bdd081cdd58d8d9595960b21b6064820152608401610852565b60008080600019858709858702925082811083820303915050806000036123c1578382816123b7576123b761284b565b0492505050610902565b8084116123cd57600080fd5b60008486880960026001871981018816978890046003810283188082028403028082028403028082028403028082028403028082028403029081029092039091026000889003889004909101858311909403939093029303949094049190911702949350505050565b336000908152600d602052604090205460ff16610d455760405162461bcd60e51b815260206004820152601d60248201527f57686974656c69737446696c7465723a202177686974656c69737465640000006044820152606401610852565b60606110a5848460008585600080866001600160a01b031685876040516124bc9190612861565b60006040518083038185875af1925050503d80600081146124f9576040519150601f19603f3d011682016040523d82523d6000602084013e6124fe565b606091505b509150915061250f8783838761251a565b979650505050505050565b60608315612589578251600003612582576001600160a01b0385163b6125825760405162461bcd60e51b815260206004820152601d60248201527f416464726573733a2063616c6c20746f206e6f6e2d636f6e74726163740000006044820152606401610852565b50816110a5565b6110a5838381511561259e5781518083602001fd5b8060405162461bcd60e51b815260040161085291906125dc565b60005b838110156125d35781810151838201526020016125bb565b50506000910152565b60208152600082518060208401526125fb8160408501602087016125b8565b601f01601f19169190910160400192915050565b60006020828403121561262157600080fd5b5035919050565b6001600160a01b03811681146116d057600080fd5b6000806040838503121561265057600080fd5b823561265b81612628565b946020939093013593505050565b60006020828403121561267b57600080fd5b813561090281612628565b60008060006060848603121561269b57600080fd5b83356126a681612628565b925060208401356126b681612628565b929592945050506040919091013590565b600080604083850312156126da57600080fd5b8235915060208301356126ec81612628565b809150509250929050565b60008060006060848603121561270c57600080fd5b83359250602084013561271e81612628565b9150604084013561272e81612628565b809150509250925092565b6000806040838503121561274c57600080fd5b823561275781612628565b915060208301356126ec81612628565b60006020828403121561277957600080fd5b5051919050565b600181811c9082168061279457607f821691505b6020821081036127b457634e487b7160e01b600052602260045260246000fd5b50919050565b634e487b7160e01b600052601160045260246000fd5b8082018082111561078e5761078e6127ba565b6000602082840312156127f557600080fd5b8151801515811461090257600080fd5b8181038181111561078e5761078e6127ba565b60006020828403121561282a57600080fd5b815161090281612628565b634e487b7160e01b600052602160045260246000fd5b634e487b7160e01b600052601260045260246000fd5b600082516128738184602087016125b8565b919091019291505056fea2646970667358221220b2789ad7c31bc42fc209ecff796e7d3a4382d2fbe68de151aa972b2257e491c664736f6c634300081300330000000000000000000000008734110e5e1dcf439c7f549db740e546fea82d6600000000000000000000000000000000000000000000000000000000000000a000000000000000000000000000000000000000000000000000000000000000e0000000000000000000000000000000000000000000000000000000000002a30000000000000000000000000000000000000000000000021e19e0c9bab240000000000000000000000000000000000000000000000000000000000000000000125269762d4653582d574249542d5661756c74000000000000000000000000000000000000000000000000000000000000000000000000000000000000000000125269762d4653582d574249542d5661756c740000000000000000000000000000"
        },
        {
          "transactionType": "CREATE",
          "address": "0x5eF9A582acf63d8800422De0A9f3B6DF6Ba26984",
          "initCode": "60806040523480156200001157600080fd5b506200001d3362000035565b6000805460ff60a01b191690556001600c5562000085565b600080546001600160a01b038381166001600160a01b0319831681178455604051919092169283917f8be0079c531659141344cd1fd0a4f28419497f9722a3daafe3b4186f6b6457e09190a35050565b61498f80620000956000396000f3fe608060405234801561001057600080fd5b506004361061038e5760003560e01c8063a09dad75116101de578063d0e30db01161010f578063ef21c994116100ad578063f8cea66c1161007c578063f8cea66c14610770578063fb1b5c7b14610778578063fb61778714610780578063fbfa77cf1461078857600080fd5b8063ef21c99414610739578063f1a392da14610741578063f2fde38b1461074a578063f887ea401461075d57600080fd5b8063e7a7250a116100e9578063e7a7250a146106f8578063e93d5fc114610700578063eb582d1314610713578063ebf678f01461072657600080fd5b8063d0e30db0146106ca578063d0ebdbe7146106d2578063e00bb0b5146106e557600080fd5b8063b3a9c91c1161017c578063ba4eb82611610156578063ba4eb82614610671578063c3926a2914610684578063c3e3fd81146106a4578063c597499d146106b757600080fd5b8063b3a9c91c14610643578063b5164afd1461064b578063b97db3cf1461065e57600080fd5b8063abba9686116101b8578063abba96861461060c578063adf085a214610614578063afbd13781461061c578063b018d38e1461063057600080fd5b8063a09dad75146105e8578063a5c42ef1146105fb578063aac41ef91461060457600080fd5b8063481c6a75116102c357806368b80723116102615780638456cb59116102305780638456cb59146105a9578063877562b6146105b15780638b4f9c50146105c45780638da5cb5b146105d757600080fd5b806368b80723146105655780636d9adeb014610578578063715018a61461058b578063722713f71461059357600080fd5b8063595ce3c81161029d578063595ce3c81461051f57806359c4f905146105275780635c975abb146105345780635ee167c01461055257600080fd5b8063481c6a75146104d257806355b812a8146104e55780635774c0f61461050c57600080fd5b80632e1a7d4d116103305780633a4b66f11161030a5780633a4b66f1146104a75780633f4ba83a146104ba5780634641257d146104c25780634700d305146104ca57600080fd5b80632e1a7d4d1461046e578063342226dd1461048157806334bf65181461049457600080fd5b80631fc8bc5d1161036c5780631fc8bc5d146103f8578063228cb733146104235780632534434d1461043c578063277e5cfd1461045957600080fd5b8063089fe6aa146103935780630ca1cc5b146103c2578063150b7a02146103cc575b600080fd5b601a546103a990600160301b900462ffffff1681565b60405162ffffff90911681526020015b60405180910390f35b6103ca61079b565b005b6103df6103da366004613bae565b610972565b6040516001600160e01b031990911681526020016103b9565b60115461040b906001600160a01b031681565b6040516001600160a01b0390911681526020016103b9565b600d5461040b906201000090046001600160a01b031681565b610444610983565b604080519283526020830191909152016103b9565b610461610c1b565b6040516103b99190613c7e565b6103ca61047c366004613c91565b610ca9565b60125461040b906001600160a01b031681565b6103ca6104a2366004613cc4565b610d77565b600e5461040b906001600160a01b031681565b6103ca610e94565b6103ca610eb6565b6103ca6112d0565b60035461040b906001600160a01b031681565b601a546104f9906301000000900460020b81565b60405160029190910b81526020016103b9565b61040b61051a366004613c91565b61130e565b6103ca611338565b601a546104f99060020b81565b600054600160a01b900460ff165b60405190151581526020016103b9565b600f5461040b906001600160a01b031681565b6103ca610573366004613e0a565b611549565b60175461040b906001600160a01b031681565b6103ca6115c5565b61059b6115d7565b6040519081526020016103b9565b6103ca61189e565b60105461040b906001600160a01b031681565b60155461040b906001600160a01b031681565b6000546001600160a01b031661040b565b6103ca6105f6366004613f2e565b6118b6565b61059b60195481565b61059b611fcb565b6103ca6120be565b6103ca61232c565b60105461054290600160a01b900460ff1681565b6103ca61063e366004613e0a565b6123b7565b6103ca612433565b601f5461040b906001600160a01b031681565b6103a961066c366004613c91565b612476565b61040b61067f366004613c91565b6124af565b61068c6124bf565b6040516001600160801b0390911681526020016103b9565b60145461040b906001600160a01b031681565b60165461040b906001600160a01b031681565b6103ca612540565b6103ca6106e0366004614133565b612558565b60135461040b906001600160a01b031681565b61059b6125b4565b6103a961070e366004613c91565b6126fd565b60045461040b906001600160a01b031681565b60215461040b906001600160a01b031681565b6103ca61270d565b61059b60185481565b6103ca610758366004614133565b612752565b60025461040b906001600160a01b031681565b6103ca6127c8565b61040b6127ea565b6103ca61281f565b60015461040b906001600160a01b031681565b600f546040516370a0823160e01b81523060048201526000916001600160a01b0316906370a0823190602401602060405180830381865afa1580156107e4573d6000803e3d6000fd5b505050506040513d601f19601f820116820180604052508101906108089190614150565b6010546040516370a0823160e01b81523060048201529192506000916001600160a01b03909116906370a0823190602401602060405180830381865afa158015610856573d6000803e3d6000fd5b505050506040513d601f19601f8201168201806040525081019061087a9190614150565b600480546040805161016081018252600f546001600160a01b03908116825260105481166020830152601a5462ffffff600160301b82041683850152600281810b60608501526301000000909104900b608083015260a0820188905260c08201869052600060e08301819052610100830181905230610120840152426101408401529251634418b22b60e11b81529596509194919092169263883164569261092492909101614169565b6080604051808303816000875af1158015610943573d6000803e3d6000fd5b505050506040513d601f19601f820116820180604052508101906109679190614244565b505050601955505050565b630a85bd0160e11b5b949350505050565b60008061098e612827565b60006109986124bf565b90506000816001600160801b0316116109f15760405162461bcd60e51b81526020600482015260166024820152754e6f204c697175696469747920617661696c61626c6560501b60448201526064015b60405180910390fd5b601154601954604051627b8a6760e11b815260048101919091523060248201526001600160a01b039091169062f714ce906044016020604051808303816000875af1158015610a44573d6000803e3d6000fd5b505050506040513d601f19601f82011682018060405250810190610a689190614150565b50600480546040805160a08101825260195481526001600160801b0385166020820152600081830181905260608201524260808201529051630624e65f60e11b81526001600160a01b0390921692630c49ccbe92610ac7929101614280565b60408051808303816000875af1158015610ae5573d6000803e3d6000fd5b505050506040513d601f19601f82011682018060405250810190610b0991906142c3565b5050600480546040805160808101825260195481523060208201526001600160801b038183018190526060820152905163fc6f786560e01b81526001600160a01b039092169263fc6f786592610b609291016142e7565b60408051808303816000875af1158015610b7e573d6000803e3d6000fd5b505050506040513d601f19601f82011682018060405250810190610ba291906142c3565b60048054601954604051630852cd8d60e31b8152928301529295509093506001600160a01b03909116906342966c6890602401600060405180830381600087803b158015610bef57600080fd5b505af1158015610c03573d6000803e3d6000fd5b5050600060195550610c1791506128809050565b9091565b60208054610c289061432a565b80601f0160208091040260200160405190810160405280929190818152602001828054610c549061432a565b8015610ca15780601f10610c7657610100808354040283529160200191610ca1565b820191906000526020600020905b815481529060010190602001808311610c8457829003601f168201915b505050505081565b610cb1612827565b610cb9612433565b600080610cc583612887565b915091506000610cd58383612b2e565b600154600554600654929350610d27926001600160a01b0390921691610cfb908561437a565b610d059190614391565b610d0f90846143b3565b610d176127ea565b6001600160a01b03169190612bef565b7f56ca301a9219608c91e7bcee90e083c19671d2cdcc96752c7af291cee5f9c8c8610d506115d7565b60408051918252602082018790520160405180910390a1505050610d746001600c55565b50565b610d7f612c52565b601a54601254600e54604051638745d9e760e01b81527364383ac7670d1094f897d1cdb503aa5abe1ce8ea93638745d9e793610de193600283810b946301000000909404900b92899289926001600160a01b03918216929116906004016143c6565b60006040518083038186803b158015610df957600080fd5b505af4158015610e0d573d6000803e3d6000fd5b50505050610e19610983565b5050601a805462ffffff83811663010000000265ffffffffffff1990921690851617179055610e46612cac565b601a5460408051600283810b8252630100000090930490920b60208301527fd00a8d17a19b7ceda57ab41f25a4626f485d085482b0525baaaa7caac12b492e91015b60405180910390a15050565b610e9c61270d565b610ea4612da7565b610eac612dfc565b610eb4612540565b565b610ebe612f39565b601154601954604051630c7e663b60e11b815260048101919091523060248201526001600160a01b03909116906318fccc76906044016020604051808303816000875af1158015610f13573d6000803e3d6000fd5b505050506040513d601f19601f82011682018060405250810190610f379190614150565b50600d546040516370a0823160e01b81523060048201526000916201000090046001600160a01b0316906370a0823190602401602060405180830381865afa158015610f87573d6000803e3d6000fd5b505050506040513d601f19601f82011682018060405250810190610fab9190614150565b905080156111bf57600d54600f546001600160a01b03908116620100009092041614801590610fe35750601054600160a01b900460ff165b156110c9576110c7601b80548060200260200160405190810160405280929190818152602001828054801561104157602002820191906000526020600020905b81546001600160a01b03168152600190910190602001808311611023575b5050505050601c8054806020026020016040519081016040528092919081815260200182805480156110bc57602002820191906000526020600020906000905b82829054906101000a900462ffffff1662ffffff16815260200190600301906020826002010492830192600103820291508084116110815790505b505050505083612f86565b505b600d546010546001600160a01b039081166201000090920416148015906110fa5750601054600160a01b900460ff16155b156111ba576111b8601d80548060200260200160405190810160405280929190818152602001828054801561115857602002820191906000526020600020905b81546001600160a01b0316815260019091019060200180831161113a575b5050505050601e8054806020026020016040519081016040528092919081815260200182805480156110bc576000918252602091829020805462ffffff168452908202830192909160039101808411611081579050505050505083612f86565b505b426018555b6011546040805160808101825260195481523060208201526001600160801b038183018190526060820152905163fc6f786560e01b81526001600160a01b039092169163fc6f786591611214916004016142e7565b60408051808303816000875af1158015611232573d6000803e3d6000fd5b505050506040513d601f19601f8201168201806040525081019061125691906142c3565b5050600f5461126d906001600160a01b03166130fa565b601054611282906001600160a01b03166130fa565b61128a612cac565b337f9bc239f1724cacfb88cb1d66a2dc437467699b68a8c90d7b63110cf4b6f92410826112b56115d7565b6040805192835260208301919091520160405180910390a250565b6112d861270d565b6112e061189e565b6000806112eb610983565b600154919350915061130a906001600160a01b0316610d0f8484612b2e565b5050565b601b818154811061131e57600080fd5b6000918252602090912001546001600160a01b0316905081565b600f546040516370a0823160e01b81523060048201526000916001600160a01b0316906370a0823190602401602060405180830381865afa158015611381573d6000803e3d6000fd5b505050506040513d601f19601f820116820180604052508101906113a59190614150565b6010546040516370a0823160e01b81523060048201529192506000916001600160a01b03909116906370a0823190602401602060405180830381865afa1580156113f3573d6000803e3d6000fd5b505050506040513d601f19601f820116820180604052508101906114179190614150565b600480546040805160c081018252601954815260208101878152818301868152600060608401818152608085019182524260a08601908152955163219f5d1760e01b81529451978501979097529151602484015251604483015293516064820152925160848401525160a48301529192506001600160a01b039091169063219f5d179060c4016060604051808303816000875af11580156114bc573d6000803e3d6000fd5b505050506040513d601f19601f820116820180604052508101906114e09190614402565b5050601154601954604051636768488960e11b815260048101919091526001600160a01b03909116915063ced0911290602401600060405180830381600087803b15801561152d57600080fd5b505af1158015611541573d6000803e3d6000fd5b505050505050565b61155161270d565b6001825161155f91906143b3565b81511461157e5760405162461bcd60e51b81526004016109e890614437565b611589601b83613220565b611594601c8261328c565b7f92ec361f55eabacf1c0ffe0509739dc2462b2e206c59631b15d558124e1dda188282604051610e88929190614453565b6115cd612c52565b610eb4600061330f565b6000806115e26124bf565b6040805160e081018252601a54600281810b83526301000000909104900b60208201526001600160801b038316818301526015546001600160a01b03908116606083015260135481166080830152601254811660a0830152600e541660c082015290516338c4b34760e21b815291925060009182917364383ac7670d1094f897d1cdb503aa5abe1ce8ea9163e312cd1c9161167f91600401614541565b6040805180830381865af415801561169b573d6000803e3d6000fd5b505050506040513d601f19601f820116820180604052508101906116bf91906142c3565b9150915060006116cd6127ea565b6001546040516370a0823160e01b81526001600160a01b0391821660048201529116906370a0823190602401602060405180830381865afa158015611716573d6000803e3d6000fd5b505050506040513d601f19601f8201168201806040525081019061173a9190614150565b601054909150600160a01b900460ff16156117ff57600e54601754604051631654489960e11b8152600481018590526001600160a01b0392831660248201529116604482015281907364383ac7670d1094f897d1cdb503aa5abe1ce8ea90632ca8913290606401602060405180830381865af41580156117be573d6000803e3d6000fd5b505050506040513d601f19601f820116820180604052508101906117e29190614150565b6117ec908561454f565b6117f6919061454f565b94505050505090565b600e54601754604051636520a11d60e01b8152600481018690526001600160a01b03928316602482015291166044820152819083907364383ac7670d1094f897d1cdb503aa5abe1ce8ea90636520a11d90606401602060405180830381865af4158015611870573d6000803e3d6000fd5b505050506040513d601f19601f820116820180604052508101906118949190614150565b6117ec919061454f565b6118a661270d565b6118ae61335f565b610eb46133a2565b600d54610100900460ff16158080156118d65750600d54600160ff909116105b806118f05750303b1580156118f05750600d5460ff166001145b6119535760405162461bcd60e51b815260206004820152602e60248201527f496e697469616c697a61626c653a20636f6e747261637420697320616c72656160448201526d191e481a5b9a5d1a585b1a5e995960921b60648201526084016109e8565b600d805460ff19166001179055801561197657600d805461ff0019166101001790555b60a0830151601280546001600160a01b03199081166001600160a01b039384161790915560c085015160138054831691841691909117905560e08501516014805483169184169190911790556101008501516015805483169184169190911790556101208501516016805483169184169190911790556101408501516017805483169184169190911790556040850151600e805483169184169190911790556060850151601180549092169083161790556080840151600d805462010000600160b01b03191662010000929093169190910291909117905561016083015151611a61906001906143b3565b8361018001515114611a855760405162461bcd60e51b81526004016109e890614437565b6001836101a0015151611a9891906143b3565b836101c001515114611abc5760405162461bcd60e51b81526004016109e890614437565b6101608301518051611ad691601b9160209091019061397f565b506101808301518051611af191601c916020909101906139e4565b506101a08301518051611b0c91601d9160209091019061397f565b506101c08301518051611b2791601e916020909101906139e4565b5082516020840151601254600e54604051638745d9e760e01b81527364383ac7670d1094f897d1cdb503aa5abe1ce8ea94638745d9e794611b7f9460009485946001600160a01b0392831692909116906004016143c6565b60006040518083038186803b158015611b9757600080fd5b505af4158015611bab573d6000803e3d6000fd5b50508451601a805460208089015162ffffff90811663010000000265ffffffffffff19909316941693909317179055600e546040805163ddca3f4360e01b815290516001600160a01b03909216945063ddca3f43935060048082019392918290030181865afa158015611c22573d6000803e3d6000fd5b505050506040513d601f19601f82011682018060405250810190611c469190614562565b601a60066101000a81548162ffffff021916908362ffffff160217905550600e60009054906101000a90046001600160a01b03166001600160a01b0316630dfe16816040518163ffffffff1660e01b8152600401602060405180830381865afa158015611cb7573d6000803e3d6000fd5b505050506040513d601f19601f82011682018060405250810190611cdb919061457f565b600f80546001600160a01b0319166001600160a01b03928316179055600e546040805163d21220a760e01b81529051919092169163d21220a79160048083019260209291908290030181865afa158015611d39573d6000803e3d6000fd5b505050506040513d601f19601f82011682018060405250810190611d5d919061457f565b601080546001600160a01b039283166001600160a01b0319909116179055825160408051808201825260078152666173736574282960c81b60209182015281516004815260248101835290810180516001600160e01b03166338d52e0f60e01b179052905160009384931691611dd29161459c565b6000604051808303816000865af19150503d8060008114611e0f576040519150601f19603f3d011682016040523d82523d6000602084013e611e14565b606091505b509150915081611e4b5760405162461bcd60e51b815260206004820152600260248201526120a360f11b60448201526064016109e8565b600f5481516001600160a01b0390911690611e6f908301602090810190840161457f565b6010805460ff60a01b19166001600160a01b0392831693909314600160a01b02929092179091556101e0860151601f80546001600160a01b0319908116928416929092179055610200870151602180548316918416919091179055855160018054831691841691909117905560208087015160028054841691851691909117905560038054339084161790556040870151600480549093169316929092179055610220860151611f1f90826145fe565b506060840151600555608084015160065560a084015160075560c084015160085560e0840151600955610100840151600a55610120840151600b80546001600160a01b0319166001600160a01b03909216919091179055611f7e612dfc565b50508015611fc657600d805461ff0019169055604051600181527f7f26b83ff96e1f2b6a682f133852f6798a09c465da95921460cefb38474024989060200160405180910390a15b505050565b6040805160a081018252601054600160a01b900460ff161515815260195460208201908152600e546001600160a01b0390811683850190815260048054831660608601908152601754841660808701908152965163d001211f60e01b81529551151591860191909152925160248501525181166044840152905181166064830152915190911660848201526000907364383ac7670d1094f897d1cdb503aa5abe1ce8ea9063d001211f9060a401602060405180830381865af4158015612095573d6000803e3d6000fd5b505050506040513d601f19601f820116820180604052508101906120b99190614150565b905090565b600f546040516370a0823160e01b81523060048201526000916001600160a01b0316906370a0823190602401602060405180830381865afa158015612107573d6000803e3d6000fd5b505050506040513d601f19601f8201168201806040525081019061212b9190614150565b6010546040516370a0823160e01b81523060048201529192506000916001600160a01b03909116906370a0823190602401602060405180830381865afa158015612179573d6000803e3d6000fd5b505050506040513d601f19601f8201168201806040525081019061219d9190614150565b6040805160e081018252601a54600281810b835263010000008204900b6020808401919091526b204fce5e3e25026110000000838501526015546001600160a01b039081166060808601919091526013548216608080870191909152601254831660a0870152600e54831660c087015286519081018752600160301b90940462ffffff1684529183018890528285018690526017541690820152915163bf37f00f60e01b815292935060009283927364383ac7670d1094f897d1cdb503aa5abe1ce8ea9263bf37f00f9261227492906004016146be565b6040805180830381865af4158015612290573d6000803e3d6000fd5b505050506040513d601f19601f820116820180604052508101906122b491906142c3565b91509150816000146122f057600f54601054601a546122ee926001600160a01b039081169216908590600160301b900462ffffff1661343e565b505b801561232657601054600f54601a54612324926001600160a01b039081169216908490600160301b900462ffffff1661343e565b505b50505050565b612334612f39565b61233c612827565b60048054601154601954604051632142170760e11b815230948101949094526001600160a01b039182166024850152604484015216906342842e0e90606401600060405180830381600087803b15801561239557600080fd5b505af11580156123a9573d6000803e3d6000fd5b50505050610eb46001600c55565b6123bf61270d565b600182516123cd91906143b3565b8151146123ec5760405162461bcd60e51b81526004016109e890614437565b6123f7601d83613220565b612402601e8261328c565b7fd60de51c4b7b31568ee8c6a5fcc0338f89e13844171d916ff7cce68943275e5f8282604051610e88929190614453565b6001546001600160a01b03163314610eb45760405162461bcd60e51b8152602060048201526006602482015265085d985d5b1d60d21b60448201526064016109e8565b601c818154811061248657600080fd5b90600052602060002090600a9182820401919006600302915054906101000a900462ffffff1681565b601d818154811061131e57600080fd5b601154601954604051630ec6b3dd60e21b815260048101919091526000916001600160a01b031690633b1acf749060240161012060405180830381865afa15801561250e573d6000803e3d6000fd5b505050506040513d601f19601f82011682018060405250810190612532919061470a565b509698975050505050505050565b612548612f39565b612550612433565b610eb4612cac565b61256061270d565b600380546001600160a01b0319166001600160a01b0383169081179091556040519081527f54a6385aa0292b04e1ef8513253c17d1863f7cdfc87029d77fd55cc4c2e717e29060200160405180910390a150565b60008061266c602080546125c79061432a565b80601f01602080910402602001604051908101604052809291908181526020018280546125f39061432a565b80156126405780601f1061261557610100808354040283529160200191612640565b820191906000526020600020905b81548152906001019060200180831161262357829003601f168201915b5050505050604051806040016040528060098152602001682875696e743235362960b81b8152506134ea565b60115460195460405160248101919091529192506000916126e0916001600160a01b031690849060440160408051601f1981840301815290829052916126b19161459c565b6040519081900390206020820180516001600160e01b03166001600160e01b0319909216919091179052613517565b9050808060200190518101906126f69190614150565b9250505090565b601e818154811061248657600080fd5b6003546001600160a01b03163314610eb45760405162461bcd60e51b815260206004820152600860248201526710b6b0b730b3b2b960c11b60448201526064016109e8565b61275a612c52565b6001600160a01b0381166127bf5760405162461bcd60e51b815260206004820152602660248201527f4f776e61626c653a206e6577206f776e657220697320746865207a65726f206160448201526564647265737360d01b60648201526084016109e8565b610d748161330f565b6019546000036127e2576127da61079b565b610eb461232c565b610eb4611338565b601054600090600160a01b900460ff161561280f5750600f546001600160a01b031690565b506010546001600160a01b031690565b6112e0612433565b6002600c54036128795760405162461bcd60e51b815260206004820152601f60248201527f5265656e7472616e637947756172643a207265656e7472616e742063616c6c0060448201526064016109e8565b6002600c55565b6001600c55565b6040805160e081018252601a54600281810b835263010000008204900b6020808401919091526b204fce5e3e25026110000000838501526015546001600160a01b039081166060808601919091526013548216608080870191909152601254831660a080880191909152600e54841660c088015287519081018852601054600160a01b900460ff1615158152600160301b90950462ffffff1693850193909352838601879052601754821690840152601654169082015291516328dd68f160e11b8152600092839283927364383ac7670d1094f897d1cdb503aa5abe1ce8ea926351bad1e29261297c929091906004016147a1565b602060405180830381865af4158015612999573d6000803e3d6000fd5b505050506040513d601f19601f820116820180604052508101906129bd91906147ff565b905060006129c96124bf565b9050806001600160801b0316826001600160801b031611156129e9578091505b6011546040805160a08101825260195481526001600160801b0385166020820152600081830181905260608201524260808201529051630624e65f60e11b81526001600160a01b0390921691630c49ccbe91612a4791600401614280565b60408051808303816000875af1158015612a65573d6000803e3d6000fd5b505050506040513d601f19601f82011682018060405250810190612a8991906142c3565b50506011546040805160808101825260195481523060208201526001600160801b038183018190526060820152905163fc6f786560e01b81526001600160a01b039092169163fc6f786591612ae0916004016142e7565b60408051808303816000875af1158015612afe573d6000803e3d6000fd5b505050506040513d601f19601f82011682018060405250810190612b2291906142c3565b90969095509350505050565b600080612b396127ea565b600f549091506000906001600160a01b03808416911614612b93578415612b8657600f54601a54612b83916001600160a01b03169084908890600160301b900462ffffff1661343e565b90505b612b90818561454f565b92505b6010546001600160a01b03838116911614612be7578315612bda57601054601a54612bd7916001600160a01b03169084908790600160301b900462ffffff1661343e565b90505b612be4818661454f565b92505b505092915050565b6040516001600160a01b038316602482015260448101829052611fc690849063a9059cbb60e01b906064015b60408051601f198184030181529190526020810180516001600160e01b03166001600160e01b031990931692909217909152613543565b6000546001600160a01b03163314610eb45760405162461bcd60e51b815260206004820181905260248201527f4f776e61626c653a2063616c6c6572206973206e6f7420746865206f776e657260448201526064016109e8565b612cb46120be565b612cbc6127c8565b600154600f546040516370a0823160e01b8152306004820152610eb4926001600160a01b0390811692610d0f929116906370a0823190602401602060405180830381865afa158015612d12573d6000803e3d6000fd5b505050506040513d601f19601f82011682018060405250810190612d369190614150565b6010546040516370a0823160e01b81523060048201526001600160a01b03909116906370a0823190602401602060405180830381865afa158015612d7e573d6000803e3d6000fd5b505050506040513d601f19601f82011682018060405250810190612da29190614150565b612b2e565b612daf613615565b6000805460ff60a01b191690557f5db9ee0a495bf2e6ff9c91a7834c1ba4fdd244a5e8aa4e537bd38aeae4b073aa335b6040516001600160a01b03909116815260200160405180910390a1565b600254600d54612e20916001600160a01b0362010000909204821691166000613665565b600254600d54612e45916001600160a01b036201000090920482169116600019613665565b600254600f54612e63916001600160a01b0391821691166000613665565b600254600f54612e82916001600160a01b039182169116600019613665565b600254601054612ea0916001600160a01b0391821691166000613665565b600254601054612ebf916001600160a01b039182169116600019613665565b600454600f54612edd916001600160a01b0391821691166000613665565b600454600f54612efc916001600160a01b039182169116600019613665565b600454601054612f1a916001600160a01b0391821691166000613665565b600454601054610eb4916001600160a01b039182169116600019613665565b600054600160a01b900460ff1615610eb45760405162461bcd60e51b815260206004820152601060248201526f14185d5cd8589b194e881c185d5cd95960821b60448201526064016109e8565b60008084600081518110612f9c57612f9c61481a565b6020026020010151604051602001612fcc919060609190911b6bffffffffffffffffffffffff1916815260140190565b604051602081830303815290604052905060005b84518110156130605781858281518110612ffc57612ffc61481a565b602002602001015187836001613012919061454f565b815181106130225761302261481a565b602002602001015160405160200161303c93929190614830565b604051602081830303815290604052915080806130589061487c565b915050612fe0565b506002546040805160808101825283815230602082015280820186905260006060820152905163b858183f60e01b81526001600160a01b039092169163b858183f916130ae91600401614895565b6020604051808303816000875af11580156130cd573d6000803e3d6000fd5b505050506040513d601f19601f820116820180604052508101906130f19190614150565b95945050505050565b6040516370a0823160e01b81523060048201526000906001600160a01b038316906370a0823190602401602060405180830381865afa158015613141573d6000803e3d6000fd5b505050506040513d601f19601f820116820180604052508101906131659190614150565b905060006007546008548361317a919061437a565b6131849190614391565b6003549091506131a1906001600160a01b03858116911683612bef565b6000600754600954846131b4919061437a565b6131be9190614391565b90506131e66131d56000546001600160a01b031690565b6001600160a01b0386169083612bef565b6000600754600a54856131f9919061437a565b6132039190614391565b600b54909150612324906001600160a01b03878116911683612bef565b60005b8151811015611fc6578282828151811061323f5761323f61481a565b60209081029190910181015182546001810184556000938452919092200180546001600160a01b0319166001600160a01b03909216919091179055806132848161487c565b915050613223565b60005b8151811015611fc657828282815181106132ab576132ab61481a565b602002602001015190806001815401808255809150506001900390600052602060002090600a91828204019190066003029091909190916101000a81548162ffffff021916908362ffffff16021790555080806133079061487c565b91505061328f565b600080546001600160a01b038381166001600160a01b0319831681178455604051919092169283917f8be0079c531659141344cd1fd0a4f28419497f9722a3daafe3b4186f6b6457e09190a35050565b613367612f39565b6000805460ff60a01b1916600160a01b1790557f62e78cea01bee320cd4e420270b5ea74000d11b0c9f74754ebdbfc544b05a258612ddf3390565b600254600d546133c6916001600160a01b0362010000909204821691166000613665565b600254600f546133e4916001600160a01b0391821691166000613665565b600254601054613402916001600160a01b0391821691166000613665565b600454600f54613420916001600160a01b0391821691166000613665565b600454601054610eb4916001600160a01b0391821691166000613665565b6002546040805160e0810182526001600160a01b0387811682528681166020830190815262ffffff8681168486019081523060608601908152608086018a8152600060a0880181815260c0890182815299516304e45aaf60e01b81529851881660048a015295518716602489015292519093166044870152518416606486015290516084850152905160a48401529251811660c4830152919291909116906304e45aaf9060e4016130ae565b606082826040516020016134ff9291906148e3565b60405160208183030381529060405290505b92915050565b606061353c83836040518060600160405280602581526020016149356025913961377a565b9392505050565b6000613598826040518060400160405280602081526020017f5361666545524332303a206c6f772d6c6576656c2063616c6c206661696c6564815250856001600160a01b03166137f29092919063ffffffff16565b805190915015611fc657808060200190518101906135b69190614912565b611fc65760405162461bcd60e51b815260206004820152602a60248201527f5361666545524332303a204552433230206f7065726174696f6e20646964206e6044820152691bdd081cdd58d8d9595960b21b60648201526084016109e8565b600054600160a01b900460ff16610eb45760405162461bcd60e51b815260206004820152601460248201527314185d5cd8589b194e881b9bdd081c185d5cd95960621b60448201526064016109e8565b8015806136df5750604051636eb1769f60e11b81523060048201526001600160a01b03838116602483015284169063dd62ed3e90604401602060405180830381865afa1580156136b9573d6000803e3d6000fd5b505050506040513d601f19601f820116820180604052508101906136dd9190614150565b155b61374a5760405162461bcd60e51b815260206004820152603660248201527f5361666545524332303a20617070726f76652066726f6d206e6f6e2d7a65726f60448201527520746f206e6f6e2d7a65726f20616c6c6f77616e636560501b60648201526084016109e8565b6040516001600160a01b038316602482015260448101829052611fc690849063095ea7b360e01b90606401612c1b565b6060600080856001600160a01b031685604051613797919061459c565b600060405180830381855afa9150503d80600081146137d2576040519150601f19603f3d011682016040523d82523d6000602084013e6137d7565b606091505b50915091506137e886838387613801565b9695505050505050565b606061097b848460008561387a565b60608315613870578251600003613869576001600160a01b0385163b6138695760405162461bcd60e51b815260206004820152601d60248201527f416464726573733a2063616c6c20746f206e6f6e2d636f6e747261637400000060448201526064016109e8565b508161097b565b61097b8383613955565b6060824710156138db5760405162461bcd60e51b815260206004820152602660248201527f416464726573733a20696e73756666696369656e742062616c616e636520666f6044820152651c8818d85b1b60d21b60648201526084016109e8565b600080866001600160a01b031685876040516138f7919061459c565b60006040518083038185875af1925050503d8060008114613934576040519150601f19603f3d011682016040523d82523d6000602084013e613939565b606091505b509150915061394a87838387613801565b979650505050505050565b8151156139655781518083602001fd5b8060405162461bcd60e51b81526004016109e89190613c7e565b8280548282559060005260206000209081019282156139d4579160200282015b828111156139d457825182546001600160a01b0319166001600160a01b0390911617825560209092019160019091019061399f565b506139e0929150613a87565b5090565b82805482825590600052602060002090600901600a900481019282156139d45791602002820160005b83821115613a4f57835183826101000a81548162ffffff021916908362ffffff1602179055509260200192600301602081600201049283019260010302613a0d565b8015613a7e5782816101000a81549062ffffff0219169055600301602081600201049283019260010302613a4f565b50506139e09291505b5b808211156139e05760008155600101613a88565b6001600160a01b0381168114610d7457600080fd5b8035613abc81613a9c565b919050565b634e487b7160e01b600052604160045260246000fd5b604051610140810167ffffffffffffffff81118282101715613afb57613afb613ac1565b60405290565b604051610240810167ffffffffffffffff81118282101715613afb57613afb613ac1565b604051601f8201601f1916810167ffffffffffffffff81118282101715613b4e57613b4e613ac1565b604052919050565b600067ffffffffffffffff831115613b7057613b70613ac1565b613b83601f8401601f1916602001613b25565b9050828152838383011115613b9757600080fd5b828260208301376000602084830101529392505050565b60008060008060808587031215613bc457600080fd5b8435613bcf81613a9c565b93506020850135613bdf81613a9c565b925060408501359150606085013567ffffffffffffffff811115613c0257600080fd5b8501601f81018713613c1357600080fd5b613c2287823560208401613b56565b91505092959194509250565b60005b83811015613c49578181015183820152602001613c31565b50506000910152565b60008151808452613c6a816020860160208601613c2e565b601f01601f19169290920160200192915050565b60208152600061353c6020830184613c52565b600060208284031215613ca357600080fd5b5035919050565b8060020b8114610d7457600080fd5b8035613abc81613caa565b60008060408385031215613cd757600080fd5b8235613ce281613caa565b91506020830135613cf281613caa565b809150509250929050565b600067ffffffffffffffff821115613d1757613d17613ac1565b5060051b60200190565b600082601f830112613d3257600080fd5b81356020613d47613d4283613cfd565b613b25565b82815260059290921b84018101918181019086841115613d6657600080fd5b8286015b84811015613d8a578035613d7d81613a9c565b8352918301918301613d6a565b509695505050505050565b62ffffff81168114610d7457600080fd5b600082601f830112613db757600080fd5b81356020613dc7613d4283613cfd565b82815260059290921b84018101918181019086841115613de657600080fd5b8286015b84811015613d8a578035613dfd81613d95565b8352918301918301613dea565b60008060408385031215613e1d57600080fd5b823567ffffffffffffffff80821115613e3557600080fd5b613e4186838701613d21565b93506020850135915080821115613e5757600080fd5b50613e6485828601613da6565b9150509250929050565b600082601f830112613e7f57600080fd5b61353c83833560208501613b56565b60006101408284031215613ea157600080fd5b613ea9613ad7565b9050613eb482613ab1565b8152613ec260208301613ab1565b6020820152613ed360408301613ab1565b6040820152606082013560608201526080820135608082015260a082013560a082015260c082013560c082015260e082013560e0820152610100808301358183015250610120613f24818401613ab1565b9082015292915050565b600080610160808486031215613f4357600080fd5b833567ffffffffffffffff80821115613f5b57600080fd5b908501906102408288031215613f7057600080fd5b613f78613b01565b613f8183613cb9565b8152613f8f60208401613cb9565b6020820152613fa060408401613ab1565b6040820152613fb160608401613ab1565b6060820152613fc260808401613ab1565b6080820152613fd360a08401613ab1565b60a0820152613fe460c08401613ab1565b60c0820152613ff560e08401613ab1565b60e0820152610100614008818501613ab1565b9082015261012061401a848201613ab1565b9082015261014061402c848201613ab1565b90820152828401358281111561404157600080fd5b61404d89828601613d21565b85830152506101809350838301358281111561406857600080fd5b61407489828601613da6565b85830152506101a09350838301358281111561408f57600080fd5b61409b89828601613d21565b85830152506101c0935083830135828111156140b657600080fd5b6140c289828601613da6565b85830152506101e093506140d7848401613ab1565b8482015261020093506140eb848401613ab1565b848201526102209350838301358281111561410557600080fd5b61411189828601613e6e565b85830152508095505050505061412a8460208501613e8e565b90509250929050565b60006020828403121561414557600080fd5b813561353c81613a9c565b60006020828403121561416257600080fd5b5051919050565b81516001600160a01b031681526101608101602083015161419560208401826001600160a01b03169052565b5060408301516141ac604084018262ffffff169052565b5060608301516141c1606084018260020b9052565b5060808301516141d6608084018260020b9052565b5060a083015160a083015260c083015160c083015260e083015160e08301526101008084015181840152506101208084015161421c828501826001600160a01b03169052565b505061014092830151919092015290565b80516001600160801b0381168114613abc57600080fd5b6000806000806080858703121561425a57600080fd5b8451935061426a6020860161422d565b6040860151606090960151949790965092505050565b600060a082019050825182526001600160801b03602084015116602083015260408301516040830152606083015160608301526080830151608083015292915050565b600080604083850312156142d657600080fd5b505080516020909101519092909150565b815181526020808301516001600160a01b0316908201526040808301516001600160801b0390811691830191909152606092830151169181019190915260800190565b600181811c9082168061433e57607f821691505b60208210810361435e57634e487b7160e01b600052602260045260246000fd5b50919050565b634e487b7160e01b600052601160045260246000fd5b808202811582820484141761351157613511614364565b6000826143ae57634e487b7160e01b600052601260045260246000fd5b500490565b8181038181111561351157613511614364565b600296870b815294860b602086015292850b6040850152930b60608301526001600160a01b03928316608083015290911660a082015260c00190565b60008060006060848603121561441757600080fd5b6144208461422d565b925060208401519150604084015190509250925092565b602080825260029082015261049560f41b604082015260600190565b604080825283519082018190526000906020906060840190828701845b828110156144955781516001600160a01b031684529284019290840190600101614470565b5050508381038285015284518082528583019183019060005b818110156144cf57835162ffffff16835292840192918401916001016144ae565b5090979650505050505050565b805160020b8252602081015160020b60208301526001600160801b036040820151166040830152606081015160018060a01b0380821660608501528060808401511660808501528060a08401511660a08501528060c08401511660c085015250505050565b60e0810161351182846144dc565b8082018082111561351157613511614364565b60006020828403121561457457600080fd5b815161353c81613d95565b60006020828403121561459157600080fd5b815161353c81613a9c565b600082516145ae818460208701613c2e565b9190910192915050565b601f821115611fc657600081815260208120601f850160051c810160208610156145df5750805b601f850160051c820191505b81811015611541578281556001016145eb565b815167ffffffffffffffff81111561461857614618613ac1565b61462c81614626845461432a565b846145b8565b602080601f83116001811461466157600084156146495750858301515b600019600386901b1c1916600185901b178555611541565b600085815260208120601f198616915b8281101561469057888601518255948401946001909101908401614671565b50858210156146ae5787850151600019600388901b60f8161c191681555b5050505050600190811b01905550565b61016081016146cd82856144dc565b825162ffffff1660e0830152602083015161010083015260408301516101208301526060909201516001600160a01b031661014090910152919050565b60008060008060008060008060006101208a8c03121561472957600080fd5b6147328a61422d565b985061474060208b0161422d565b975060408a015161475081613caa565b60608b015190975061476181613caa565b8096505060808a0151945060a08a0151935060c08a015161478181613a9c565b8093505060e08a015191506101008a015190509295985092959850929598565b61018081016147b082856144dc565b8251151560e0830152602083015162ffffff16610100830152604083015161012083015260608301516001600160a01b0390811661014084015260809093015190921661016090910152919050565b60006020828403121561481157600080fd5b61353c8261422d565b634e487b7160e01b600052603260045260246000fd5b60008451614842818460208901613c2e565b60e89490941b6001600160e81b0319169190930190815260609190911b6bffffffffffffffffffffffff1916600382015260170192915050565b60006001820161488e5761488e614364565b5060010190565b6020815260008251608060208401526148b160a0840182613c52565b905060018060a01b03602085015116604084015260408401516060840152606084015160808401528091505092915050565b600083516148f5818460208801613c2e565b835190830190614909818360208801613c2e565b01949350505050565b60006020828403121561492457600080fd5b8151801515811461353c57600080fdfe416464726573733a206c6f772d6c6576656c207374617469632063616c6c206661696c6564a26469706673582212206e0edd49ab47e761c9b237b806fd6f759d2e3b72cd372744642cd074db70df9264736f6c63430008130033"
        }
      ],
      "isFixedGasLimit": false
    },
    {
      "hash": "0x9517b6e2f7219d920ec1307f2e9769bc24b9003dfd13636e502d59cc9ae934a5",
      "transactionType": "CALL",
      "contractName": "RiveraAutoCompoundingVaultV2Whitelisted",
      "contractAddress": "0x5e6f2ec0Da31092f9f66AAaE8502BeAA32895484",
      "function": "newWhitelist(address)",
      "arguments": [
        "0x2aCC49a84919Ab9Cf0eb6576432E9b09D78650E6"
      ],
      "rpc": "https://rpc.testnet.mantle.xyz",
      "transaction": {
        "type": "0x00",
        "from": "0x29782e6eefef1255d1ddc2bd1b4851b890614868",
        "to": "0x5e6f2ec0da31092f9f66aaae8502beaa32895484",
        "gas": "0x103b2",
        "value": "0x0",
        "data": "0x9674ca6e0000000000000000000000002acc49a84919ab9cf0eb6576432e9b09d78650e6",
        "nonce": "0x1a7"
      },
      "additionalContracts": [],
      "isFixedGasLimit": false
    },
    {
      "hash": "0x66369e92ab3ea44b38bd9ae0dac6cf98d6279ddcc3e8379c8663e5b55635862d",
      "transactionType": "CALL",
      "contractName": "RiveraAutoCompoundingVaultV2Whitelisted",
      "contractAddress": "0x5e6f2ec0Da31092f9f66AAaE8502BeAA32895484",
      "function": "newWhitelist(address)",
      "arguments": [
        "0xcf288Dc70983D17C83EA1b80579b211c51043801"
      ],
      "rpc": "https://rpc.testnet.mantle.xyz",
      "transaction": {
        "type": "0x00",
        "from": "0x29782e6eefef1255d1ddc2bd1b4851b890614868",
        "to": "0x5e6f2ec0da31092f9f66aaae8502beaa32895484",
        "gas": "0x103b2",
        "value": "0x0",
        "data": "0x9674ca6e000000000000000000000000cf288dc70983d17c83ea1b80579b211c51043801",
        "nonce": "0x1a8"
      },
      "additionalContracts": [],
      "isFixedGasLimit": false
    },
    {
      "hash": "0x73240eb0d05efd188320779c9314d35e49c33aaf11528fd39621f9162b7e50e2",
      "transactionType": "CALL",
      "contractName": "RiveraAutoCompoundingVaultV2Whitelisted",
      "contractAddress": "0x5e6f2ec0Da31092f9f66AAaE8502BeAA32895484",
      "function": "newWhitelist(address)",
      "arguments": [
        "0xe620Ddc3b46FC30D7Ba98C6B315aA17f69302B0c"
      ],
      "rpc": "https://rpc.testnet.mantle.xyz",
      "transaction": {
        "type": "0x00",
        "from": "0x29782e6eefef1255d1ddc2bd1b4851b890614868",
        "to": "0x5e6f2ec0da31092f9f66aaae8502beaa32895484",
        "gas": "0x103b2",
        "value": "0x0",
        "data": "0x9674ca6e000000000000000000000000e620ddc3b46fc30d7ba98c6b315aa17f69302b0c",
        "nonce": "0x1a9"
      },
      "additionalContracts": [],
      "isFixedGasLimit": false
    },
    {
      "hash": "0xba12c92bd92e8feba32e6d4db2fcd35570cf0cb9acb8a8e9dba74cafe16e9cf1",
      "transactionType": "CALL",
      "contractName": "RiveraAutoCompoundingVaultV2Whitelisted",
      "contractAddress": "0x5e6f2ec0Da31092f9f66AAaE8502BeAA32895484",
      "function": "newWhitelist(address)",
      "arguments": [
        "0xE1427B8A742f489c866C42874F83aFc0c5D003e8"
      ],
      "rpc": "https://rpc.testnet.mantle.xyz",
      "transaction": {
        "type": "0x00",
        "from": "0x29782e6eefef1255d1ddc2bd1b4851b890614868",
        "to": "0x5e6f2ec0da31092f9f66aaae8502beaa32895484",
        "gas": "0x103b2",
        "value": "0x0",
        "data": "0x9674ca6e000000000000000000000000e1427b8a742f489c866c42874f83afc0c5d003e8",
        "nonce": "0x1aa"
      },
      "additionalContracts": [],
      "isFixedGasLimit": false
    },
    {
      "hash": "0x70733ad09821c49ff6ea6a5b8f4e7bf7fb60f8b634464b186894b8b35b37d3c9",
      "transactionType": "CALL",
      "contractName": "RiveraAutoCompoundingVaultV2Whitelisted",
      "contractAddress": "0x5e6f2ec0Da31092f9f66AAaE8502BeAA32895484",
      "function": "newWhitelist(address)",
      "arguments": [
        "0xC4587D8110D0Fe59abB24188473E9c5A9DF4684f"
      ],
      "rpc": "https://rpc.testnet.mantle.xyz",
      "transaction": {
        "type": "0x00",
        "from": "0x29782e6eefef1255d1ddc2bd1b4851b890614868",
        "to": "0x5e6f2ec0da31092f9f66aaae8502beaa32895484",
        "gas": "0x103b2",
        "value": "0x0",
        "data": "0x9674ca6e000000000000000000000000c4587d8110d0fe59abb24188473e9c5a9df4684f",
        "nonce": "0x1ab"
      },
      "additionalContracts": [],
      "isFixedGasLimit": false
    },
    {
      "hash": "0x4d2b6d0de145fc6f1ab38f2e4576c31aa4845ed947070fbde3585d145b2d8ef2",
      "transactionType": "CALL",
      "contractName": "RiveraAutoCompoundingVaultV2Whitelisted",
      "contractAddress": "0x5e6f2ec0Da31092f9f66AAaE8502BeAA32895484",
      "function": "newWhitelist(address)",
      "arguments": [
        "0x16B7a584fecc9Da0833f2E96b9fC770Db906c9c4"
      ],
      "rpc": "https://rpc.testnet.mantle.xyz",
      "transaction": {
        "type": "0x00",
        "from": "0x29782e6eefef1255d1ddc2bd1b4851b890614868",
        "to": "0x5e6f2ec0da31092f9f66aaae8502beaa32895484",
        "gas": "0x103b2",
        "value": "0x0",
        "data": "0x9674ca6e00000000000000000000000016b7a584fecc9da0833f2e96b9fc770db906c9c4",
        "nonce": "0x1ac"
      },
      "additionalContracts": [],
      "isFixedGasLimit": false
    },
    {
      "hash": "0xd0b4705753134096584c640ea14dc2aa2f614fd1fbae69e232a05cb2b24e9aa9",
      "transactionType": "CALL",
      "contractName": "RiveraAutoCompoundingVaultV2Whitelisted",
      "contractAddress": "0x5e6f2ec0Da31092f9f66AAaE8502BeAA32895484",
      "function": "newWhitelist(address)",
      "arguments": [
        "0xf925488428e935228d0200C515399b80017f53e6"
      ],
      "rpc": "https://rpc.testnet.mantle.xyz",
      "transaction": {
        "type": "0x00",
        "from": "0x29782e6eefef1255d1ddc2bd1b4851b890614868",
        "to": "0x5e6f2ec0da31092f9f66aaae8502beaa32895484",
        "gas": "0x103a1",
        "value": "0x0",
        "data": "0x9674ca6e000000000000000000000000f925488428e935228d0200c515399b80017f53e6",
        "nonce": "0x1ad"
      },
      "additionalContracts": [],
      "isFixedGasLimit": false
    },
    {
      "hash": "0xd147c71e3c4db67fee2a542261f83cc10555dd94f1ec83f0476a50dd6f1e65b2",
      "transactionType": "CALL",
      "contractName": "RiveraAutoCompoundingVaultV2Whitelisted",
      "contractAddress": "0x5e6f2ec0Da31092f9f66AAaE8502BeAA32895484",
      "function": "newWhitelist(address)",
      "arguments": [
        "0x8A48F4c34A24dcFa962d2E86ac9C2c00251a0A92"
      ],
      "rpc": "https://rpc.testnet.mantle.xyz",
      "transaction": {
        "type": "0x00",
        "from": "0x29782e6eefef1255d1ddc2bd1b4851b890614868",
        "to": "0x5e6f2ec0da31092f9f66aaae8502beaa32895484",
        "gas": "0x103a1",
        "value": "0x0",
        "data": "0x9674ca6e0000000000000000000000008a48f4c34a24dcfa962d2e86ac9c2c00251a0a92",
        "nonce": "0x1ae"
      },
      "additionalContracts": [],
      "isFixedGasLimit": false
    },
    {
      "hash": "0xeaa757920fb72385c38ba02da16fb39421763559c28dc4cc814be818c652a86a",
      "transactionType": "CALL",
      "contractName": null,
      "contractAddress": "0x8734110e5e1dcF439c7F549db740E546fea82d66",
      "function": "approve(address,uint256):(bool)",
      "arguments": [
        "0x5e6f2ec0Da31092f9f66AAaE8502BeAA32895484",
        "2000000000000000000"
      ],
      "rpc": "https://rpc.testnet.mantle.xyz",
      "transaction": {
        "type": "0x00",
        "from": "0x2acc49a84919ab9cf0eb6576432e9b09d78650e6",
        "to": "0x8734110e5e1dcf439c7f549db740e546fea82d66",
        "gas": "0x107ab",
        "value": "0x0",
        "data": "0x095ea7b30000000000000000000000005e6f2ec0da31092f9f66aaae8502beaa328954840000000000000000000000000000000000000000000000001bc16d674ec80000",
        "nonce": "0x26"
      },
      "additionalContracts": [],
      "isFixedGasLimit": false
    },
    {
      "hash": "0xa416d00a400def90a39dc8614b17caf2eac1ca0ae5929ad615646ffdde0daa4f",
      "transactionType": "CALL",
      "contractName": "RiveraAutoCompoundingVaultV2Whitelisted",
      "contractAddress": "0x5e6f2ec0Da31092f9f66AAaE8502BeAA32895484",
      "function": "deposit(uint256,address):(uint256)",
      "arguments": [
        "2000000000000000000",
        "0x2aCC49a84919Ab9Cf0eb6576432E9b09D78650E6"
      ],
      "rpc": "https://rpc.testnet.mantle.xyz",
      "transaction": {
        "type": "0x00",
        "from": "0x2acc49a84919ab9cf0eb6576432e9b09d78650e6",
        "to": "0x5e6f2ec0da31092f9f66aaae8502beaa32895484",
        "gas": "0x11a7e1",
        "value": "0x0",
        "data": "0x6e553f650000000000000000000000000000000000000000000000001bc16d674ec800000000000000000000000000002acc49a84919ab9cf0eb6576432e9b09d78650e6",
        "nonce": "0x27"
      },
      "additionalContracts": [],
      "isFixedGasLimit": false
    },
    {
      "hash": "0x971601d764ecde159864c52856cee06b31592c67c67bbcfb10016b378d3aee73",
      "transactionType": "CALL",
      "contractName": null,
      "contractAddress": "0x8734110e5e1dcF439c7F549db740E546fea82d66",
      "function": "approve(address,uint256):(bool)",
      "arguments": [
        "0x5e6f2ec0Da31092f9f66AAaE8502BeAA32895484",
        "2000000000000000000"
      ],
      "rpc": "https://rpc.testnet.mantle.xyz",
      "transaction": {
        "type": "0x00",
        "from": "0xcf288dc70983d17c83ea1b80579b211c51043801",
        "to": "0x8734110e5e1dcf439c7f549db740e546fea82d66",
        "gas": "0x107ab",
        "value": "0x0",
        "data": "0x095ea7b30000000000000000000000005e6f2ec0da31092f9f66aaae8502beaa328954840000000000000000000000000000000000000000000000001bc16d674ec80000",
        "nonce": "0xf"
      },
      "additionalContracts": [],
      "isFixedGasLimit": false
    },
    {
      "hash": "0x9a8efbdb7f9705eaa7d9070754aa85e00ffa4e5c1a0712e58c73992c943ed555",
      "transactionType": "CALL",
      "contractName": "RiveraAutoCompoundingVaultV2Whitelisted",
      "contractAddress": "0x5e6f2ec0Da31092f9f66AAaE8502BeAA32895484",
      "function": "deposit(uint256,address):(uint256)",
      "arguments": [
        "2000000000000000000",
        "0xcf288Dc70983D17C83EA1b80579b211c51043801"
      ],
      "rpc": "https://rpc.testnet.mantle.xyz",
      "transaction": {
        "type": "0x00",
        "from": "0xcf288dc70983d17c83ea1b80579b211c51043801",
        "to": "0x5e6f2ec0da31092f9f66aaae8502beaa32895484",
        "gas": "0x91275",
        "value": "0x0",
        "data": "0x6e553f650000000000000000000000000000000000000000000000001bc16d674ec80000000000000000000000000000cf288dc70983d17c83ea1b80579b211c51043801",
        "nonce": "0x10"
      },
      "additionalContracts": [],
      "isFixedGasLimit": false
    }
  ],
  "receipts": [
    {
      "transactionHash": "0x22558e5a29a2bd387bdd83d6080273503112391395b2e3a23735cd684c43d744",
      "transactionIndex": "0x0",
      "blockHash": "0x5e8887e269713b39dbc5ce197b0bc3f2457a9720e6c94fa8430610283ddfc208",
      "blockNumber": "0xe0a90e",
      "from": "0x29782e6eefef1255D1DDC2Bd1b4851B890614868",
      "to": "0xC6464Dbb1dda6479d5402E955beEf5Fb81c7dA43",
      "cumulativeGasUsed": "0x6e14bb",
      "gasUsed": "0x6e14bb",
      "contractAddress": null,
      "logs": [
        {
          "address": "0x5e6f2ec0Da31092f9f66AAaE8502BeAA32895484",
          "topics": [
            "0x8be0079c531659141344cd1fd0a4f28419497f9722a3daafe3b4186f6b6457e0",
            "0x0000000000000000000000000000000000000000000000000000000000000000",
            "0x000000000000000000000000c6464dbb1dda6479d5402e955beef5fb81c7da43"
          ],
          "data": "0x",
          "blockHash": "0x5e8887e269713b39dbc5ce197b0bc3f2457a9720e6c94fa8430610283ddfc208",
          "blockNumber": "0xe0a90e",
          "transactionHash": "0x22558e5a29a2bd387bdd83d6080273503112391395b2e3a23735cd684c43d744",
          "transactionIndex": "0x0",
          "logIndex": "0x0",
          "removed": false
        },
        {
          "address": "0x5eF9A582acf63d8800422De0A9f3B6DF6Ba26984",
          "topics": [
            "0x8be0079c531659141344cd1fd0a4f28419497f9722a3daafe3b4186f6b6457e0",
            "0x0000000000000000000000000000000000000000000000000000000000000000",
            "0x0000000000000000000000000227b15cbed116dadfee96b046c9d70301462e4b"
          ],
          "data": "0x",
          "blockHash": "0x5e8887e269713b39dbc5ce197b0bc3f2457a9720e6c94fa8430610283ddfc208",
          "blockNumber": "0xe0a90e",
          "transactionHash": "0x22558e5a29a2bd387bdd83d6080273503112391395b2e3a23735cd684c43d744",
          "transactionIndex": "0x0",
          "logIndex": "0x1",
          "removed": false
        },
        {
          "address": "0x6dFB16bc471982f19DB32DEE9b6Fb40Db4503cBF",
          "topics": [
            "0x8c5be1e5ebec7d5bd14f71427d1e84f3dd0314c0f7b2291e5b200ac8c7c3b925",
            "0x0000000000000000000000005ef9a582acf63d8800422de0a9f3b6df6ba26984",
            "0x000000000000000000000000e3a68317a2f1c41e5b2efbce2951088efb0cf524"
          ],
          "data": "0x0000000000000000000000000000000000000000000000000000000000000000",
          "blockHash": "0x5e8887e269713b39dbc5ce197b0bc3f2457a9720e6c94fa8430610283ddfc208",
          "blockNumber": "0xe0a90e",
          "transactionHash": "0x22558e5a29a2bd387bdd83d6080273503112391395b2e3a23735cd684c43d744",
          "transactionIndex": "0x0",
          "logIndex": "0x2",
          "removed": false
        },
        {
          "address": "0x6dFB16bc471982f19DB32DEE9b6Fb40Db4503cBF",
          "topics": [
            "0x8c5be1e5ebec7d5bd14f71427d1e84f3dd0314c0f7b2291e5b200ac8c7c3b925",
            "0x0000000000000000000000005ef9a582acf63d8800422de0a9f3b6df6ba26984",
            "0x000000000000000000000000e3a68317a2f1c41e5b2efbce2951088efb0cf524"
          ],
          "data": "0xffffffffffffffffffffffffffffffffffffffffffffffffffffffffffffffff",
          "blockHash": "0x5e8887e269713b39dbc5ce197b0bc3f2457a9720e6c94fa8430610283ddfc208",
          "blockNumber": "0xe0a90e",
          "transactionHash": "0x22558e5a29a2bd387bdd83d6080273503112391395b2e3a23735cd684c43d744",
          "transactionIndex": "0x0",
          "logIndex": "0x3",
          "removed": false
        },
        {
          "address": "0x6dFB16bc471982f19DB32DEE9b6Fb40Db4503cBF",
          "topics": [
            "0x8c5be1e5ebec7d5bd14f71427d1e84f3dd0314c0f7b2291e5b200ac8c7c3b925",
            "0x0000000000000000000000005ef9a582acf63d8800422de0a9f3b6df6ba26984",
            "0x000000000000000000000000e3a68317a2f1c41e5b2efbce2951088efb0cf524"
          ],
          "data": "0x0000000000000000000000000000000000000000000000000000000000000000",
          "blockHash": "0x5e8887e269713b39dbc5ce197b0bc3f2457a9720e6c94fa8430610283ddfc208",
          "blockNumber": "0xe0a90e",
          "transactionHash": "0x22558e5a29a2bd387bdd83d6080273503112391395b2e3a23735cd684c43d744",
          "transactionIndex": "0x0",
          "logIndex": "0x4",
          "removed": false
        },
        {
          "address": "0x6dFB16bc471982f19DB32DEE9b6Fb40Db4503cBF",
          "topics": [
            "0x8c5be1e5ebec7d5bd14f71427d1e84f3dd0314c0f7b2291e5b200ac8c7c3b925",
            "0x0000000000000000000000005ef9a582acf63d8800422de0a9f3b6df6ba26984",
            "0x000000000000000000000000e3a68317a2f1c41e5b2efbce2951088efb0cf524"
          ],
          "data": "0xffffffffffffffffffffffffffffffffffffffffffffffffffffffffffffffff",
          "blockHash": "0x5e8887e269713b39dbc5ce197b0bc3f2457a9720e6c94fa8430610283ddfc208",
          "blockNumber": "0xe0a90e",
          "transactionHash": "0x22558e5a29a2bd387bdd83d6080273503112391395b2e3a23735cd684c43d744",
          "transactionIndex": "0x0",
          "logIndex": "0x5",
          "removed": false
        },
        {
          "address": "0x8734110e5e1dcF439c7F549db740E546fea82d66",
          "topics": [
            "0x8c5be1e5ebec7d5bd14f71427d1e84f3dd0314c0f7b2291e5b200ac8c7c3b925",
            "0x0000000000000000000000005ef9a582acf63d8800422de0a9f3b6df6ba26984",
            "0x000000000000000000000000e3a68317a2f1c41e5b2efbce2951088efb0cf524"
          ],
          "data": "0x0000000000000000000000000000000000000000000000000000000000000000",
          "blockHash": "0x5e8887e269713b39dbc5ce197b0bc3f2457a9720e6c94fa8430610283ddfc208",
          "blockNumber": "0xe0a90e",
          "transactionHash": "0x22558e5a29a2bd387bdd83d6080273503112391395b2e3a23735cd684c43d744",
          "transactionIndex": "0x0",
          "logIndex": "0x6",
          "removed": false
        },
        {
          "address": "0x8734110e5e1dcF439c7F549db740E546fea82d66",
          "topics": [
            "0x8c5be1e5ebec7d5bd14f71427d1e84f3dd0314c0f7b2291e5b200ac8c7c3b925",
            "0x0000000000000000000000005ef9a582acf63d8800422de0a9f3b6df6ba26984",
            "0x000000000000000000000000e3a68317a2f1c41e5b2efbce2951088efb0cf524"
          ],
          "data": "0xffffffffffffffffffffffffffffffffffffffffffffffffffffffffffffffff",
          "blockHash": "0x5e8887e269713b39dbc5ce197b0bc3f2457a9720e6c94fa8430610283ddfc208",
          "blockNumber": "0xe0a90e",
          "transactionHash": "0x22558e5a29a2bd387bdd83d6080273503112391395b2e3a23735cd684c43d744",
          "transactionIndex": "0x0",
          "logIndex": "0x7",
          "removed": false
        },
        {
          "address": "0x6dFB16bc471982f19DB32DEE9b6Fb40Db4503cBF",
          "topics": [
            "0x8c5be1e5ebec7d5bd14f71427d1e84f3dd0314c0f7b2291e5b200ac8c7c3b925",
            "0x0000000000000000000000005ef9a582acf63d8800422de0a9f3b6df6ba26984",
            "0x00000000000000000000000094705da51466f3bb1e8c1591d71c09c9760f5f59"
          ],
          "data": "0x0000000000000000000000000000000000000000000000000000000000000000",
          "blockHash": "0x5e8887e269713b39dbc5ce197b0bc3f2457a9720e6c94fa8430610283ddfc208",
          "blockNumber": "0xe0a90e",
          "transactionHash": "0x22558e5a29a2bd387bdd83d6080273503112391395b2e3a23735cd684c43d744",
          "transactionIndex": "0x0",
          "logIndex": "0x8",
          "removed": false
        },
        {
          "address": "0x6dFB16bc471982f19DB32DEE9b6Fb40Db4503cBF",
          "topics": [
            "0x8c5be1e5ebec7d5bd14f71427d1e84f3dd0314c0f7b2291e5b200ac8c7c3b925",
            "0x0000000000000000000000005ef9a582acf63d8800422de0a9f3b6df6ba26984",
            "0x00000000000000000000000094705da51466f3bb1e8c1591d71c09c9760f5f59"
          ],
          "data": "0xffffffffffffffffffffffffffffffffffffffffffffffffffffffffffffffff",
          "blockHash": "0x5e8887e269713b39dbc5ce197b0bc3f2457a9720e6c94fa8430610283ddfc208",
          "blockNumber": "0xe0a90e",
          "transactionHash": "0x22558e5a29a2bd387bdd83d6080273503112391395b2e3a23735cd684c43d744",
          "transactionIndex": "0x0",
          "logIndex": "0x9",
          "removed": false
        },
        {
          "address": "0x8734110e5e1dcF439c7F549db740E546fea82d66",
          "topics": [
            "0x8c5be1e5ebec7d5bd14f71427d1e84f3dd0314c0f7b2291e5b200ac8c7c3b925",
            "0x0000000000000000000000005ef9a582acf63d8800422de0a9f3b6df6ba26984",
            "0x00000000000000000000000094705da51466f3bb1e8c1591d71c09c9760f5f59"
          ],
          "data": "0x0000000000000000000000000000000000000000000000000000000000000000",
          "blockHash": "0x5e8887e269713b39dbc5ce197b0bc3f2457a9720e6c94fa8430610283ddfc208",
          "blockNumber": "0xe0a90e",
          "transactionHash": "0x22558e5a29a2bd387bdd83d6080273503112391395b2e3a23735cd684c43d744",
          "transactionIndex": "0x0",
          "logIndex": "0xa",
          "removed": false
        },
        {
          "address": "0x8734110e5e1dcF439c7F549db740E546fea82d66",
          "topics": [
            "0x8c5be1e5ebec7d5bd14f71427d1e84f3dd0314c0f7b2291e5b200ac8c7c3b925",
            "0x0000000000000000000000005ef9a582acf63d8800422de0a9f3b6df6ba26984",
            "0x00000000000000000000000094705da51466f3bb1e8c1591d71c09c9760f5f59"
          ],
          "data": "0xffffffffffffffffffffffffffffffffffffffffffffffffffffffffffffffff",
          "blockHash": "0x5e8887e269713b39dbc5ce197b0bc3f2457a9720e6c94fa8430610283ddfc208",
          "blockNumber": "0xe0a90e",
          "transactionHash": "0x22558e5a29a2bd387bdd83d6080273503112391395b2e3a23735cd684c43d744",
          "transactionIndex": "0x0",
          "logIndex": "0xb",
          "removed": false
        },
        {
          "address": "0x5eF9A582acf63d8800422De0A9f3B6DF6Ba26984",
          "topics": [
            "0x7f26b83ff96e1f2b6a682f133852f6798a09c465da95921460cefb3847402498"
          ],
          "data": "0x0000000000000000000000000000000000000000000000000000000000000001",
          "blockHash": "0x5e8887e269713b39dbc5ce197b0bc3f2457a9720e6c94fa8430610283ddfc208",
          "blockNumber": "0xe0a90e",
          "transactionHash": "0x22558e5a29a2bd387bdd83d6080273503112391395b2e3a23735cd684c43d744",
          "transactionIndex": "0x0",
          "logIndex": "0xc",
          "removed": false
        },
        {
          "address": "0x5eF9A582acf63d8800422De0A9f3B6DF6Ba26984",
          "topics": [
            "0x8be0079c531659141344cd1fd0a4f28419497f9722a3daafe3b4186f6b6457e0",
            "0x0000000000000000000000000227b15cbed116dadfee96b046c9d70301462e4b",
            "0x00000000000000000000000029782e6eefef1255d1ddc2bd1b4851b890614868"
          ],
          "data": "0x",
          "blockHash": "0x5e8887e269713b39dbc5ce197b0bc3f2457a9720e6c94fa8430610283ddfc208",
          "blockNumber": "0xe0a90e",
          "transactionHash": "0x22558e5a29a2bd387bdd83d6080273503112391395b2e3a23735cd684c43d744",
          "transactionIndex": "0x0",
          "logIndex": "0xd",
          "removed": false
        },
        {
          "address": "0x5eF9A582acf63d8800422De0A9f3B6DF6Ba26984",
          "topics": [
            "0x54a6385aa0292b04e1ef8513253c17d1863f7cdfc87029d77fd55cc4c2e717e2"
          ],
          "data": "0x000000000000000000000000150cc4f90516c23e64231d2b92d737893dbb2515",
          "blockHash": "0x5e8887e269713b39dbc5ce197b0bc3f2457a9720e6c94fa8430610283ddfc208",
          "blockNumber": "0xe0a90e",
          "transactionHash": "0x22558e5a29a2bd387bdd83d6080273503112391395b2e3a23735cd684c43d744",
          "transactionIndex": "0x0",
          "logIndex": "0xe",
          "removed": false
        },
        {
          "address": "0x5e6f2ec0Da31092f9f66AAaE8502BeAA32895484",
          "topics": [
            "0x8be0079c531659141344cd1fd0a4f28419497f9722a3daafe3b4186f6b6457e0",
            "0x000000000000000000000000c6464dbb1dda6479d5402e955beef5fb81c7da43",
            "0x00000000000000000000000029782e6eefef1255d1ddc2bd1b4851b890614868"
          ],
          "data": "0x",
          "blockHash": "0x5e8887e269713b39dbc5ce197b0bc3f2457a9720e6c94fa8430610283ddfc208",
          "blockNumber": "0xe0a90e",
          "transactionHash": "0x22558e5a29a2bd387bdd83d6080273503112391395b2e3a23735cd684c43d744",
          "transactionIndex": "0x0",
          "logIndex": "0xf",
          "removed": false
        },
        {
          "address": "0x5e6f2ec0Da31092f9f66AAaE8502BeAA32895484",
          "topics": [
            "0x7f26b83ff96e1f2b6a682f133852f6798a09c465da95921460cefb3847402498"
          ],
          "data": "0x0000000000000000000000000000000000000000000000000000000000000001",
          "blockHash": "0x5e8887e269713b39dbc5ce197b0bc3f2457a9720e6c94fa8430610283ddfc208",
          "blockNumber": "0xe0a90e",
          "transactionHash": "0x22558e5a29a2bd387bdd83d6080273503112391395b2e3a23735cd684c43d744",
          "transactionIndex": "0x0",
          "logIndex": "0x10",
          "removed": false
        },
        {
          "address": "0xC6464Dbb1dda6479d5402E955beEf5Fb81c7dA43",
          "topics": [
            "0x897c133dfbfe1f6239e98b4ffd7e4f6c86a62350a131a7a37790419f58af02f9",
            "0x00000000000000000000000029782e6eefef1255d1ddc2bd1b4851b890614868",
            "0x00000000000000000000000030f63e60ab33b05f3baff97e5a35010de6f4ea9d"
          ],
          "data": "0x0000000000000000000000005e6f2ec0da31092f9f66aaae8502beaa32895484",
          "blockHash": "0x5e8887e269713b39dbc5ce197b0bc3f2457a9720e6c94fa8430610283ddfc208",
          "blockNumber": "0xe0a90e",
          "transactionHash": "0x22558e5a29a2bd387bdd83d6080273503112391395b2e3a23735cd684c43d744",
          "transactionIndex": "0x0",
          "logIndex": "0x11",
          "removed": false
        }
      ],
      "status": "0x1",
      "logsBloom": "0x20000000000000000000000000000000000020000040000000800000000000000000000000000000000000000000000000000000000000000000000200200000000000000000001020000080000000000101020000000000000001020000000002000000020000600200020000000800000000000000040000000000000000400420000008024000400020000000000000000001000082000000080000080000820140000000000100000000000400000000000014000000400000000000000000000000000000004000000000040000000000000000000001000000000022010010000000000000000000000080001000000000000000000080000000000000"
    },
    {
      "transactionHash": "0x9517b6e2f7219d920ec1307f2e9769bc24b9003dfd13636e502d59cc9ae934a5",
      "transactionIndex": "0x0",
      "blockHash": "0x9a774792c43d218788cc9acf43e71139dae2c2054eb2b65e764282c58c88c67d",
      "blockNumber": "0xe0a917",
      "from": "0x29782e6eefef1255D1DDC2Bd1b4851B890614868",
      "to": "0x5e6f2ec0Da31092f9f66AAaE8502BeAA32895484",
      "cumulativeGasUsed": "0xbc04",
      "gasUsed": "0xbc04",
      "contractAddress": null,
      "logs": [
        {
          "address": "0x5e6f2ec0Da31092f9f66AAaE8502BeAA32895484",
          "topics": [
            "0x74dd9d466f35e6d6ff9fa8b6ba203f926982ab037ba5d8e8457a0a9516e27e14",
            "0x0000000000000000000000002acc49a84919ab9cf0eb6576432e9b09d78650e6",
            "0x00000000000000000000000029782e6eefef1255d1ddc2bd1b4851b890614868"
          ],
          "data": "0x",
          "blockHash": "0x9a774792c43d218788cc9acf43e71139dae2c2054eb2b65e764282c58c88c67d",
          "blockNumber": "0xe0a917",
          "transactionHash": "0x9517b6e2f7219d920ec1307f2e9769bc24b9003dfd13636e502d59cc9ae934a5",
          "transactionIndex": "0x0",
          "logIndex": "0x0",
          "removed": false
        }
      ],
      "status": "0x1",
      "logsBloom": "0x00000000000000000000000000000000020020000000000000000000000000000000000000000000004000000001000000000000000000000000000000000000000000100000000000000000000000000000020000000000000000000000000000000000000000000000000000000000000000000000000000000000000000000000000000000000000000000000000000000001000000000000000010000000000040000000000000000000000000000000000000000000000000000000000000000000000020004000000000000000000000000000000000000000000000000000000000000000000000000000000000000000000000000080000000000000"
    },
    {
      "transactionHash": "0x66369e92ab3ea44b38bd9ae0dac6cf98d6279ddcc3e8379c8663e5b55635862d",
      "transactionIndex": "0x0",
      "blockHash": "0x47bf6b7e2d1e8612768fd9f21855fe01b28b1032b88b41d4de2e4cc8b1b42199",
      "blockNumber": "0xe0a960",
      "from": "0x29782e6eefef1255D1DDC2Bd1b4851B890614868",
      "to": "0x5e6f2ec0Da31092f9f66AAaE8502BeAA32895484",
      "cumulativeGasUsed": "0xbc04",
      "gasUsed": "0xbc04",
      "contractAddress": null,
      "logs": [
        {
          "address": "0x5e6f2ec0Da31092f9f66AAaE8502BeAA32895484",
          "topics": [
            "0x74dd9d466f35e6d6ff9fa8b6ba203f926982ab037ba5d8e8457a0a9516e27e14",
            "0x000000000000000000000000cf288dc70983d17c83ea1b80579b211c51043801",
            "0x00000000000000000000000029782e6eefef1255d1ddc2bd1b4851b890614868"
          ],
          "data": "0x",
          "blockHash": "0x47bf6b7e2d1e8612768fd9f21855fe01b28b1032b88b41d4de2e4cc8b1b42199",
          "blockNumber": "0xe0a960",
          "transactionHash": "0x66369e92ab3ea44b38bd9ae0dac6cf98d6279ddcc3e8379c8663e5b55635862d",
          "transactionIndex": "0x0",
          "logIndex": "0x0",
          "removed": false
        }
      ],
      "status": "0x1",
      "logsBloom": "0x00000000000000000000000000000000020020000000000000000000000000000000000000000000004000000000000000000000000000000000000000000000000000000000000000000000000000000000020000000000000000000000000000000000000000000000000000800000000000000000000008000000000000000000000000000000000000000000000000000001000000000000000010000000000040000000000000000000000000000000000000000000000000000000000000000000000000004000000000000000000000000000000000000000010000000000000000000000000000000000000000000000000000000080000000000000"
    },
    {
      "transactionHash": "0x73240eb0d05efd188320779c9314d35e49c33aaf11528fd39621f9162b7e50e2",
      "transactionIndex": "0x0",
      "blockHash": "0xd55e7fb9319a5e1aa842e402ebd406f00cd60e3c32cb95d4bd20fe4f9ff02c57",
      "blockNumber": "0xe0a99f",
      "from": "0x29782e6eefef1255D1DDC2Bd1b4851B890614868",
      "to": "0x5e6f2ec0Da31092f9f66AAaE8502BeAA32895484",
      "cumulativeGasUsed": "0xbc04",
      "gasUsed": "0xbc04",
      "contractAddress": null,
      "logs": [
        {
          "address": "0x5e6f2ec0Da31092f9f66AAaE8502BeAA32895484",
          "topics": [
            "0x74dd9d466f35e6d6ff9fa8b6ba203f926982ab037ba5d8e8457a0a9516e27e14",
            "0x000000000000000000000000e620ddc3b46fc30d7ba98c6b315aa17f69302b0c",
            "0x00000000000000000000000029782e6eefef1255d1ddc2bd1b4851b890614868"
          ],
          "data": "0x",
          "blockHash": "0xd55e7fb9319a5e1aa842e402ebd406f00cd60e3c32cb95d4bd20fe4f9ff02c57",
          "blockNumber": "0xe0a99f",
          "transactionHash": "0x73240eb0d05efd188320779c9314d35e49c33aaf11528fd39621f9162b7e50e2",
          "transactionIndex": "0x0",
          "logIndex": "0x0",
          "removed": false
        }
      ],
      "status": "0x1",
      "logsBloom": "0x00000000000000000000000000000000020020000000000000000000000000000000000000000000004000000000040000000000000000000000000000000000000000000000000000000000800000000000020000000000000000000000000000000000000000000000000000000000000000000000000000000000000000000000000000000000000000000000000000000001000000000000000010000000000040000000000000000000000000000000000000000000000000000000000008000000000000004000000000000000000000000000000000000000000000000000000000000000000000000000000000000000000000000080000000000000"
    },
    {
      "transactionHash": "0xba12c92bd92e8feba32e6d4db2fcd35570cf0cb9acb8a8e9dba74cafe16e9cf1",
      "transactionIndex": "0x0",
      "blockHash": "0xd334ab4c219ad4cfc1b014b9495cb90a3398834bf8da02cb73df17ad61112876",
      "blockNumber": "0xe0a9bc",
      "from": "0x29782e6eefef1255D1DDC2Bd1b4851B890614868",
      "to": "0x5e6f2ec0Da31092f9f66AAaE8502BeAA32895484",
      "cumulativeGasUsed": "0xbc04",
      "gasUsed": "0xbc04",
      "contractAddress": null,
      "logs": [
        {
          "address": "0x5e6f2ec0Da31092f9f66AAaE8502BeAA32895484",
          "topics": [
            "0x74dd9d466f35e6d6ff9fa8b6ba203f926982ab037ba5d8e8457a0a9516e27e14",
            "0x000000000000000000000000e1427b8a742f489c866c42874f83afc0c5d003e8",
            "0x00000000000000000000000029782e6eefef1255d1ddc2bd1b4851b890614868"
          ],
          "data": "0x",
          "blockHash": "0xd334ab4c219ad4cfc1b014b9495cb90a3398834bf8da02cb73df17ad61112876",
          "blockNumber": "0xe0a9bc",
          "transactionHash": "0xba12c92bd92e8feba32e6d4db2fcd35570cf0cb9acb8a8e9dba74cafe16e9cf1",
          "transactionIndex": "0x0",
          "logIndex": "0x0",
          "removed": false
        }
      ],
      "status": "0x1",
      "logsBloom": "0x00000000000000000000000000020000020020000000000000000000000000000000000000000000004000000000000000000000000000000000000000000000000000000000000000000000010000000000020000000000000000000000000000000000000000000000000000000000000000000000000000000000000000000000000000000000000000000000000000000001000000000000000010000000000040000000000000000000000000000000000000000000000000000000000000000000000000004000000000000000000000000000000000000000000000000000000000000000000000000000000000000040000000000080000000000000"
    },
    {
      "transactionHash": "0x70733ad09821c49ff6ea6a5b8f4e7bf7fb60f8b634464b186894b8b35b37d3c9",
      "transactionIndex": "0x0",
      "blockHash": "0x8957bfb7f6f3a8062d47d3eb07dd995dd55214dad0f6d17075b59b004e161bf9",
      "blockNumber": "0xe0a9c8",
      "from": "0x29782e6eefef1255D1DDC2Bd1b4851B890614868",
      "to": "0x5e6f2ec0Da31092f9f66AAaE8502BeAA32895484",
      "cumulativeGasUsed": "0xbc04",
      "gasUsed": "0xbc04",
      "contractAddress": null,
      "logs": [
        {
          "address": "0x5e6f2ec0Da31092f9f66AAaE8502BeAA32895484",
          "topics": [
            "0x74dd9d466f35e6d6ff9fa8b6ba203f926982ab037ba5d8e8457a0a9516e27e14",
            "0x000000000000000000000000c4587d8110d0fe59abb24188473e9c5a9df4684f",
            "0x00000000000000000000000029782e6eefef1255d1ddc2bd1b4851b890614868"
          ],
          "data": "0x",
          "blockHash": "0x8957bfb7f6f3a8062d47d3eb07dd995dd55214dad0f6d17075b59b004e161bf9",
          "blockNumber": "0xe0a9c8",
          "transactionHash": "0x70733ad09821c49ff6ea6a5b8f4e7bf7fb60f8b634464b186894b8b35b37d3c9",
          "transactionIndex": "0x0",
          "logIndex": "0x0",
          "removed": false
        }
      ],
      "status": "0x1",
      "logsBloom": "0x00000000000000000000000000000000020020000000400000000000000000000000000000000000004000000000000000000000000000000000000000000000000000000000000000000000000000000000020000000000000000000000000000000000000000000000000000000000000000000000000000000000000000000000000000000000000000000000000000000001000000000000000010080000800040000000000000000000000000000000000000000000000000000000000000000000000000004000000000000000000000000000000000000000000000000000000000000000000000000000000000000000000000000080000000000000"
    },
    {
      "transactionHash": "0x4d2b6d0de145fc6f1ab38f2e4576c31aa4845ed947070fbde3585d145b2d8ef2",
      "transactionIndex": "0x0",
      "blockHash": "0x545c6c81bbaa761e38d5c4b0d5f448da10e61c49587382eb227a011c47d861dc",
      "blockNumber": "0xe0a9cc",
      "from": "0x29782e6eefef1255D1DDC2Bd1b4851B890614868",
      "to": "0x5e6f2ec0Da31092f9f66AAaE8502BeAA32895484",
      "cumulativeGasUsed": "0xbc04",
      "gasUsed": "0xbc04",
      "contractAddress": null,
      "logs": [
        {
          "address": "0x5e6f2ec0Da31092f9f66AAaE8502BeAA32895484",
          "topics": [
            "0x74dd9d466f35e6d6ff9fa8b6ba203f926982ab037ba5d8e8457a0a9516e27e14",
            "0x00000000000000000000000016b7a584fecc9da0833f2e96b9fc770db906c9c4",
            "0x00000000000000000000000029782e6eefef1255d1ddc2bd1b4851b890614868"
          ],
          "data": "0x",
          "blockHash": "0x545c6c81bbaa761e38d5c4b0d5f448da10e61c49587382eb227a011c47d861dc",
          "blockNumber": "0xe0a9cc",
          "transactionHash": "0x4d2b6d0de145fc6f1ab38f2e4576c31aa4845ed947070fbde3585d145b2d8ef2",
          "transactionIndex": "0x0",
          "logIndex": "0x0",
          "removed": false
        }
      ],
      "status": "0x1",
      "logsBloom": "0x00000000000000000000000000000000020020000000000000000000000000000000000000000000004000000000000000000000000000000000000000000008000000000000000000000000000000000000020000000000000000000000000000000000000000000000000000000000000000000000000000000000000000000000000000000000000000000000000000000001000000000000000010000080000040000000000000000000000000000000000000000000000000000000000000000000000000004000000000000000000000000000000000000000000000000000000000000000000008000000000000000000000000000080000000000000"
    },
    {
      "transactionHash": "0xd0b4705753134096584c640ea14dc2aa2f614fd1fbae69e232a05cb2b24e9aa9",
      "transactionIndex": "0x0",
      "blockHash": "0x2c23b6baffab7cda7d1189f034d4b5d72098ae51e41f2e6375c6691dd86b065c",
      "blockNumber": "0xe0a9ce",
      "from": "0x29782e6eefef1255D1DDC2Bd1b4851B890614868",
      "to": "0x5e6f2ec0Da31092f9f66AAaE8502BeAA32895484",
      "cumulativeGasUsed": "0xbbf8",
      "gasUsed": "0xbbf8",
      "contractAddress": null,
      "logs": [
        {
          "address": "0x5e6f2ec0Da31092f9f66AAaE8502BeAA32895484",
          "topics": [
            "0x74dd9d466f35e6d6ff9fa8b6ba203f926982ab037ba5d8e8457a0a9516e27e14",
            "0x000000000000000000000000f925488428e935228d0200c515399b80017f53e6",
            "0x00000000000000000000000029782e6eefef1255d1ddc2bd1b4851b890614868"
          ],
          "data": "0x",
          "blockHash": "0x2c23b6baffab7cda7d1189f034d4b5d72098ae51e41f2e6375c6691dd86b065c",
          "blockNumber": "0xe0a9ce",
          "transactionHash": "0xd0b4705753134096584c640ea14dc2aa2f614fd1fbae69e232a05cb2b24e9aa9",
          "transactionIndex": "0x0",
          "logIndex": "0x0",
          "removed": false
        }
      ],
      "status": "0x1",
      "logsBloom": "0x00000000000000000000000000000000020020000000000000000000000000000000000000000000004000000000000000000000000000000000000000000000000000000000000000000000000000000000020000000000000000000000000000000000000000000000000000000000000000000801000000000000000000000000000000000000000000000000000000000001000000000000000010000000000040000000000000000000000000000000000000000000000000000000000000004000000000004000000000000000000000000000000000000000000000000000000000000000000000000000000000000000000000000080000000000000"
    },
    {
      "transactionHash": "0xd147c71e3c4db67fee2a542261f83cc10555dd94f1ec83f0476a50dd6f1e65b2",
      "transactionIndex": "0x0",
      "blockHash": "0xb92c6dc4fc3bd5f4ea71b213508c5a8836f7eb66988831537f6a496bf1814e13",
      "blockNumber": "0xe0a9cf",
      "from": "0x29782e6eefef1255D1DDC2Bd1b4851B890614868",
      "to": "0x5e6f2ec0Da31092f9f66AAaE8502BeAA32895484",
      "cumulativeGasUsed": "0xbbf8",
      "gasUsed": "0xbbf8",
      "contractAddress": null,
      "logs": [
        {
          "address": "0x5e6f2ec0Da31092f9f66AAaE8502BeAA32895484",
          "topics": [
            "0x74dd9d466f35e6d6ff9fa8b6ba203f926982ab037ba5d8e8457a0a9516e27e14",
            "0x0000000000000000000000008a48f4c34a24dcfa962d2e86ac9c2c00251a0a92",
            "0x00000000000000000000000029782e6eefef1255d1ddc2bd1b4851b890614868"
          ],
          "data": "0x",
          "blockHash": "0xb92c6dc4fc3bd5f4ea71b213508c5a8836f7eb66988831537f6a496bf1814e13",
          "blockNumber": "0xe0a9cf",
          "transactionHash": "0xd147c71e3c4db67fee2a542261f83cc10555dd94f1ec83f0476a50dd6f1e65b2",
          "transactionIndex": "0x0",
          "logIndex": "0x0",
          "removed": false
        }
      ],
      "status": "0x1",
      "logsBloom": "0x00000000000000000000000000000000020020000000000000000000000000000000000000000000004000000000000000000000000000000000000000000000000000000000000000002000000000000000020000000000000000000000000000000000000000000000000000000000000000000000000000000000000000000000000000000000000000000000000400000001000000000000000010000000000040000000000000000000000000000000000000000000000000000000000040000000000000004000000000000000000000000000000000000000000000000000000000000000000000000000000000000000000000000080000000000000"
    },
    {
      "transactionHash": "0xeaa757920fb72385c38ba02da16fb39421763559c28dc4cc814be818c652a86a",
      "transactionIndex": "0x0",
      "blockHash": "0xb08c82a98812821f8ffe026011f2d7a50a1a91310bdd27f9aea23239923ccc2c",
      "blockNumber": "0xe0a9df",
      "from": "0x2aCC49a84919Ab9Cf0eb6576432E9b09D78650E6",
      "to": "0x8734110e5e1dcF439c7F549db740E546fea82d66",
      "cumulativeGasUsed": "0xb44a",
      "gasUsed": "0xb44a",
      "contractAddress": null,
      "logs": [
        {
          "address": "0x8734110e5e1dcF439c7F549db740E546fea82d66",
          "topics": [
            "0x8c5be1e5ebec7d5bd14f71427d1e84f3dd0314c0f7b2291e5b200ac8c7c3b925",
            "0x0000000000000000000000002acc49a84919ab9cf0eb6576432e9b09d78650e6",
            "0x0000000000000000000000005e6f2ec0da31092f9f66aaae8502beaa32895484"
          ],
          "data": "0x0000000000000000000000000000000000000000000000001bc16d674ec80000",
          "blockHash": "0xb08c82a98812821f8ffe026011f2d7a50a1a91310bdd27f9aea23239923ccc2c",
          "blockNumber": "0xe0a9df",
          "transactionHash": "0xeaa757920fb72385c38ba02da16fb39421763559c28dc4cc814be818c652a86a",
          "transactionIndex": "0x0",
          "logIndex": "0x0",
          "removed": false
        }
      ],
      "status": "0x1",
      "logsBloom": "0x00000000000000000000000000000000000000000000000000000000000000000000000000000000000000000001000000000000000000000000000000200000000000100000000020000000000000000000000000000000000000000000000000000000000000200000000000000000000000000000000000000000000000000000000000000000000000000000000000000000000000000000080400000000020000000000000000000000000000000000400000000000000000000000000000000000000020000000000000000000000000000000000000000000000000000010000000000000000000000000000000000000000002000000000000000000"
    },
    {
      "transactionHash": "0xa416d00a400def90a39dc8614b17caf2eac1ca0ae5929ad615646ffdde0daa4f",
      "transactionIndex": "0x0",
      "blockHash": "0xdb06397a211fafdb5c6459a19462604f5d5b26366e38a50047d9948091ce5a71",
      "blockNumber": "0xe0a9e3",
      "from": "0x2aCC49a84919Ab9Cf0eb6576432E9b09D78650E6",
      "to": "0x5e6f2ec0Da31092f9f66AAaE8502BeAA32895484",
      "cumulativeGasUsed": "0xcc850",
      "gasUsed": "0xcc850",
      "contractAddress": null,
      "logs": [
        {
          "address": "0x8734110e5e1dcF439c7F549db740E546fea82d66",
          "topics": [
            "0xddf252ad1be2c89b69c2b068fc378daa952ba7f163c4a11628f55a4df523b3ef",
            "0x0000000000000000000000002acc49a84919ab9cf0eb6576432e9b09d78650e6",
            "0x0000000000000000000000005e6f2ec0da31092f9f66aaae8502beaa32895484"
          ],
          "data": "0x0000000000000000000000000000000000000000000000001bc16d674ec80000",
          "blockHash": "0xdb06397a211fafdb5c6459a19462604f5d5b26366e38a50047d9948091ce5a71",
          "blockNumber": "0xe0a9e3",
          "transactionHash": "0xa416d00a400def90a39dc8614b17caf2eac1ca0ae5929ad615646ffdde0daa4f",
          "transactionIndex": "0x0",
          "logIndex": "0x0",
          "removed": false
        },
        {
          "address": "0x8734110e5e1dcF439c7F549db740E546fea82d66",
          "topics": [
            "0xddf252ad1be2c89b69c2b068fc378daa952ba7f163c4a11628f55a4df523b3ef",
            "0x0000000000000000000000005e6f2ec0da31092f9f66aaae8502beaa32895484",
            "0x0000000000000000000000005ef9a582acf63d8800422de0a9f3b6df6ba26984"
          ],
          "data": "0x0000000000000000000000000000000000000000000000001bc16d674ec80000",
          "blockHash": "0xdb06397a211fafdb5c6459a19462604f5d5b26366e38a50047d9948091ce5a71",
          "blockNumber": "0xe0a9e3",
          "transactionHash": "0xa416d00a400def90a39dc8614b17caf2eac1ca0ae5929ad615646ffdde0daa4f",
          "transactionIndex": "0x0",
          "logIndex": "0x1",
          "removed": false
        },
        {
          "address": "0x8734110e5e1dcF439c7F549db740E546fea82d66",
          "topics": [
            "0xddf252ad1be2c89b69c2b068fc378daa952ba7f163c4a11628f55a4df523b3ef",
            "0x0000000000000000000000005ef9a582acf63d8800422de0a9f3b6df6ba26984",
            "0x00000000000000000000000030f63e60ab33b05f3baff97e5a35010de6f4ea9d"
          ],
          "data": "0x0000000000000000000000000000000000000000000000001bc16d674ec80000",
          "blockHash": "0xdb06397a211fafdb5c6459a19462604f5d5b26366e38a50047d9948091ce5a71",
          "blockNumber": "0xe0a9e3",
          "transactionHash": "0xa416d00a400def90a39dc8614b17caf2eac1ca0ae5929ad615646ffdde0daa4f",
          "transactionIndex": "0x0",
          "logIndex": "0x2",
          "removed": false
        },
        {
          "address": "0x30F63e60Ab33B05f3baFf97E5A35010De6F4Ea9D",
          "topics": [
            "0x7a53080ba414158be7ec69b987b5fb7d07dee101fe85488f0853ae16239d0bde",
            "0x00000000000000000000000094705da51466f3bb1e8c1591d71c09c9760f5f59",
            "0x000000000000000000000000000000000000000000000000000000000000b608",
            "0x000000000000000000000000000000000000000000000000000000000000be3c"
          ],
          "data": "0x00000000000000000000000094705da51466f3bb1e8c1591d71c09c9760f5f59000000000000000000000000000000000000000000000000186583ef56be736d00000000000000000000000000000000000000000000000000000000000000000000000000000000000000000000000000000000000000001bc16d674ec80000",
          "blockHash": "0xdb06397a211fafdb5c6459a19462604f5d5b26366e38a50047d9948091ce5a71",
          "blockNumber": "0xe0a9e3",
          "transactionHash": "0xa416d00a400def90a39dc8614b17caf2eac1ca0ae5929ad615646ffdde0daa4f",
          "transactionIndex": "0x0",
          "logIndex": "0x3",
          "removed": false
        },
        {
          "address": "0x94705da51466F3Bb1E8c1591D71C09c9760f5F59",
          "topics": [
            "0xddf252ad1be2c89b69c2b068fc378daa952ba7f163c4a11628f55a4df523b3ef",
            "0x0000000000000000000000000000000000000000000000000000000000000000",
            "0x0000000000000000000000005ef9a582acf63d8800422de0a9f3b6df6ba26984",
            "0x0000000000000000000000000000000000000000000000000000000000024f62"
          ],
          "data": "0x",
          "blockHash": "0xdb06397a211fafdb5c6459a19462604f5d5b26366e38a50047d9948091ce5a71",
          "blockNumber": "0xe0a9e3",
          "transactionHash": "0xa416d00a400def90a39dc8614b17caf2eac1ca0ae5929ad615646ffdde0daa4f",
          "transactionIndex": "0x0",
          "logIndex": "0x4",
          "removed": false
        },
        {
          "address": "0x94705da51466F3Bb1E8c1591D71C09c9760f5F59",
          "topics": [
            "0x3067048beee31b25b2f1681f88dac838c8bba36af25bfb2b7cf7473a5847e35f",
            "0x0000000000000000000000000000000000000000000000000000000000024f62"
          ],
          "data": "0x000000000000000000000000000000000000000000000000186583ef56be736d00000000000000000000000000000000000000000000000000000000000000000000000000000000000000000000000000000000000000001bc16d674ec80000",
          "blockHash": "0xdb06397a211fafdb5c6459a19462604f5d5b26366e38a50047d9948091ce5a71",
          "blockNumber": "0xe0a9e3",
          "transactionHash": "0xa416d00a400def90a39dc8614b17caf2eac1ca0ae5929ad615646ffdde0daa4f",
          "transactionIndex": "0x0",
          "logIndex": "0x5",
          "removed": false
        },
        {
          "address": "0x94705da51466F3Bb1E8c1591D71C09c9760f5F59",
          "topics": [
            "0x8c5be1e5ebec7d5bd14f71427d1e84f3dd0314c0f7b2291e5b200ac8c7c3b925",
            "0x0000000000000000000000005ef9a582acf63d8800422de0a9f3b6df6ba26984",
            "0x0000000000000000000000000000000000000000000000000000000000000000",
            "0x0000000000000000000000000000000000000000000000000000000000024f62"
          ],
          "data": "0x",
          "blockHash": "0xdb06397a211fafdb5c6459a19462604f5d5b26366e38a50047d9948091ce5a71",
          "blockNumber": "0xe0a9e3",
          "transactionHash": "0xa416d00a400def90a39dc8614b17caf2eac1ca0ae5929ad615646ffdde0daa4f",
          "transactionIndex": "0x0",
          "logIndex": "0x6",
          "removed": false
        },
        {
          "address": "0x94705da51466F3Bb1E8c1591D71C09c9760f5F59",
          "topics": [
            "0xddf252ad1be2c89b69c2b068fc378daa952ba7f163c4a11628f55a4df523b3ef",
            "0x0000000000000000000000005ef9a582acf63d8800422de0a9f3b6df6ba26984",
            "0x0000000000000000000000009316938eaa09e71cbb1bf713212a42becba2998f",
            "0x0000000000000000000000000000000000000000000000000000000000024f62"
          ],
          "data": "0x",
          "blockHash": "0xdb06397a211fafdb5c6459a19462604f5d5b26366e38a50047d9948091ce5a71",
          "blockNumber": "0xe0a9e3",
          "transactionHash": "0xa416d00a400def90a39dc8614b17caf2eac1ca0ae5929ad615646ffdde0daa4f",
          "transactionIndex": "0x0",
          "logIndex": "0x7",
          "removed": false
        },
        {
          "address": "0x9316938Eaa09E71CBB1Bf713212A42beCBa2998F",
          "topics": [
            "0xee8f6362d59839b4b3c990d7e085a63a0fe2c58f4eff4a9a2b6de93a4c645ae3",
            "0x00000000000000000000000094705da51466f3bb1e8c1591d71c09c9760f5f59",
            "0x0000000000000000000000000000000000000000000000000000000000000001",
            "0x0000000000000000000000000000000000000000000000000000000000024f62"
          ],
          "data": "0x000000000000000000000000000000000000000000000000186583ef56be736d000000000000000000000000000000000000000000000000000000000000b608000000000000000000000000000000000000000000000000000000000000be3c",
          "blockHash": "0xdb06397a211fafdb5c6459a19462604f5d5b26366e38a50047d9948091ce5a71",
          "blockNumber": "0xe0a9e3",
          "transactionHash": "0xa416d00a400def90a39dc8614b17caf2eac1ca0ae5929ad615646ffdde0daa4f",
          "transactionIndex": "0x0",
          "logIndex": "0x8",
          "removed": false
        },
        {
          "address": "0x9316938Eaa09E71CBB1Bf713212A42beCBa2998F",
          "topics": [
            "0xb19157bff94fdd40c58c7d4a5d52e8eb8c2d570ca17b322b49a2bbbeedc82fbf",
            "0x0000000000000000000000005ef9a582acf63d8800422de0a9f3b6df6ba26984",
            "0x0000000000000000000000000000000000000000000000000000000000000001",
            "0x0000000000000000000000000000000000000000000000000000000000024f62"
          ],
          "data": "0x000000000000000000000000000000000000000000000000186583ef56be736d000000000000000000000000000000000000000000000000000000000000b608000000000000000000000000000000000000000000000000000000000000be3c",
          "blockHash": "0xdb06397a211fafdb5c6459a19462604f5d5b26366e38a50047d9948091ce5a71",
          "blockNumber": "0xe0a9e3",
          "transactionHash": "0xa416d00a400def90a39dc8614b17caf2eac1ca0ae5929ad615646ffdde0daa4f",
          "transactionIndex": "0x0",
          "logIndex": "0x9",
          "removed": false
        },
        {
          "address": "0x8734110e5e1dcF439c7F549db740E546fea82d66",
          "topics": [
            "0xddf252ad1be2c89b69c2b068fc378daa952ba7f163c4a11628f55a4df523b3ef",
            "0x0000000000000000000000005ef9a582acf63d8800422de0a9f3b6df6ba26984",
            "0x0000000000000000000000005e6f2ec0da31092f9f66aaae8502beaa32895484"
          ],
          "data": "0x0000000000000000000000000000000000000000000000000000000000000000",
          "blockHash": "0xdb06397a211fafdb5c6459a19462604f5d5b26366e38a50047d9948091ce5a71",
          "blockNumber": "0xe0a9e3",
          "transactionHash": "0xa416d00a400def90a39dc8614b17caf2eac1ca0ae5929ad615646ffdde0daa4f",
          "transactionIndex": "0x0",
          "logIndex": "0xa",
          "removed": false
        },
        {
          "address": "0x5e6f2ec0Da31092f9f66AAaE8502BeAA32895484",
          "topics": [
            "0xddf252ad1be2c89b69c2b068fc378daa952ba7f163c4a11628f55a4df523b3ef",
            "0x0000000000000000000000000000000000000000000000000000000000000000",
            "0x0000000000000000000000002acc49a84919ab9cf0eb6576432e9b09d78650e6"
          ],
          "data": "0x0000000000000000000000000000000000000000000000001bc16d674ec80000",
          "blockHash": "0xdb06397a211fafdb5c6459a19462604f5d5b26366e38a50047d9948091ce5a71",
          "blockNumber": "0xe0a9e3",
          "transactionHash": "0xa416d00a400def90a39dc8614b17caf2eac1ca0ae5929ad615646ffdde0daa4f",
          "transactionIndex": "0x0",
          "logIndex": "0xb",
          "removed": false
        },
        {
          "address": "0x5e6f2ec0Da31092f9f66AAaE8502BeAA32895484",
          "topics": [
            "0xdcbc1c05240f31ff3ad067ef1ee35ce4997762752e3a095284754544f4c709d7",
            "0x0000000000000000000000002acc49a84919ab9cf0eb6576432e9b09d78650e6",
            "0x0000000000000000000000002acc49a84919ab9cf0eb6576432e9b09d78650e6"
          ],
          "data": "0x0000000000000000000000000000000000000000000000001bc16d674ec800000000000000000000000000000000000000000000000000001bc16d674ec80000",
          "blockHash": "0xdb06397a211fafdb5c6459a19462604f5d5b26366e38a50047d9948091ce5a71",
          "blockNumber": "0xe0a9e3",
          "transactionHash": "0xa416d00a400def90a39dc8614b17caf2eac1ca0ae5929ad615646ffdde0daa4f",
          "transactionIndex": "0x0",
          "logIndex": "0xc",
          "removed": false
        }
      ],
      "status": "0x1",
      "logsBloom": "0x00000000000000000000100000000000000020000000000000000000000400020000000000000000000000000001080000000001100000000400040000240000000000500000000020000008000000010000000000040001000010400000000002000000020000208000020000800800000000010804000000000010000000000400000008004000000100000000000080000008000002000000080400000000820000000000000100000000000104000000400000000000000000000000000000000002000024004000080000000000000000000009000000000000000060010010080000000000000080000000001000000800000002024080400000000800"
    },
    {
      "transactionHash": "0x971601d764ecde159864c52856cee06b31592c67c67bbcfb10016b378d3aee73",
      "transactionIndex": "0x0",
      "blockHash": "0x3b52a90c1e79afd2f30289927e4f17739a646765d85d5b1477c5b48059c93888",
      "blockNumber": "0xe0a9e6",
      "from": "0xcf288Dc70983D17C83EA1b80579b211c51043801",
      "to": "0x8734110e5e1dcF439c7F549db740E546fea82d66",
      "cumulativeGasUsed": "0xb44a",
      "gasUsed": "0xb44a",
      "contractAddress": null,
      "logs": [
        {
          "address": "0x8734110e5e1dcF439c7F549db740E546fea82d66",
          "topics": [
            "0x8c5be1e5ebec7d5bd14f71427d1e84f3dd0314c0f7b2291e5b200ac8c7c3b925",
            "0x000000000000000000000000cf288dc70983d17c83ea1b80579b211c51043801",
            "0x0000000000000000000000005e6f2ec0da31092f9f66aaae8502beaa32895484"
          ],
          "data": "0x0000000000000000000000000000000000000000000000001bc16d674ec80000",
          "blockHash": "0x3b52a90c1e79afd2f30289927e4f17739a646765d85d5b1477c5b48059c93888",
          "blockNumber": "0xe0a9e6",
          "transactionHash": "0x971601d764ecde159864c52856cee06b31592c67c67bbcfb10016b378d3aee73",
          "transactionIndex": "0x0",
          "logIndex": "0x0",
          "removed": false
        }
      ],
      "status": "0x1",
      "logsBloom": "0x00000000000000000000000000000000000000000000000000000000000000000000000000000000000000000000000000000000000000000000000000200000000000000000000020000000000000000000000000000000000000000000000000000000000000200000000000800000000000000000000008000000000000000000000000000000000000000000000000000000000000000000080400000000020000000000000000000000000000000000400000000000000000000000000000000000000000000000000000000000000000000000000000000000010000000010000000000000000000000000000000000000000002000000000000000000"
    },
    {
      "transactionHash": "0x9a8efbdb7f9705eaa7d9070754aa85e00ffa4e5c1a0712e58c73992c943ed555",
      "transactionIndex": "0x0",
      "blockHash": "0xb333bab3b6c2c0ca4748f1a1aa18f01aac2111f42de86c21fb5a3248a89bde10",
      "blockNumber": "0xe0a9f8",
      "from": "0xcf288Dc70983D17C83EA1b80579b211c51043801",
      "to": "0x5e6f2ec0Da31092f9f66AAaE8502BeAA32895484",
      "cumulativeGasUsed": "0x675f2",
      "gasUsed": "0x675f2",
      "contractAddress": null,
      "logs": [
        {
          "address": "0x8734110e5e1dcF439c7F549db740E546fea82d66",
          "topics": [
            "0xddf252ad1be2c89b69c2b068fc378daa952ba7f163c4a11628f55a4df523b3ef",
            "0x000000000000000000000000cf288dc70983d17c83ea1b80579b211c51043801",
            "0x0000000000000000000000005e6f2ec0da31092f9f66aaae8502beaa32895484"
          ],
          "data": "0x0000000000000000000000000000000000000000000000001bc16d674ec80000",
          "blockHash": "0xb333bab3b6c2c0ca4748f1a1aa18f01aac2111f42de86c21fb5a3248a89bde10",
          "blockNumber": "0xe0a9f8",
          "transactionHash": "0x9a8efbdb7f9705eaa7d9070754aa85e00ffa4e5c1a0712e58c73992c943ed555",
          "transactionIndex": "0x0",
          "logIndex": "0x0",
          "removed": false
        },
        {
          "address": "0x8734110e5e1dcF439c7F549db740E546fea82d66",
          "topics": [
            "0xddf252ad1be2c89b69c2b068fc378daa952ba7f163c4a11628f55a4df523b3ef",
            "0x0000000000000000000000005e6f2ec0da31092f9f66aaae8502beaa32895484",
            "0x0000000000000000000000005ef9a582acf63d8800422de0a9f3b6df6ba26984"
          ],
          "data": "0x0000000000000000000000000000000000000000000000001bc16d674ec80000",
          "blockHash": "0xb333bab3b6c2c0ca4748f1a1aa18f01aac2111f42de86c21fb5a3248a89bde10",
          "blockNumber": "0xe0a9f8",
          "transactionHash": "0x9a8efbdb7f9705eaa7d9070754aa85e00ffa4e5c1a0712e58c73992c943ed555",
          "transactionIndex": "0x0",
          "logIndex": "0x1",
          "removed": false
        },
        {
          "address": "0x8734110e5e1dcF439c7F549db740E546fea82d66",
          "topics": [
            "0xddf252ad1be2c89b69c2b068fc378daa952ba7f163c4a11628f55a4df523b3ef",
            "0x0000000000000000000000005ef9a582acf63d8800422de0a9f3b6df6ba26984",
            "0x00000000000000000000000030f63e60ab33b05f3baff97e5a35010de6f4ea9d"
          ],
          "data": "0x0000000000000000000000000000000000000000000000001bc16d674ec80000",
          "blockHash": "0xb333bab3b6c2c0ca4748f1a1aa18f01aac2111f42de86c21fb5a3248a89bde10",
          "blockNumber": "0xe0a9f8",
          "transactionHash": "0x9a8efbdb7f9705eaa7d9070754aa85e00ffa4e5c1a0712e58c73992c943ed555",
          "transactionIndex": "0x0",
          "logIndex": "0x2",
          "removed": false
        },
        {
          "address": "0x30F63e60Ab33B05f3baFf97E5A35010De6F4Ea9D",
          "topics": [
            "0x7a53080ba414158be7ec69b987b5fb7d07dee101fe85488f0853ae16239d0bde",
            "0x00000000000000000000000094705da51466f3bb1e8c1591d71c09c9760f5f59",
            "0x000000000000000000000000000000000000000000000000000000000000b608",
            "0x000000000000000000000000000000000000000000000000000000000000be3c"
          ],
          "data": "0x00000000000000000000000094705da51466f3bb1e8c1591d71c09c9760f5f59000000000000000000000000000000000000000000000000186583ef56be736d00000000000000000000000000000000000000000000000000000000000000000000000000000000000000000000000000000000000000001bc16d674ec80000",
          "blockHash": "0xb333bab3b6c2c0ca4748f1a1aa18f01aac2111f42de86c21fb5a3248a89bde10",
          "blockNumber": "0xe0a9f8",
          "transactionHash": "0x9a8efbdb7f9705eaa7d9070754aa85e00ffa4e5c1a0712e58c73992c943ed555",
          "transactionIndex": "0x0",
          "logIndex": "0x3",
          "removed": false
        },
        {
          "address": "0x94705da51466F3Bb1E8c1591D71C09c9760f5F59",
          "topics": [
            "0x3067048beee31b25b2f1681f88dac838c8bba36af25bfb2b7cf7473a5847e35f",
            "0x0000000000000000000000000000000000000000000000000000000000024f62"
          ],
          "data": "0x000000000000000000000000000000000000000000000000186583ef56be736d00000000000000000000000000000000000000000000000000000000000000000000000000000000000000000000000000000000000000001bc16d674ec80000",
          "blockHash": "0xb333bab3b6c2c0ca4748f1a1aa18f01aac2111f42de86c21fb5a3248a89bde10",
          "blockNumber": "0xe0a9f8",
          "transactionHash": "0x9a8efbdb7f9705eaa7d9070754aa85e00ffa4e5c1a0712e58c73992c943ed555",
          "transactionIndex": "0x0",
          "logIndex": "0x4",
          "removed": false
        },
        {
          "address": "0x9316938Eaa09E71CBB1Bf713212A42beCBa2998F",
          "topics": [
            "0xee8f6362d59839b4b3c990d7e085a63a0fe2c58f4eff4a9a2b6de93a4c645ae3",
            "0x0000000000000000000000005ef9a582acf63d8800422de0a9f3b6df6ba26984",
            "0x0000000000000000000000000000000000000000000000000000000000000001",
            "0x0000000000000000000000000000000000000000000000000000000000024f62"
          ],
          "data": "0x000000000000000000000000000000000000000000000000186583ef56be736d000000000000000000000000000000000000000000000000000000000000b608000000000000000000000000000000000000000000000000000000000000be3c",
          "blockHash": "0xb333bab3b6c2c0ca4748f1a1aa18f01aac2111f42de86c21fb5a3248a89bde10",
          "blockNumber": "0xe0a9f8",
          "transactionHash": "0x9a8efbdb7f9705eaa7d9070754aa85e00ffa4e5c1a0712e58c73992c943ed555",
          "transactionIndex": "0x0",
          "logIndex": "0x5",
          "removed": false
        },
        {
          "address": "0x8734110e5e1dcF439c7F549db740E546fea82d66",
          "topics": [
            "0xddf252ad1be2c89b69c2b068fc378daa952ba7f163c4a11628f55a4df523b3ef",
            "0x0000000000000000000000005ef9a582acf63d8800422de0a9f3b6df6ba26984",
            "0x0000000000000000000000005e6f2ec0da31092f9f66aaae8502beaa32895484"
          ],
          "data": "0x0000000000000000000000000000000000000000000000000000000000000000",
          "blockHash": "0xb333bab3b6c2c0ca4748f1a1aa18f01aac2111f42de86c21fb5a3248a89bde10",
          "blockNumber": "0xe0a9f8",
          "transactionHash": "0x9a8efbdb7f9705eaa7d9070754aa85e00ffa4e5c1a0712e58c73992c943ed555",
          "transactionIndex": "0x0",
          "logIndex": "0x6",
          "removed": false
        },
        {
          "address": "0x5e6f2ec0Da31092f9f66AAaE8502BeAA32895484",
          "topics": [
            "0xddf252ad1be2c89b69c2b068fc378daa952ba7f163c4a11628f55a4df523b3ef",
            "0x0000000000000000000000000000000000000000000000000000000000000000",
            "0x000000000000000000000000cf288dc70983d17c83ea1b80579b211c51043801"
          ],
          "data": "0x0000000000000000000000000000000000000000000000001bc16d674ec80000",
          "blockHash": "0xb333bab3b6c2c0ca4748f1a1aa18f01aac2111f42de86c21fb5a3248a89bde10",
          "blockNumber": "0xe0a9f8",
          "transactionHash": "0x9a8efbdb7f9705eaa7d9070754aa85e00ffa4e5c1a0712e58c73992c943ed555",
          "transactionIndex": "0x0",
          "logIndex": "0x7",
          "removed": false
        },
        {
          "address": "0x5e6f2ec0Da31092f9f66AAaE8502BeAA32895484",
          "topics": [
            "0xdcbc1c05240f31ff3ad067ef1ee35ce4997762752e3a095284754544f4c709d7",
            "0x000000000000000000000000cf288dc70983d17c83ea1b80579b211c51043801",
            "0x000000000000000000000000cf288dc70983d17c83ea1b80579b211c51043801"
          ],
          "data": "0x0000000000000000000000000000000000000000000000001bc16d674ec800000000000000000000000000000000000000000000000000001bc16d674ec80000",
          "blockHash": "0xb333bab3b6c2c0ca4748f1a1aa18f01aac2111f42de86c21fb5a3248a89bde10",
          "blockNumber": "0xe0a9f8",
          "transactionHash": "0x9a8efbdb7f9705eaa7d9070754aa85e00ffa4e5c1a0712e58c73992c943ed555",
          "transactionIndex": "0x0",
          "logIndex": "0x8",
          "removed": false
        }
      ],
      "status": "0x1",
      "logsBloom": "0x00000000000000000000100000000000000020000000000000000000000400020000000000000000000000000000080000000001100000000400040000040000000000400000000020000008000000000000000000040001000010400000000002000000020000200000020000800800000000000804000008000010000000000400000008004000000100000000000080000008000002000000080400000000800000000000000100000000000104000000400000000000000000000000000000000002000000004000080000000000000000000009000000000000010060010000000000000000000000000000001000000800000002024080400000000800"
    }
  ],
  "libraries": [],
  "pending": [],
  "path": "/Users/prajwalghate/Documents/Authlink/Private/alphav2/new/farming-vault-factory-audit/broadcast/DeployWhitelistedVaultV2Mantle.s.sol/5001/run-latest.json",
  "returns": {},
  "timestamp": 1688994962,
  "chain": 5001,
  "multi": false,
  "commit": "6a36b96"
}