{
  "transactions": [
    {
      "hash": "0x9e69345c4c66efadf69934e83fc2c069a15126aaa3960e5efc49e36528084667",
      "transactionType": "CALL",
      "contractName": null,
      "contractAddress": "0xbfAe7bA13712783Bb14877930Cb9b7579C39F43E",
      "function": null,
      "arguments": null,
      "rpc": "https://rpc.testnet.mantle.xyz",
      "transaction": {
        "type": "0x00",
        "from": "0x29782e6eefef1255d1ddc2bd1b4851b890614868",
        "to": "0xbfae7ba13712783bb14877930cb9b7579c39f43e",
        "gas": "0x91cc00",
        "value": "0x0",
        "data": "0x3fcb01d200000000000000000000000000000000000000000000000000000000000000200000000000000000000000008734110e5e1dcf439c7f549db740e546fea82d6600000000000000000000000000000000000000000000021e19e0c9bab2400000000000000000000000000000000000000000000000000000000000000002a30000000000000000000000000000000000000000000000000000000000000002a000000000000000000000000000000000000000000000000000000000000002e0000000000000000000000000000000000000000000000000000000000000b608000000000000000000000000000000000000000000000000000000000000be3c00000000000000000000000030f63e60ab33b05f3baff97e5a35010de6f4ea9d000000000000000000000000000000000000000000000000000000000000032000000000000000000000000000000000000000000000000000000000000003a00000000000000000000000000000000000000000000000000000000000000400000000000000000000000000000000000000000000000000000000000000046000000000000000000000000000000000000000000000000000000000000000000000000000000000000000000000000000000000000000000000000000000000000000000000000000000000271d7594985f8ce8cb41c99761c5f42956ff6e5e00000000000000000000000069e0778b9ba7e795329ec8971b1fe46fa783daf6000000000000000000000000e84a814b835e9f54e528fb96205120e3bda3f7d0000000000000000000000000070f86ba8af424e59e9fea8509896bbd0b8dd0c500000000000000000000000000d4fdc04e86269ce7f4b1acd985d5de0ea1c16d00000000000000000000000046b0d5c30537a800b12af7a22d924f163687996500000000000000000000000000000000000000000000000000000000000004a000000000000000000000000000000000000000000000000000000000000000125269762d4653582d574249542d5661756c74000000000000000000000000000000000000000000000000000000000000000000000000000000000000000000125269762d4653582d574249542d5661756c74000000000000000000000000000000000000000000000000000000000000000000000000000000000000000000030000000000000000000000006dfb16bc471982f19db32dee9b6fb40db4503cbf000000000000000000000000a9b72ccc9968afec98a96239b5aa48d828e8d8270000000000000000000000008734110e5e1dcf439c7f549db740e546fea82d66000000000000000000000000000000000000000000000000000000000000000200000000000000000000000000000000000000000000000000000000000009c400000000000000000000000000000000000000000000000000000000000001f400000000000000000000000000000000000000000000000000000000000000020000000000000000000000006dfb16bc471982f19db32dee9b6fb40db4503cbf0000000000000000000000008734110e5e1dcf439c7f549db740e546fea82d66000000000000000000000000000000000000000000000000000000000000000100000000000000000000000000000000000000000000000000000000000009c4000000000000000000000000000000000000000000000000000000000000000e70656e64696e67467573696f6e58000000000000000000000000000000000000",
        "nonce": "0x84"
      },
      "additionalContracts": [
        {
          "transactionType": "CREATE",
          "address": "0xD7D4E7FBD3e7aa3a3bef0267b2B077f9f12b01EA",
          "initCode": "60e06040523480156200001157600080fd5b5060405162002dfa38038062002dfa8339810160408190526200003491620002c4565b848484848484848460036200004a8382620003f0565b506004620000598282620003f0565b5050506000806200007083620000c060201b60201c565b91509150816200008257601262000084565b805b60ff1660a05250506001600160a01b0316608052620000a333620001a5565b600160065560c091909152600b5550620004f49650505050505050565b60408051600481526024810182526020810180516001600160e01b031663313ce56760e01b17905290516000918291829182916001600160a01b038716916200010991620004bc565b600060405180830381855afa9150503d806000811462000146576040519150601f19603f3d011682016040523d82523d6000602084013e6200014b565b606091505b50915091508180156200016057506020815110155b1562000198576000818060200190518101906200017e9190620004da565b905060ff811162000196576001969095509350505050565b505b5060009485945092505050565b600580546001600160a01b038381166001600160a01b0319831681179093556040519116919082907f8be0079c531659141344cd1fd0a4f28419497f9722a3daafe3b4186f6b6457e090600090a35050565b634e487b7160e01b600052604160045260246000fd5b60005b838110156200022a57818101518382015260200162000210565b50506000910152565b600082601f8301126200024557600080fd5b81516001600160401b0380821115620002625762000262620001f7565b604051601f8301601f19908116603f011681019082821181831017156200028d576200028d620001f7565b81604052838152866020858801011115620002a757600080fd5b620002ba8460208301602089016200020d565b9695505050505050565b600080600080600060a08688031215620002dd57600080fd5b85516001600160a01b0381168114620002f557600080fd5b60208701519095506001600160401b03808211156200031357600080fd5b6200032189838a0162000233565b955060408801519150808211156200033857600080fd5b50620003478882890162000233565b606088015160809098015196999598509695949350505050565b600181811c908216806200037657607f821691505b6020821081036200039757634e487b7160e01b600052602260045260246000fd5b50919050565b601f821115620003eb57600081815260208120601f850160051c81016020861015620003c65750805b601f850160051c820191505b81811015620003e757828155600101620003d2565b5050505b505050565b81516001600160401b038111156200040c576200040c620001f7565b62000424816200041d845462000361565b846200039d565b602080601f8311600181146200045c5760008415620004435750858301515b600019600386901b1c1916600185901b178555620003e7565b600085815260208120601f198616915b828110156200048d578886015182559484019460019091019084016200046c565b5085821015620004ac5787850151600019600388901b60f8161c191681555b5050505050600190811b01905550565b60008251620004d08184602087016200020d565b9190910192915050565b600060208284031215620004ed57600080fd5b5051919050565b60805160a05160c0516128b3620005476000396000818161063f01526115a70152600061037b0152600081816103a70152818161146601528181611b5f01528181611c810152611f0c01526128b36000f3fe608060405234801561001057600080fd5b506004361061027f5760003560e01c80638da5cb5b1161015c578063ba087652116100ce578063dd62ed3e11610087578063dd62ed3e14610614578063def68a9c14610627578063e2d1e75c1461063a578063e668524414610661578063ef8b30f7146105bb578063f2fde38b1461066957600080fd5b8063ba08765214610595578063c63d75b6146105a8578063c6e6f592146105bb578063ce96cb77146105ce578063d4289279146105e1578063d905777e1461060157600080fd5b8063a457c2d711610120578063a457c2d714610523578063a8c62e7614610536578063a9059cbb14610549578063b3d7f6b91461055c578063b460af941461056f578063b85d9c251461058257600080fd5b80638da5cb5b146104c157806394bf804d146104d257806395d89b41146104e55780639674ca6e146104ed5780639b19251a1461050057600080fd5b806339509351116101f55780635b12ff9b116101b95780635b12ff9b146104215780636e553f651461043457806370a0823114610447578063715018a61461047057806376dfabb81461047857806378c8cda7146104ae57600080fd5b806339509351146103df578063402d267d146103f257806340bd2f32146104055780634cdad506146102b457806351b0fc1c1461040e57600080fd5b806318160ddd1161024757806318160ddd146102fd57806319ab453c1461030557806323b872dd1461031a578063296597881461032d578063313ce5671461037457806338d52e0f146103a557600080fd5b806301e1d1141461028457806306fdde031461029f57806307a2d13a146102b4578063095ea7b3146102c75780630a28a477146102ea575b600080fd5b61028c61067c565b6040519081526020015b60405180910390f35b6102a76106ef565b60405161029691906125dc565b61028c6102c236600461260f565b610781565b6102da6102d536600461263d565b610794565b6040519015158152602001610296565b61028c6102f836600461260f565b6107ac565b60025461028c565b610318610313366004612669565b6107b9565b005b6102da610328366004612686565b6108e3565b6040805180820182526000808252602091820152815180830183526008546001600160a01b0316808252600954918301918252835190815290519181019190915201610296565b60405160ff7f0000000000000000000000000000000000000000000000000000000000000000168152602001610296565b7f00000000000000000000000000000000000000000000000000000000000000005b6040516001600160a01b039091168152602001610296565b6102da6103ed36600461263d565b610909565b61028c610400366004612669565b61092b565b61028c600b5481565b61031861041c36600461260f565b610a45565b61031861042f366004612669565b610add565b61028c6104423660046126c7565b610cc0565b61028c610455366004612669565b6001600160a01b031660009081526020819052604090205490565b610318610d33565b60085460095461048f916001600160a01b03169082565b604080516001600160a01b039093168352602083019190915201610296565b6103186104bc366004612669565b610d47565b6005546001600160a01b03166103c7565b61028c6104e03660046126c7565b610e1a565b6102a7610e8d565b6103186104fb366004612669565b610e9c565b6102da61050e366004612669565b600d6020526000908152604090205460ff1681565b6102da61053136600461263d565b610f90565b600a546103c7906001600160a01b031681565b6102da61055736600461263d565b611016565b61028c61056a36600461260f565b611024565b61028c61057d3660046126f7565b611031565b61031861059036600461263d565b6110ad565b61028c6105a33660046126f7565b6111b5565b61028c6105b6366004612669565b611229565b61028c6105c936600461260f565b6113e2565b61028c6105dc366004612669565b6113ef565b61028c6105ef366004612669565b600c6020526000908152604090205481565b61028c61060f366004612669565b611413565b61028c610622366004612739565b611431565b610318610635366004612669565b61145c565b61028c7f000000000000000000000000000000000000000000000000000000000000000081565b61031861154f565b610318610677366004612669565b6116d3565b600a546040805163722713f760e01b815290516000926001600160a01b03169163722713f79160048083019260209291908290030181865afa1580156106c6573d6000803e3d6000fd5b505050506040513d601f19601f820116820180604052508101906106ea9190612767565b905090565b6060600380546106fe90612780565b80601f016020809104026020016040519081016040528092919081815260200182805461072a90612780565b80156107775780601f1061074c57610100808354040283529160200191610777565b820191906000526020600020905b81548152906001019060200180831161075a57829003601f168201915b5050505050905090565b600061078e826000611749565b92915050565b6000336107a281858561177c565b5060019392505050565b600061078e8260016118a0565b600754610100900460ff16158080156107d95750600754600160ff909116105b806107f35750303b1580156107f3575060075460ff166001145b61085b5760405162461bcd60e51b815260206004820152602e60248201527f496e697469616c697a61626c653a20636f6e747261637420697320616c72656160448201526d191e481a5b9a5d1a585b1a5e995960921b60648201526084015b60405180910390fd5b6007805460ff19166001179055801561087e576007805461ff0019166101001790555b600a80546001600160a01b0319166001600160a01b03841617905580156108df576007805461ff0019169055604051600181527f7f26b83ff96e1f2b6a682f133852f6798a09c465da95921460cefb38474024989060200160405180910390a15b5050565b6000336108f18582856118d2565b6108fc85858561194c565b60019150505b9392505050565b6000336107a281858561091c8383611431565b61092691906127d0565b61177c565b600a5460408051635c975abb60e01b815290516000926001600160a01b031691635c975abb9160048083019260209291908290030181865afa158015610975573d6000803e3d6000fd5b505050506040513d601f19601f8201168201806040525081019061099991906127e3565b156109a657506000919050565b60006109b061067c565b600b546109bd9190612805565b6001600160a01b0384166000908152600c6020526040812054919250816109e657600019610a2b565b610a0861056a866001600160a01b031660009081526020819052604090205490565b6001600160a01b0386166000908152600c6020526040902054610a2b9190612805565b9050808310610a3a5780610a3c565b825b95945050505050565b610a4d611af0565b80600b5403610a8d5760405162461bcd60e51b815260206004820152600c60248201526b053616d652054564c206361760a41b6044820152606401610852565b600554600b5460408051918252602082018490526001600160a01b03909216917f62be5807a2922ba46a7c1a6af65af203ab5f9840c6d0b9f469a7689fdfb58eec910160405180910390a2600b55565b6005546001600160a01b0316331480610b695750600a546040805163481c6a7560e01b8152905133926001600160a01b03169163481c6a759160048083019260209291908290030181865afa158015610b3a573d6000803e3d6000fd5b505050506040513d601f19601f82011682018060405250810190610b5e9190612818565b6001600160a01b0316145b610bab5760405162461bcd60e51b815260206004820152601360248201527221286f776e6572207c7c206d616e616765722960681b6044820152606401610852565b806001600160a01b031663fbfa77cf6040518163ffffffff1660e01b8152600401602060405180830381865afa158015610be9573d6000803e3d6000fd5b505050506040513d601f19601f82011682018060405250810190610c0d9190612818565b6001600160a01b0316306001600160a01b031614610c595760405162461bcd60e51b8152602060048201526009602482015268085c1c9bdc1bdcd85b60ba1b6044820152606401610852565b6040805180820182526001600160a01b038316808252426020928301819052600880546001600160a01b0319168317905560095591519182527f1aae2ec5647db56da2d513de40528ba3565c6057525637050660c4323bbac7df910160405180910390a150565b6000610ccb8261092b565b831115610d1a5760405162461bcd60e51b815260206004820152601e60248201527f455243343632363a206465706f736974206d6f7265207468616e206d617800006044820152606401610852565b6000610d25846113e2565b905061090233848684611b4a565b610d3b611af0565b610d456000611bf5565b565b610d4f611af0565b6001600160a01b0381166000908152600d602052604090205460ff16610dc95760405162461bcd60e51b815260206004820152602960248201527f57686974656c69737446696c7465723a2052656d6f76696e67204e6f6e2057686044820152681a5d195b1a5cdd195960ba1b6064820152608401610852565b6001600160a01b038181166000818152600d6020526040808220805460ff1916905560055490519316927f403c5e5cf4d35483fc4491cc180e7c00fd44449e95dc52cf2f470d8c02699f659190a350565b6000610e2582611229565b831115610e745760405162461bcd60e51b815260206004820152601b60248201527f455243343632363a206d696e74206d6f7265207468616e206d617800000000006044820152606401610852565b6000610e7f84611024565b905061090233848387611b4a565b6060600480546106fe90612780565b610ea4611af0565b6001600160a01b0381166000908152600d602052604090205460ff1615610f195760405162461bcd60e51b8152602060048201526024808201527f57686974656c69737446696c7465723a20416c72656164792057686974656c696044820152631cdd195960e21b6064820152608401610852565b6001600160a01b0381166000908152600d60205260409020805460ff19166001179055610f4e6005546001600160a01b031690565b6001600160a01b0316816001600160a01b03167f74dd9d466f35e6d6ff9fa8b6ba203f926982ab037ba5d8e8457a0a9516e27e1460405160405180910390a350565b60003381610f9e8286611431565b905083811015610ffe5760405162461bcd60e51b815260206004820152602560248201527f45524332303a2064656372656173656420616c6c6f77616e63652062656c6f77604482015264207a65726f60d81b6064820152608401610852565b61100b828686840361177c565b506001949350505050565b6000336107a281858561194c565b600061078e826001611749565b600061103c826113ef565b84111561108b5760405162461bcd60e51b815260206004820152601f60248201527f455243343632363a207769746864726177206d6f7265207468616e206d6178006044820152606401610852565b6000611096856107ac565b90506110a53385858885611c47565b949350505050565b6110b5611af0565b6001600160a01b0382166000908152600c602052604090205481900361110d5760405162461bcd60e51b815260206004820152600d60248201526c053616d6520557365722063617609c1b6044820152606401610852565b816001600160a01b03166111296005546001600160a01b031690565b6001600160a01b03167fc1fa2a9952be0d43691fcfb2f79585c61f18978d7be1af78c4882302c3f8d296600c6000866001600160a01b03166001600160a01b031681526020019081526020016000205484604051611191929190918252602082015260400190565b60405180910390a36001600160a01b039091166000908152600c6020526040902055565b60006111c082611413565b84111561120f5760405162461bcd60e51b815260206004820152601d60248201527f455243343632363a2072656465656d206d6f7265207468616e206d61780000006044820152606401610852565b600061121a85610781565b90506110a53385858489611c47565b600a5460408051635c975abb60e01b815290516000926001600160a01b031691635c975abb9160048083019260209291908290030181865afa158015611273573d6000803e3d6000fd5b505050506040513d601f19601f8201168201806040525081019061129791906127e3565b156112a457506000919050565b6000306001600160a01b031663c6e6f592306001600160a01b03166301e1d1146040518163ffffffff1660e01b8152600401602060405180830381865afa1580156112f3573d6000803e3d6000fd5b505050506040513d601f19601f820116820180604052508101906113179190612767565b600b546113249190612805565b6040518263ffffffff1660e01b815260040161134291815260200190565b602060405180830381865afa15801561135f573d6000803e3d6000fd5b505050506040513d601f19601f820116820180604052508101906113839190612767565b6001600160a01b0384166000908152600c6020526040812054919250816113ac57600019610a2b565b6001600160a01b03851660009081526020818152604080832054600c909252909120546113d8906113e2565b610a2b9190612805565b600061078e8260006118a0565b6001600160a01b03811660009081526020819052604081205461078e906000611749565b6001600160a01b03811660009081526020819052604081205461078e565b6001600160a01b03918216600090815260016020908152604080832093909416825291909152205490565b611464611af0565b7f00000000000000000000000000000000000000000000000000000000000000006001600160a01b0316816001600160a01b0316036114ce5760405162461bcd60e51b815260206004820152600660248201526510ba37b5b2b760d11b6044820152606401610852565b6040516370a0823160e01b81523060048201526000906001600160a01b038316906370a0823190602401602060405180830381865afa158015611515573d6000803e3d6000fd5b505050506040513d601f19601f820116820180604052508101906115399190612767565b90506108df6001600160a01b0383163383611e94565b611557611af0565b6008546001600160a01b031661159c5760405162461bcd60e51b815260206004820152600a6024820152692163616e64696461746560b01b6044820152606401610852565b60095442906115cb907f0000000000000000000000000000000000000000000000000000000000000000611efc565b106116015760405162461bcd60e51b81526020600482015260066024820152652164656c617960d01b6044820152606401610852565b6008546040516001600160a01b0390911681527f7f37d440e85aba7fbf641c4bda5ca4ef669a80bffaacde2aa8d9feb1b048c82c9060200160405180910390a1600a8054600880546001600160a01b03198084166001600160a01b038381169190911790955516905564012a05f2006009556040805163fb61778760e01b815290519290911691829163fb61778791600480830192600092919082900301818387803b1580156116b057600080fd5b505af11580156116c4573d6000803e3d6000fd5b505050506116d0611f08565b50565b6116db611af0565b6001600160a01b0381166117405760405162461bcd60e51b815260206004820152602660248201527f4f776e61626c653a206e6577206f776e657220697320746865207a65726f206160448201526564647265737360d01b6064820152608401610852565b6116d081611bf5565b60008061175560025490565b905080156117765761177161176861067c565b8590838661201d565b6110a5565b836110a5565b6001600160a01b0383166117de5760405162461bcd60e51b8152602060048201526024808201527f45524332303a20617070726f76652066726f6d20746865207a65726f206164646044820152637265737360e01b6064820152608401610852565b6001600160a01b03821661183f5760405162461bcd60e51b815260206004820152602260248201527f45524332303a20617070726f766520746f20746865207a65726f206164647265604482015261737360f01b6064820152608401610852565b6001600160a01b0383811660008181526001602090815260408083209487168084529482529182902085905590518481527f8c5be1e5ebec7d5bd14f71427d1e84f3dd0314c0f7b2291e5b200ac8c7c3b925910160405180910390a3505050565b6000806118ac60025490565b90508315806118b9575080155b61177657611771816118c961067c565b8691908661201d565b60006118de8484611431565b9050600019811461194657818110156119395760405162461bcd60e51b815260206004820152601d60248201527f45524332303a20696e73756666696369656e7420616c6c6f77616e63650000006044820152606401610852565b611946848484840361177c565b50505050565b6001600160a01b0383166119b05760405162461bcd60e51b815260206004820152602560248201527f45524332303a207472616e736665722066726f6d20746865207a65726f206164604482015264647265737360d81b6064820152608401610852565b6001600160a01b038216611a125760405162461bcd60e51b815260206004820152602360248201527f45524332303a207472616e7366657220746f20746865207a65726f206164647260448201526265737360e81b6064820152608401610852565b6001600160a01b03831660009081526020819052604090205481811015611a8a5760405162461bcd60e51b815260206004820152602660248201527f45524332303a207472616e7366657220616d6f756e7420657863656564732062604482015265616c616e636560d01b6064820152608401610852565b6001600160a01b03848116600081815260208181526040808320878703905593871680835291849020805487019055925185815290927fddf252ad1be2c89b69c2b068fc378daa952ba7f163c4a11628f55a4df523b3ef910160405180910390a3611946565b6005546001600160a01b03163314610d455760405162461bcd60e51b815260206004820181905260248201527f4f776e61626c653a2063616c6c6572206973206e6f7420746865206f776e65726044820152606401610852565b611b52612078565b611b876001600160a01b037f000000000000000000000000000000000000000000000000000000000000000016853085612080565b611b8f611f08565b611b9983826120b8565b826001600160a01b0316846001600160a01b03167fdcbc1c05240f31ff3ad067ef1ee35ce4997762752e3a095284754544f4c709d78484604051611be7929190918252602082015260400190565b60405180910390a350505050565b600580546001600160a01b038381166001600160a01b0319831681179093556040519116919082907f8be0079c531659141344cd1fd0a4f28419497f9722a3daafe3b4186f6b6457e090600090a35050565b611c4f612078565b826001600160a01b0316856001600160a01b031614611c7357611c738386836118d2565b611c7d8382612177565b60007f00000000000000000000000000000000000000000000000000000000000000006040516370a0823160e01b81523060048201529091506000906001600160a01b038316906370a0823190602401602060405180830381865afa158015611cea573d6000803e3d6000fd5b505050506040513d601f19601f82011682018060405250810190611d0e9190612767565b905083811015611e17576000611d2485836122a9565b600a54604051632e1a7d4d60e01b8152600481018390529192506001600160a01b031690632e1a7d4d90602401600060405180830381600087803b158015611d6b57600080fd5b505af1158015611d7f573d6000803e3d6000fd5b50506040516370a0823160e01b8152306004820152600092506001600160a01b03861691506370a0823190602401602060405180830381865afa158015611dca573d6000803e3d6000fd5b505050506040513d601f19601f82011682018060405250810190611dee9190612767565b90506000611dfc82856122a9565b905082811015611e1357611e108482611efc565b96505b5050505b611e2b6001600160a01b0383168786611e94565b846001600160a01b0316866001600160a01b0316886001600160a01b03167ffbde797d201c681b91056529119e0b02407c7bb96a4a2c75c01fc9667232c8db8787604051611e83929190918252602082015260400190565b60405180910390a450505050505050565b6040516001600160a01b038316602482015260448101829052611ef790849063a9059cbb60e01b906064015b60408051601f198184030181529190526020810180516001600160e01b03166001600160e01b0319909316929092179091526122b5565b505050565b600061090282846127d0565b60007f0000000000000000000000000000000000000000000000000000000000000000600a546040516370a0823160e01b8152306004820152919250611fb2916001600160a01b03918216918416906370a0823190602401602060405180830381865afa158015611f7d573d6000803e3d6000fd5b505050506040513d601f19601f82011682018060405250810190611fa19190612767565b6001600160a01b0384169190611e94565b600a60009054906101000a90046001600160a01b03166001600160a01b031663d0e30db06040518163ffffffff1660e01b8152600401600060405180830381600087803b15801561200257600080fd5b505af1158015612016573d6000803e3d6000fd5b5050505050565b60008061202b868686612387565b9050600183600281111561204157612041612835565b14801561205e5750600084806120595761205961284b565b868809115b15610a3c5761206e6001826127d0565b9695505050505050565b610d45612436565b6040516001600160a01b03808516602483015283166044820152606481018290526119469085906323b872dd60e01b90608401611ec0565b6001600160a01b03821661210e5760405162461bcd60e51b815260206004820152601f60248201527f45524332303a206d696e7420746f20746865207a65726f2061646472657373006044820152606401610852565b806002600082825461212091906127d0565b90915550506001600160a01b038216600081815260208181526040808320805486019055518481527fddf252ad1be2c89b69c2b068fc378daa952ba7f163c4a11628f55a4df523b3ef910160405180910390a35050565b6001600160a01b0382166121d75760405162461bcd60e51b815260206004820152602160248201527f45524332303a206275726e2066726f6d20746865207a65726f206164647265736044820152607360f81b6064820152608401610852565b6001600160a01b0382166000908152602081905260409020548181101561224b5760405162461bcd60e51b815260206004820152602260248201527f45524332303a206275726e20616d6f756e7420657863656564732062616c616e604482015261636560f01b6064820152608401610852565b6001600160a01b0383166000818152602081815260408083208686039055600280548790039055518581529192917fddf252ad1be2c89b69c2b068fc378daa952ba7f163c4a11628f55a4df523b3ef910160405180910390a3505050565b60006109028284612805565b600061230a826040518060400160405280602081526020017f5361666545524332303a206c6f772d6c6576656c2063616c6c206661696c6564815250856001600160a01b03166124959092919063ffffffff16565b805190915015611ef7578080602001905181019061232891906127e3565b611ef75760405162461bcd60e51b815260206004820152602a60248201527f5361666545524332303a204552433230206f7065726174696f6e20646964206e6044820152691bdd081cdd58d8d9595960b21b6064820152608401610852565b60008080600019858709858702925082811083820303915050806000036123c1578382816123b7576123b761284b565b0492505050610902565b8084116123cd57600080fd5b60008486880960026001871981018816978890046003810283188082028403028082028403028082028403028082028403028082028403029081029092039091026000889003889004909101858311909403939093029303949094049190911702949350505050565b336000908152600d602052604090205460ff16610d455760405162461bcd60e51b815260206004820152601d60248201527f57686974656c69737446696c7465723a202177686974656c69737465640000006044820152606401610852565b60606110a5848460008585600080866001600160a01b031685876040516124bc9190612861565b60006040518083038185875af1925050503d80600081146124f9576040519150601f19603f3d011682016040523d82523d6000602084013e6124fe565b606091505b509150915061250f8783838761251a565b979650505050505050565b60608315612589578251600003612582576001600160a01b0385163b6125825760405162461bcd60e51b815260206004820152601d60248201527f416464726573733a2063616c6c20746f206e6f6e2d636f6e74726163740000006044820152606401610852565b50816110a5565b6110a5838381511561259e5781518083602001fd5b8060405162461bcd60e51b815260040161085291906125dc565b60005b838110156125d35781810151838201526020016125bb565b50506000910152565b60208152600082518060208401526125fb8160408501602087016125b8565b601f01601f19169190910160400192915050565b60006020828403121561262157600080fd5b5035919050565b6001600160a01b03811681146116d057600080fd5b6000806040838503121561265057600080fd5b823561265b81612628565b946020939093013593505050565b60006020828403121561267b57600080fd5b813561090281612628565b60008060006060848603121561269b57600080fd5b83356126a681612628565b925060208401356126b681612628565b929592945050506040919091013590565b600080604083850312156126da57600080fd5b8235915060208301356126ec81612628565b809150509250929050565b60008060006060848603121561270c57600080fd5b83359250602084013561271e81612628565b9150604084013561272e81612628565b809150509250925092565b6000806040838503121561274c57600080fd5b823561275781612628565b915060208301356126ec81612628565b60006020828403121561277957600080fd5b5051919050565b600181811c9082168061279457607f821691505b6020821081036127b457634e487b7160e01b600052602260045260246000fd5b50919050565b634e487b7160e01b600052601160045260246000fd5b8082018082111561078e5761078e6127ba565b6000602082840312156127f557600080fd5b8151801515811461090257600080fd5b8181038181111561078e5761078e6127ba565b60006020828403121561282a57600080fd5b815161090281612628565b634e487b7160e01b600052602160045260246000fd5b634e487b7160e01b600052601260045260246000fd5b600082516128738184602087016125b8565b919091019291505056fea264697066735822122032e5d4521020a8c5270237026b1f17d90afb2fa61c4c1a0bf51dda19b6bfeb3964736f6c634300081300330000000000000000000000008734110e5e1dcf439c7f549db740e546fea82d6600000000000000000000000000000000000000000000000000000000000000a000000000000000000000000000000000000000000000000000000000000000e0000000000000000000000000000000000000000000000000000000000002a30000000000000000000000000000000000000000000000021e19e0c9bab240000000000000000000000000000000000000000000000000000000000000000000125269762d4653582d574249542d5661756c74000000000000000000000000000000000000000000000000000000000000000000000000000000000000000000125269762d4653582d574249542d5661756c740000000000000000000000000000"
        },
        {
          "transactionType": "CREATE",
          "address": "0x7bC5961CFA47c00bF7F3bed25C3270B1Cb309060",
          "initCode": "60806040523480156200001157600080fd5b506200001d3362000035565b6000805460ff60a01b19169055600160055562000085565b600080546001600160a01b038381166001600160a01b0319831681178455604051919092169283917f8be0079c531659141344cd1fd0a4f28419497f9722a3daafe3b4186f6b6457e09190a35050565b6146db80620000956000396000f3fe608060405234801561001057600080fd5b506004361061038e5760003560e01c80638da5cb5b116101de578063d0e30db01161010f578063ef21c994116100ad578063f8cea66c1161007c578063f8cea66c14610770578063fb1b5c7b14610778578063fb61778714610780578063fbfa77cf1461078857600080fd5b8063ef21c99414610739578063f1a392da14610741578063f2fde38b1461074a578063f887ea401461075d57600080fd5b8063e7a7250a116100e9578063e7a7250a146106f8578063e93d5fc114610700578063eb582d1314610713578063ebf678f01461072657600080fd5b8063d0e30db0146106ca578063d0ebdbe7146106d2578063e00bb0b5146106e557600080fd5b8063b3a9c91c1161017c578063ba4eb82611610156578063ba4eb82614610671578063c3926a2914610684578063c3e3fd81146106a4578063c597499d146106b757600080fd5b8063b3a9c91c14610643578063b5164afd1461064b578063b97db3cf1461065e57600080fd5b8063abba9686116101b8578063abba96861461060c578063adf085a214610614578063afbd13781461061c578063b018d38e1461063057600080fd5b80638da5cb5b146105ea578063a5c42ef1146105fb578063aac41ef91461060457600080fd5b80634700d305116102c35780635ee167c011610261578063722713f711610230578063722713f7146105a65780638456cb59146105bc578063877562b6146105c45780638b4f9c50146105d757600080fd5b80635ee167c01461056557806368b80723146105785780636d9adeb01461058b578063715018a61461059e57600080fd5b80635774c0f61161029d5780635774c0f61461051f578063595ce3c81461053257806359c4f9051461053a5780635c975abb1461054757600080fd5b80634700d305146104dd578063481c6a75146104e557806355b812a8146104f857600080fd5b8063277e5cfd1161033057806334bf65181161030a57806334bf6518146104a75780633a4b66f1146104ba5780633f4ba83a146104cd5780634641257d146104d557600080fd5b8063277e5cfd1461046c5780632e1a7d4d14610481578063342226dd1461049457600080fd5b8063150b7a021161036c578063150b7a02146103df5780631fc8bc5d1461040b578063228cb733146104365780632534434d1461044f57600080fd5b8063089fe6aa146103935780630ca1cc5b146103c25780630e5bacc5146103cc575b600080fd5b6013546103a990600160301b900462ffffff1681565b60405162ffffff90911681526020015b60405180910390f35b6103ca61079b565b005b6103ca6103da366004613b21565b610972565b6103f26103ed366004613d1f565b611038565b6040516001600160e01b031990911681526020016103b9565b600a5461041e906001600160a01b031681565b6040516001600160a01b0390911681526020016103b9565b60065461041e906201000090046001600160a01b031681565b610457611049565b604080519283526020830191909152016103b9565b6104746112dc565b6040516103b99190613def565b6103ca61048f366004613e02565b61136a565b600b5461041e906001600160a01b031681565b6103ca6104b5366004613e1b565b611412565b60075461041e906001600160a01b031681565b6103ca61152f565b6103ca611551565b6103ca611941565b60035461041e906001600160a01b031681565b60135461050c906301000000900460020b81565b60405160029190910b81526020016103b9565b61041e61052d366004613e02565b611987565b6103ca6119b1565b60135461050c9060020b81565b600054600160a01b900460ff165b60405190151581526020016103b9565b60085461041e906001600160a01b031681565b6103ca610586366004613e54565b611bc2565b60105461041e906001600160a01b031681565b6103ca611c3e565b6105ae611c50565b6040519081526020016103b9565b6103ca611f9e565b60095461041e906001600160a01b031681565b600e5461041e906001600160a01b031681565b6000546001600160a01b031661041e565b6105ae60125481565b6105ae611fb6565b6103ca6120a9565b6103ca612317565b60095461055590600160a01b900460ff1681565b6103ca61063e366004613e54565b6123a2565b6103ca61241e565b60185461041e906001600160a01b031681565b6103a961066c366004613e02565b612461565b61041e61067f366004613e02565b61249a565b61068c6124aa565b6040516001600160801b0390911681526020016103b9565b600d5461041e906001600160a01b031681565b600f5461041e906001600160a01b031681565b6103ca61252b565b6103ca6106e0366004613eb8565b612543565b600c5461041e906001600160a01b031681565b6105ae61259f565b6103a961070e366004613e02565b6126e8565b60045461041e906001600160a01b031681565b601a5461041e906001600160a01b031681565b6103ca6126f8565b6105ae60115481565b6103ca610758366004613eb8565b61273d565b60025461041e906001600160a01b031681565b6103ca6127b3565b61041e6127d5565b6103ca61280a565b60015461041e906001600160a01b031681565b6008546040516370a0823160e01b81523060048201526000916001600160a01b0316906370a0823190602401602060405180830381865afa1580156107e4573d6000803e3d6000fd5b505050506040513d601f19601f820116820180604052508101906108089190613ed5565b6009546040516370a0823160e01b81523060048201529192506000916001600160a01b03909116906370a0823190602401602060405180830381865afa158015610856573d6000803e3d6000fd5b505050506040513d601f19601f8201168201806040525081019061087a9190613ed5565b6004805460408051610160810182526008546001600160a01b0390811682526009548116602083015260135462ffffff600160301b82041683850152600281810b60608501526301000000909104900b608083015260a0820188905260c08201869052600060e08301819052610100830181905230610120840152426101408401529251634418b22b60e11b81529596509194919092169263883164569261092492909101613eee565b6080604051808303816000875af1158015610943573d6000803e3d6000fd5b505050506040513d601f19601f820116820180604052508101906109679190613fc9565b505050601255505050565b600654610100900460ff16158080156109925750600654600160ff909116105b806109ac5750303b1580156109ac575060065460ff166001145b610a145760405162461bcd60e51b815260206004820152602e60248201527f496e697469616c697a61626c653a20636f6e747261637420697320616c72656160448201526d191e481a5b9a5d1a585b1a5e995960921b60648201526084015b60405180910390fd5b6006805460ff191660011790558015610a37576006805461ff0019166101001790555b60a0830151600b80546001600160a01b03199081166001600160a01b039384161790915560c0850151600c8054831691841691909117905560e0850151600d80548316918416919091179055610100850151600e80548316918416919091179055610120850151600f8054831691841691909117905561014085015160108054831691841691909117905560408501516007805483169184169190911790556060850151600a805490921690831617905560808401516006805462010000600160b01b03191662010000929093169190910291909117905561016083015151610b229060019061401b565b8361018001515114610b465760405162461bcd60e51b8152600401610a0b9061402e565b6001836101a0015151610b59919061401b565b836101c001515114610b7d5760405162461bcd60e51b8152600401610a0b9061402e565b6101608301518051610b9791601491602090910190613759565b506101808301518051610bb2916015916020909101906137be565b506101a08301518051610bcd91601691602090910190613759565b506101c08301518051610be8916017916020909101906137be565b5082516020840151600b54600754604051638745d9e760e01b8152736c7ca3d5d0ce8c7ecc3a6d52e9d266e25fa6f42494638745d9e794610c409460009485946001600160a01b03928316929091169060040161404a565b60006040518083038186803b158015610c5857600080fd5b505af4158015610c6c573d6000803e3d6000fd5b505084516013805460208089015162ffffff90811663010000000265ffffffffffff199093169416939093171790556007546040805163ddca3f4360e01b815290516001600160a01b03909216945063ddca3f43935060048082019392918290030181865afa158015610ce3573d6000803e3d6000fd5b505050506040513d601f19601f82011682018060405250810190610d079190614086565b601360066101000a81548162ffffff021916908362ffffff160217905550600760009054906101000a90046001600160a01b03166001600160a01b0316630dfe16816040518163ffffffff1660e01b8152600401602060405180830381865afa158015610d78573d6000803e3d6000fd5b505050506040513d601f19601f82011682018060405250810190610d9c91906140a3565b600880546001600160a01b0319166001600160a01b039283161790556007546040805163d21220a760e01b81529051919092169163d21220a79160048083019260209291908290030181865afa158015610dfa573d6000803e3d6000fd5b505050506040513d601f19601f82011682018060405250810190610e1e91906140a3565b600980546001600160a01b039283166001600160a01b0319909116179055825160408051808201825260078152666173736574282960c81b60209182015281516004815260248101835290810180516001600160e01b03166338d52e0f60e01b179052905160009384931691610e93916140c0565b6000604051808303816000865af19150503d8060008114610ed0576040519150601f19603f3d011682016040523d82523d6000602084013e610ed5565b606091505b509150915081610f0c5760405162461bcd60e51b815260206004820152600260248201526120a360f11b6044820152606401610a0b565b60085481516001600160a01b0390911690610f3090830160209081019084016140a3565b6009805460ff60a01b19166001600160a01b0392831693909314600160a01b02929092179091556101e0860151601880546001600160a01b0319908116928416929092179055610200870151601a805483169184169190911790558551600180548316918416919091179055602086015160028054831691841691909117905560038054339083161790556040860151600480549092169216919091179055610220850151601990610fe2908261415c565b50610feb612812565b50508015611033576006805461ff0019169055604051600181527f7f26b83ff96e1f2b6a682f133852f6798a09c465da95921460cefb38474024989060200160405180910390a15b505050565b630a85bd0160e11b5b949350505050565b60008061105461294f565b600061105e6124aa565b90506000816001600160801b0316116110b25760405162461bcd60e51b81526020600482015260166024820152754e6f204c697175696469747920617661696c61626c6560501b6044820152606401610a0b565b600a54601254604051627b8a6760e11b815260048101919091523060248201526001600160a01b039091169062f714ce906044016020604051808303816000875af1158015611105573d6000803e3d6000fd5b505050506040513d601f19601f820116820180604052508101906111299190613ed5565b50600480546040805160a08101825260125481526001600160801b0385166020820152600081830181905260608201524260808201529051630624e65f60e11b81526001600160a01b0390921692630c49ccbe9261118892910161421c565b60408051808303816000875af11580156111a6573d6000803e3d6000fd5b505050506040513d601f19601f820116820180604052508101906111ca919061425f565b5050600480546040805160808101825260125481523060208201526001600160801b038183018190526060820152905163fc6f786560e01b81526001600160a01b039092169263fc6f786592611221929101614283565b60408051808303816000875af115801561123f573d6000803e3d6000fd5b505050506040513d601f19601f82011682018060405250810190611263919061425f565b60048054601254604051630852cd8d60e31b8152928301529295509093506001600160a01b03909116906342966c6890602401600060405180830381600087803b1580156112b057600080fd5b505af11580156112c4573d6000803e3d6000fd5b50506000601255506112d891506129a89050565b9091565b601980546112e9906140dc565b80601f0160208091040260200160405190810160405280929190818152602001828054611315906140dc565b80156113625780601f1061133757610100808354040283529160200191611362565b820191906000526020600020905b81548152906001019060200180831161134557829003601f168201915b505050505081565b61137261294f565b61137a61241e565b600080611386836129af565b9150915060006113968383612c56565b6001549091506113c2906001600160a01b0316826113b26127d5565b6001600160a01b03169190612d17565b7f56ca301a9219608c91e7bcee90e083c19671d2cdcc96752c7af291cee5f9c8c86113eb611c50565b60408051918252602082018790520160405180910390a150505061140f6001600555565b50565b61141a612d7a565b601354600b54600754604051638745d9e760e01b8152736c7ca3d5d0ce8c7ecc3a6d52e9d266e25fa6f42493638745d9e79361147c93600283810b946301000000909404900b92899289926001600160a01b039182169291169060040161404a565b60006040518083038186803b15801561149457600080fd5b505af41580156114a8573d6000803e3d6000fd5b505050506114b4611049565b50506013805462ffffff83811663010000000265ffffffffffff19909216908516171790556114e1612dd4565b60135460408051600283810b8252630100000090930490920b60208301527fd00a8d17a19b7ceda57ab41f25a4626f485d085482b0525baaaa7caac12b492e91015b60405180910390a15050565b6115376126f8565b61153f612de4565b611547612812565b61154f61252b565b565b611559612e39565b600a54601254604051630c7e663b60e11b815260048101919091523060248201526001600160a01b03909116906318fccc76906044016020604051808303816000875af11580156115ae573d6000803e3d6000fd5b505050506040513d601f19601f820116820180604052508101906115d29190613ed5565b506006546040516370a0823160e01b81523060048201526000916201000090046001600160a01b0316906370a0823190602401602060405180830381865afa158015611622573d6000803e3d6000fd5b505050506040513d601f19601f820116820180604052508101906116469190613ed5565b9050801561185a576006546008546001600160a01b0390811662010000909204161480159061167e5750600954600160a01b900460ff165b156117645761176260148054806020026020016040519081016040528092919081815260200182805480156116dc57602002820191906000526020600020905b81546001600160a01b031681526001909101906020018083116116be575b5050505050601580548060200260200160405190810160405280929190818152602001828054801561175757602002820191906000526020600020906000905b82829054906101000a900462ffffff1662ffffff168152602001906003019060208260020104928301926001038202915080841161171c5790505b505050505083612e86565b505b6006546009546001600160a01b039081166201000090920416148015906117955750600954600160a01b900460ff16155b156118555761185360168054806020026020016040519081016040528092919081815260200182805480156117f357602002820191906000526020600020905b81546001600160a01b031681526001909101906020018083116117d5575b50505050506017805480602002602001604051908101604052809291908181526020018280548015611757576000918252602091829020805462ffffff16845290820283019290916003910180841161171c579050505050505083612e86565b505b426011555b600a546040805160808101825260125481523060208201526001600160801b038183018190526060820152905163fc6f786560e01b81526001600160a01b039092169163fc6f7865916118af91600401614283565b60408051808303816000875af11580156118cd573d6000803e3d6000fd5b505050506040513d601f19601f820116820180604052508101906118f1919061425f565b50506118fb612dd4565b337f9bc239f1724cacfb88cb1d66a2dc437467699b68a8c90d7b63110cf4b6f9241082611926611c50565b6040805192835260208301919091520160405180910390a250565b6119496126f8565b611951611f9e565b60008061195c611049565b6001549193509150611983906001600160a01b031661197b8484612c56565b6113b26127d5565b5050565b6014818154811061199757600080fd5b6000918252602090912001546001600160a01b0316905081565b6008546040516370a0823160e01b81523060048201526000916001600160a01b0316906370a0823190602401602060405180830381865afa1580156119fa573d6000803e3d6000fd5b505050506040513d601f19601f82011682018060405250810190611a1e9190613ed5565b6009546040516370a0823160e01b81523060048201529192506000916001600160a01b03909116906370a0823190602401602060405180830381865afa158015611a6c573d6000803e3d6000fd5b505050506040513d601f19601f82011682018060405250810190611a909190613ed5565b600480546040805160c081018252601254815260208101878152818301868152600060608401818152608085019182524260a08601908152955163219f5d1760e01b81529451978501979097529151602484015251604483015293516064820152925160848401525160a48301529192506001600160a01b039091169063219f5d179060c4016060604051808303816000875af1158015611b35573d6000803e3d6000fd5b505050506040513d601f19601f82011682018060405250810190611b5991906142c6565b5050600a54601254604051636768488960e11b815260048101919091526001600160a01b03909116915063ced0911290602401600060405180830381600087803b158015611ba657600080fd5b505af1158015611bba573d6000803e3d6000fd5b505050505050565b611bca6126f8565b60018251611bd8919061401b565b815114611bf75760405162461bcd60e51b8152600401610a0b9061402e565b611c02601483612ffa565b611c0d601582613066565b7f92ec361f55eabacf1c0ffe0509739dc2462b2e206c59631b15d558124e1dda1882826040516115239291906142fb565b611c46612d7a565b61154f60006130e9565b600080611c5b6124aa565b6040805160e081018252601354600281810b83526301000000909104900b60208201526001600160801b03831681830152600e546001600160a01b039081166060830152600c5481166080830152600b54811660a08301526007541660c082015290516338c4b34760e21b81529192506000918291736c7ca3d5d0ce8c7ecc3a6d52e9d266e25fa6f4249163e312cd1c91611cf8916004016143e9565b6040805180830381865af4158015611d14573d6000803e3d6000fd5b505050506040513d601f19601f82011682018060405250810190611d38919061425f565b6008546040516370a0823160e01b81523060048201529294509092506000916001600160a01b03909116906370a0823190602401602060405180830381865afa158015611d89573d6000803e3d6000fd5b505050506040513d601f19601f82011682018060405250810190611dad9190613ed5565b6009546040516370a0823160e01b81523060048201529192506000916001600160a01b03909116906370a0823190602401602060405180830381865afa158015611dfb573d6000803e3d6000fd5b505050506040513d601f19601f82011682018060405250810190611e1f9190613ed5565b600954909150600160a01b900460ff1615611ef257736c7ca3d5d0ce8c7ecc3a6d52e9d266e25fa6f424632ca89132611e5883866143f7565b60075460105460405160e085901b6001600160e01b031916815260048101939093526001600160a01b039182166024840152166044820152606401602060405180830381865af4158015611eb0573d6000803e3d6000fd5b505050506040513d601f19601f82011682018060405250810190611ed49190613ed5565b611ede83866143f7565b611ee891906143f7565b9550505050505090565b8083736c7ca3d5d0ce8c7ecc3a6d52e9d266e25fa6f424636520a11d611f1886896143f7565b60075460105460405160e085901b6001600160e01b031916815260048101939093526001600160a01b039182166024840152166044820152606401602060405180830381865af4158015611f70573d6000803e3d6000fd5b505050506040513d601f19601f82011682018060405250810190611f949190613ed5565b611ede91906143f7565b611fa66126f8565b611fae613139565b61154f61317c565b6040805160a081018252600954600160a01b900460ff1615158152601254602082019081526007546001600160a01b0390811683850190815260048054831660608601908152601054841660808701908152965163d001211f60e01b8152955115159186019190915292516024850152518116604484015290518116606483015291519091166084820152600090736c7ca3d5d0ce8c7ecc3a6d52e9d266e25fa6f4249063d001211f9060a401602060405180830381865af4158015612080573d6000803e3d6000fd5b505050506040513d601f19601f820116820180604052508101906120a49190613ed5565b905090565b6008546040516370a0823160e01b81523060048201526000916001600160a01b0316906370a0823190602401602060405180830381865afa1580156120f2573d6000803e3d6000fd5b505050506040513d601f19601f820116820180604052508101906121169190613ed5565b6009546040516370a0823160e01b81523060048201529192506000916001600160a01b03909116906370a0823190602401602060405180830381865afa158015612164573d6000803e3d6000fd5b505050506040513d601f19601f820116820180604052508101906121889190613ed5565b6040805160e081018252601354600281810b835263010000008204900b6020808401919091526b204fce5e3e2502611000000083850152600e546001600160a01b03908116606080860191909152600c548216608080870191909152600b54831660a0870152600754831660c087015286519081018752600160301b90940462ffffff1684529183018890528285018690526010541690820152915163bf37f00f60e01b81529293506000928392736c7ca3d5d0ce8c7ecc3a6d52e9d266e25fa6f4249263bf37f00f9261225f929060040161440a565b6040805180830381865af415801561227b573d6000803e3d6000fd5b505050506040513d601f19601f8201168201806040525081019061229f919061425f565b91509150816000146122db576008546009546013546122d9926001600160a01b039081169216908590600160301b900462ffffff16613218565b505b80156123115760095460085460135461230f926001600160a01b039081169216908490600160301b900462ffffff16613218565b505b50505050565b61231f612e39565b61232761294f565b60048054600a54601254604051632142170760e11b815230948101949094526001600160a01b039182166024850152604484015216906342842e0e90606401600060405180830381600087803b15801561238057600080fd5b505af1158015612394573d6000803e3d6000fd5b5050505061154f6001600555565b6123aa6126f8565b600182516123b8919061401b565b8151146123d75760405162461bcd60e51b8152600401610a0b9061402e565b6123e2601683612ffa565b6123ed601782613066565b7fd60de51c4b7b31568ee8c6a5fcc0338f89e13844171d916ff7cce68943275e5f82826040516115239291906142fb565b6001546001600160a01b0316331461154f5760405162461bcd60e51b8152602060048201526006602482015265085d985d5b1d60d21b6044820152606401610a0b565b6015818154811061247157600080fd5b90600052602060002090600a9182820401919006600302915054906101000a900462ffffff1681565b6016818154811061199757600080fd5b600a54601254604051630ec6b3dd60e21b815260048101919091526000916001600160a01b031690633b1acf749060240161012060405180830381865afa1580156124f9573d6000803e3d6000fd5b505050506040513d601f19601f8201168201806040525081019061251d9190614456565b509698975050505050505050565b612533612e39565b61253b61241e565b61154f612dd4565b61254b6126f8565b600380546001600160a01b0319166001600160a01b0383169081179091556040519081527f54a6385aa0292b04e1ef8513253c17d1863f7cdfc87029d77fd55cc4c2e717e29060200160405180910390a150565b600080612657601980546125b2906140dc565b80601f01602080910402602001604051908101604052809291908181526020018280546125de906140dc565b801561262b5780601f106126005761010080835404028352916020019161262b565b820191906000526020600020905b81548152906001019060200180831161260e57829003601f168201915b5050505050604051806040016040528060098152602001682875696e743235362960b81b8152506132c4565b600a5460125460405160248101919091529192506000916126cb916001600160a01b031690849060440160408051601f19818403018152908290529161269c916140c0565b6040519081900390206020820180516001600160e01b03166001600160e01b03199092169190911790526132f1565b9050808060200190518101906126e19190613ed5565b9250505090565b6017818154811061247157600080fd5b6003546001600160a01b0316331461154f5760405162461bcd60e51b815260206004820152600860248201526710b6b0b730b3b2b960c11b6044820152606401610a0b565b612745612d7a565b6001600160a01b0381166127aa5760405162461bcd60e51b815260206004820152602660248201527f4f776e61626c653a206e6577206f776e657220697320746865207a65726f206160448201526564647265737360d01b6064820152608401610a0b565b61140f816130e9565b6012546000036127cd576127c561079b565b61154f612317565b61154f6119b1565b600954600090600160a01b900460ff16156127fa57506008546001600160a01b031690565b506009546001600160a01b031690565b61195161241e565b600254600654612836916001600160a01b036201000090920482169116600061331d565b60025460065461285b916001600160a01b03620100009092048216911660001961331d565b600254600854612879916001600160a01b039182169116600061331d565b600254600854612898916001600160a01b03918216911660001961331d565b6002546009546128b6916001600160a01b039182169116600061331d565b6002546009546128d5916001600160a01b03918216911660001961331d565b6004546008546128f3916001600160a01b039182169116600061331d565b600454600854612912916001600160a01b03918216911660001961331d565b600454600954612930916001600160a01b039182169116600061331d565b60045460095461154f916001600160a01b03918216911660001961331d565b6002600554036129a15760405162461bcd60e51b815260206004820152601f60248201527f5265656e7472616e637947756172643a207265656e7472616e742063616c6c006044820152606401610a0b565b6002600555565b6001600555565b6040805160e081018252601354600281810b835263010000008204900b6020808401919091526b204fce5e3e2502611000000083850152600e546001600160a01b03908116606080860191909152600c548216608080870191909152600b54831660a080880191909152600754841660c088015287519081018852600954600160a01b900460ff1615158152600160301b90950462ffffff1693850193909352838601879052601054821690840152600f54169082015291516328dd68f160e11b815260009283928392736c7ca3d5d0ce8c7ecc3a6d52e9d266e25fa6f424926351bad1e292612aa4929091906004016144ed565b602060405180830381865af4158015612ac1573d6000803e3d6000fd5b505050506040513d601f19601f82011682018060405250810190612ae5919061454b565b90506000612af16124aa565b9050806001600160801b0316826001600160801b03161115612b11578091505b600a546040805160a08101825260125481526001600160801b0385166020820152600081830181905260608201524260808201529051630624e65f60e11b81526001600160a01b0390921691630c49ccbe91612b6f9160040161421c565b60408051808303816000875af1158015612b8d573d6000803e3d6000fd5b505050506040513d601f19601f82011682018060405250810190612bb1919061425f565b5050600a546040805160808101825260125481523060208201526001600160801b038183018190526060820152905163fc6f786560e01b81526001600160a01b039092169163fc6f786591612c0891600401614283565b60408051808303816000875af1158015612c26573d6000803e3d6000fd5b505050506040513d601f19601f82011682018060405250810190612c4a919061425f565b90969095509350505050565b600080612c616127d5565b6008549091506000906001600160a01b03808416911614612cbb578415612cae57600854601354612cab916001600160a01b03169084908890600160301b900462ffffff16613218565b90505b612cb881856143f7565b92505b6009546001600160a01b03838116911614612d0f578315612d0257600954601354612cff916001600160a01b03169084908790600160301b900462ffffff16613218565b90505b612d0c81866143f7565b92505b505092915050565b6040516001600160a01b03831660248201526044810182905261103390849063a9059cbb60e01b906064015b60408051601f198184030181529190526020810180516001600160e01b03166001600160e01b031990931692909217909152613432565b6000546001600160a01b0316331461154f5760405162461bcd60e51b815260206004820181905260248201527f4f776e61626c653a2063616c6c6572206973206e6f7420746865206f776e65726044820152606401610a0b565b612ddc6120a9565b61154f6127b3565b612dec613504565b6000805460ff60a01b191690557f5db9ee0a495bf2e6ff9c91a7834c1ba4fdd244a5e8aa4e537bd38aeae4b073aa335b6040516001600160a01b03909116815260200160405180910390a1565b600054600160a01b900460ff161561154f5760405162461bcd60e51b815260206004820152601060248201526f14185d5cd8589b194e881c185d5cd95960821b6044820152606401610a0b565b60008084600081518110612e9c57612e9c614566565b6020026020010151604051602001612ecc919060609190911b6bffffffffffffffffffffffff1916815260140190565b604051602081830303815290604052905060005b8451811015612f605781858281518110612efc57612efc614566565b602002602001015187836001612f1291906143f7565b81518110612f2257612f22614566565b6020026020010151604051602001612f3c9392919061457c565b60405160208183030381529060405291508080612f58906145c8565b915050612ee0565b506002546040805160808101825283815230602082015280820186905260006060820152905163b858183f60e01b81526001600160a01b039092169163b858183f91612fae916004016145e1565b6020604051808303816000875af1158015612fcd573d6000803e3d6000fd5b505050506040513d601f19601f82011682018060405250810190612ff19190613ed5565b95945050505050565b60005b8151811015611033578282828151811061301957613019614566565b60209081029190910181015182546001810184556000938452919092200180546001600160a01b0319166001600160a01b039092169190911790558061305e816145c8565b915050612ffd565b60005b8151811015611033578282828151811061308557613085614566565b602002602001015190806001815401808255809150506001900390600052602060002090600a91828204019190066003029091909190916101000a81548162ffffff021916908362ffffff16021790555080806130e1906145c8565b915050613069565b600080546001600160a01b038381166001600160a01b0319831681178455604051919092169283917f8be0079c531659141344cd1fd0a4f28419497f9722a3daafe3b4186f6b6457e09190a35050565b613141612e39565b6000805460ff60a01b1916600160a01b1790557f62e78cea01bee320cd4e420270b5ea74000d11b0c9f74754ebdbfc544b05a258612e1c3390565b6002546006546131a0916001600160a01b036201000090920482169116600061331d565b6002546008546131be916001600160a01b039182169116600061331d565b6002546009546131dc916001600160a01b039182169116600061331d565b6004546008546131fa916001600160a01b039182169116600061331d565b60045460095461154f916001600160a01b039182169116600061331d565b6002546040805160e0810182526001600160a01b0387811682528681166020830190815262ffffff8681168486019081523060608601908152608086018a8152600060a0880181815260c0890182815299516304e45aaf60e01b81529851881660048a015295518716602489015292519093166044870152518416606486015290516084850152905160a48401529251811660c4830152919291909116906304e45aaf9060e401612fae565b606082826040516020016132d992919061462f565b60405160208183030381529060405290505b92915050565b6060613316838360405180606001604052806025815260200161468160259139613554565b9392505050565b8015806133975750604051636eb1769f60e11b81523060048201526001600160a01b03838116602483015284169063dd62ed3e90604401602060405180830381865afa158015613371573d6000803e3d6000fd5b505050506040513d601f19601f820116820180604052508101906133959190613ed5565b155b6134025760405162461bcd60e51b815260206004820152603660248201527f5361666545524332303a20617070726f76652066726f6d206e6f6e2d7a65726f60448201527520746f206e6f6e2d7a65726f20616c6c6f77616e636560501b6064820152608401610a0b565b6040516001600160a01b03831660248201526044810182905261103390849063095ea7b360e01b90606401612d43565b6000613487826040518060400160405280602081526020017f5361666545524332303a206c6f772d6c6576656c2063616c6c206661696c6564815250856001600160a01b03166135cc9092919063ffffffff16565b80519091501561103357808060200190518101906134a5919061465e565b6110335760405162461bcd60e51b815260206004820152602a60248201527f5361666545524332303a204552433230206f7065726174696f6e20646964206e6044820152691bdd081cdd58d8d9595960b21b6064820152608401610a0b565b600054600160a01b900460ff1661154f5760405162461bcd60e51b815260206004820152601460248201527314185d5cd8589b194e881b9bdd081c185d5cd95960621b6044820152606401610a0b565b6060600080856001600160a01b03168560405161357191906140c0565b600060405180830381855afa9150503d80600081146135ac576040519150601f19603f3d011682016040523d82523d6000602084013e6135b1565b606091505b50915091506135c2868383876135db565b9695505050505050565b60606110418484600085613654565b6060831561364a578251600003613643576001600160a01b0385163b6136435760405162461bcd60e51b815260206004820152601d60248201527f416464726573733a2063616c6c20746f206e6f6e2d636f6e74726163740000006044820152606401610a0b565b5081611041565b611041838361372f565b6060824710156136b55760405162461bcd60e51b815260206004820152602660248201527f416464726573733a20696e73756666696369656e742062616c616e636520666f6044820152651c8818d85b1b60d21b6064820152608401610a0b565b600080866001600160a01b031685876040516136d191906140c0565b60006040518083038185875af1925050503d806000811461370e576040519150601f19603f3d011682016040523d82523d6000602084013e613713565b606091505b5091509150613724878383876135db565b979650505050505050565b81511561373f5781518083602001fd5b8060405162461bcd60e51b8152600401610a0b9190613def565b8280548282559060005260206000209081019282156137ae579160200282015b828111156137ae57825182546001600160a01b0319166001600160a01b03909116178255602090920191600190910190613779565b506137ba929150613861565b5090565b82805482825590600052602060002090600901600a900481019282156137ae5791602002820160005b8382111561382957835183826101000a81548162ffffff021916908362ffffff16021790555092602001926003016020816002010492830192600103026137e7565b80156138585782816101000a81549062ffffff0219169055600301602081600201049283019260010302613829565b50506137ba9291505b5b808211156137ba5760008155600101613862565b634e487b7160e01b600052604160045260246000fd5b604051610240810167ffffffffffffffff811182821017156138b0576138b0613876565b60405290565b604051601f8201601f1916810167ffffffffffffffff811182821017156138df576138df613876565b604052919050565b8060020b811461140f57600080fd5b8035613901816138e7565b919050565b6001600160a01b038116811461140f57600080fd5b803561390181613906565b600067ffffffffffffffff82111561394057613940613876565b5060051b60200190565b600082601f83011261395b57600080fd5b8135602061397061396b83613926565b6138b6565b82815260059290921b8401810191818101908684111561398f57600080fd5b8286015b848110156139b35780356139a681613906565b8352918301918301613993565b509695505050505050565b62ffffff8116811461140f57600080fd5b600082601f8301126139e057600080fd5b813560206139f061396b83613926565b82815260059290921b84018101918181019086841115613a0f57600080fd5b8286015b848110156139b3578035613a26816139be565b8352918301918301613a13565b600067ffffffffffffffff831115613a4d57613a4d613876565b613a60601f8401601f19166020016138b6565b9050828152838383011115613a7457600080fd5b828260208301376000602084830101529392505050565b600082601f830112613a9c57600080fd5b61331683833560208501613a33565b600060608284031215613abd57600080fd5b6040516060810181811067ffffffffffffffff82111715613ae057613ae0613876565b6040529050808235613af181613906565b81526020830135613b0181613906565b60208201526040830135613b1481613906565b6040919091015292915050565b60008060808385031215613b3457600080fd5b823567ffffffffffffffff80821115613b4c57600080fd5b908401906102408287031215613b6157600080fd5b613b6961388c565b613b72836138f6565b8152613b80602084016138f6565b6020820152613b916040840161391b565b6040820152613ba26060840161391b565b6060820152613bb36080840161391b565b6080820152613bc460a0840161391b565b60a0820152613bd560c0840161391b565b60c0820152613be660e0840161391b565b60e0820152610100613bf981850161391b565b90820152610120613c0b84820161391b565b90820152610140613c1d84820161391b565b908201526101608381013583811115613c3557600080fd5b613c418982870161394a565b8284015250506101808084013583811115613c5b57600080fd5b613c67898287016139cf565b8284015250506101a08084013583811115613c8157600080fd5b613c8d8982870161394a565b8284015250506101c08084013583811115613ca757600080fd5b613cb3898287016139cf565b8284015250506101e0613cc781850161391b565b90820152610200613cd984820161391b565b908201526102208381013583811115613cf157600080fd5b613cfd89828701613a8b565b828401525050809450505050613d168460208501613aab565b90509250929050565b60008060008060808587031215613d3557600080fd5b8435613d4081613906565b93506020850135613d5081613906565b925060408501359150606085013567ffffffffffffffff811115613d7357600080fd5b8501601f81018713613d8457600080fd5b613d9387823560208401613a33565b91505092959194509250565b60005b83811015613dba578181015183820152602001613da2565b50506000910152565b60008151808452613ddb816020860160208601613d9f565b601f01601f19169290920160200192915050565b6020815260006133166020830184613dc3565b600060208284031215613e1457600080fd5b5035919050565b60008060408385031215613e2e57600080fd5b8235613e39816138e7565b91506020830135613e49816138e7565b809150509250929050565b60008060408385031215613e6757600080fd5b823567ffffffffffffffff80821115613e7f57600080fd5b613e8b8683870161394a565b93506020850135915080821115613ea157600080fd5b50613eae858286016139cf565b9150509250929050565b600060208284031215613eca57600080fd5b813561331681613906565b600060208284031215613ee757600080fd5b5051919050565b81516001600160a01b0316815261016081016020830151613f1a60208401826001600160a01b03169052565b506040830151613f31604084018262ffffff169052565b506060830151613f46606084018260020b9052565b506080830151613f5b608084018260020b9052565b5060a083015160a083015260c083015160c083015260e083015160e083015261010080840151818401525061012080840151613fa1828501826001600160a01b03169052565b505061014092830151919092015290565b80516001600160801b038116811461390157600080fd5b60008060008060808587031215613fdf57600080fd5b84519350613fef60208601613fb2565b6040860151606090960151949790965092505050565b634e487b7160e01b600052601160045260246000fd5b818103818111156132eb576132eb614005565b602080825260029082015261049560f41b604082015260600190565b600296870b815294860b602086015292850b6040850152930b60608301526001600160a01b03928316608083015290911660a082015260c00190565b60006020828403121561409857600080fd5b8151613316816139be565b6000602082840312156140b557600080fd5b815161331681613906565b600082516140d2818460208701613d9f565b9190910192915050565b600181811c908216806140f057607f821691505b60208210810361411057634e487b7160e01b600052602260045260246000fd5b50919050565b601f82111561103357600081815260208120601f850160051c8101602086101561413d5750805b601f850160051c820191505b81811015611bba57828155600101614149565b815167ffffffffffffffff81111561417657614176613876565b61418a8161418484546140dc565b84614116565b602080601f8311600181146141bf57600084156141a75750858301515b600019600386901b1c1916600185901b178555611bba565b600085815260208120601f198616915b828110156141ee578886015182559484019460019091019084016141cf565b508582101561420c5787850151600019600388901b60f8161c191681555b5050505050600190811b01905550565b600060a082019050825182526001600160801b03602084015116602083015260408301516040830152606083015160608301526080830151608083015292915050565b6000806040838503121561427257600080fd5b505080516020909101519092909150565b815181526020808301516001600160a01b0316908201526040808301516001600160801b0390811691830191909152606092830151169181019190915260800190565b6000806000606084860312156142db57600080fd5b6142e484613fb2565b925060208401519150604084015190509250925092565b604080825283519082018190526000906020906060840190828701845b8281101561433d5781516001600160a01b031684529284019290840190600101614318565b5050508381038285015284518082528583019183019060005b8181101561437757835162ffffff1683529284019291840191600101614356565b5090979650505050505050565b805160020b8252602081015160020b60208301526001600160801b036040820151166040830152606081015160018060a01b0380821660608501528060808401511660808501528060a08401511660a08501528060c08401511660c085015250505050565b60e081016132eb8284614384565b808201808211156132eb576132eb614005565b61016081016144198285614384565b825162ffffff1660e0830152602083015161010083015260408301516101208301526060909201516001600160a01b031661014090910152919050565b60008060008060008060008060006101208a8c03121561447557600080fd5b61447e8a613fb2565b985061448c60208b01613fb2565b975060408a015161449c816138e7565b60608b01519097506144ad816138e7565b8096505060808a0151945060a08a0151935060c08a01516144cd81613906565b8093505060e08a015191506101008a015190509295985092959850929598565b61018081016144fc8285614384565b8251151560e0830152602083015162ffffff16610100830152604083015161012083015260608301516001600160a01b0390811661014084015260809093015190921661016090910152919050565b60006020828403121561455d57600080fd5b61331682613fb2565b634e487b7160e01b600052603260045260246000fd5b6000845161458e818460208901613d9f565b60e89490941b6001600160e81b0319169190930190815260609190911b6bffffffffffffffffffffffff1916600382015260170192915050565b6000600182016145da576145da614005565b5060010190565b6020815260008251608060208401526145fd60a0840182613dc3565b905060018060a01b03602085015116604084015260408401516060840152606084015160808401528091505092915050565b60008351614641818460208801613d9f565b835190830190614655818360208801613d9f565b01949350505050565b60006020828403121561467057600080fd5b8151801515811461331657600080fdfe416464726573733a206c6f772d6c6576656c207374617469632063616c6c206661696c6564a26469706673582212200c8fdf4e2e35e10742b40859730b3d416f43907e107266e41519318d4db4d86464736f6c63430008130033"
        }
      ],
      "isFixedGasLimit": false
    },
    {
      "hash": "0x7c7bfd0c988668645a951ef8e834602293dffb874e8d47d39f27d57bb2fc40f4",
      "transactionType": "CALL",
      "contractName": "RiveraAutoCompoundingVaultV2Whitelisted",
      "contractAddress": "0xD7D4E7FBD3e7aa3a3bef0267b2B077f9f12b01EA",
      "function": "newWhitelist(address)",
      "arguments": [
        "0x2aCC49a84919Ab9Cf0eb6576432E9b09D78650E6"
      ],
      "rpc": "https://rpc.testnet.mantle.xyz",
      "transaction": {
        "type": "0x00",
        "from": "0x29782e6eefef1255d1ddc2bd1b4851b890614868",
        "to": "0xd7d4e7fbd3e7aa3a3bef0267b2b077f9f12b01ea",
        "gas": "0x103b2",
        "value": "0x0",
        "data": "0x9674ca6e0000000000000000000000002acc49a84919ab9cf0eb6576432e9b09d78650e6",
        "nonce": "0x85"
      },
      "additionalContracts": [],
      "isFixedGasLimit": false
    },
    {
      "hash": "0x561f68d0f14a91981f7f6e292425e0c25b5e8f3b22b67590e25bf96cac482e55",
      "transactionType": "CALL",
      "contractName": "RiveraAutoCompoundingVaultV2Whitelisted",
      "contractAddress": "0xD7D4E7FBD3e7aa3a3bef0267b2B077f9f12b01EA",
      "function": "newWhitelist(address)",
      "arguments": [
        "0xcf288Dc70983D17C83EA1b80579b211c51043801"
      ],
      "rpc": "https://rpc.testnet.mantle.xyz",
      "transaction": {
        "type": "0x00",
        "from": "0x29782e6eefef1255d1ddc2bd1b4851b890614868",
        "to": "0xd7d4e7fbd3e7aa3a3bef0267b2b077f9f12b01ea",
        "gas": "0x103b2",
        "value": "0x0",
        "data": "0x9674ca6e000000000000000000000000cf288dc70983d17c83ea1b80579b211c51043801",
        "nonce": "0x86"
      },
      "additionalContracts": [],
      "isFixedGasLimit": false
    },
    {
      "hash": "0x2bf6e0364ce5b6fc3fb6f5581c0d1602458bd68a4933321195cc23289d3fc7a2",
      "transactionType": "CALL",
      "contractName": "RiveraAutoCompoundingVaultV2Whitelisted",
      "contractAddress": "0xD7D4E7FBD3e7aa3a3bef0267b2B077f9f12b01EA",
      "function": "newWhitelist(address)",
      "arguments": [
        "0xe620Ddc3b46FC30D7Ba98C6B315aA17f69302B0c"
      ],
      "rpc": "https://rpc.testnet.mantle.xyz",
      "transaction": {
        "type": "0x00",
        "from": "0x29782e6eefef1255d1ddc2bd1b4851b890614868",
        "to": "0xd7d4e7fbd3e7aa3a3bef0267b2b077f9f12b01ea",
        "gas": "0x103b2",
        "value": "0x0",
        "data": "0x9674ca6e000000000000000000000000e620ddc3b46fc30d7ba98c6b315aa17f69302b0c",
        "nonce": "0x87"
      },
      "additionalContracts": [],
      "isFixedGasLimit": false
    },
    {
      "hash": "0x2fc9963692513f57388af4c84f58ee083cbc462432a7496be7c5df6893af506b",
      "transactionType": "CALL",
      "contractName": "RiveraAutoCompoundingVaultV2Whitelisted",
      "contractAddress": "0xD7D4E7FBD3e7aa3a3bef0267b2B077f9f12b01EA",
      "function": "newWhitelist(address)",
      "arguments": [
        "0xE1427B8A742f489c866C42874F83aFc0c5D003e8"
      ],
      "rpc": "https://rpc.testnet.mantle.xyz",
      "transaction": {
        "type": "0x00",
        "from": "0x29782e6eefef1255d1ddc2bd1b4851b890614868",
        "to": "0xd7d4e7fbd3e7aa3a3bef0267b2b077f9f12b01ea",
        "gas": "0x103b2",
        "value": "0x0",
        "data": "0x9674ca6e000000000000000000000000e1427b8a742f489c866c42874f83afc0c5d003e8",
        "nonce": "0x88"
      },
      "additionalContracts": [],
      "isFixedGasLimit": false
    },
    {
      "hash": "0xbf504a2c420fb82f775df48b60c39d183802dabb0eff1ddf476986fa2899f8cd",
      "transactionType": "CALL",
      "contractName": "RiveraAutoCompoundingVaultV2Whitelisted",
      "contractAddress": "0xD7D4E7FBD3e7aa3a3bef0267b2B077f9f12b01EA",
      "function": "newWhitelist(address)",
      "arguments": [
        "0xC4587D8110D0Fe59abB24188473E9c5A9DF4684f"
      ],
      "rpc": "https://rpc.testnet.mantle.xyz",
      "transaction": {
        "type": "0x00",
        "from": "0x29782e6eefef1255d1ddc2bd1b4851b890614868",
        "to": "0xd7d4e7fbd3e7aa3a3bef0267b2b077f9f12b01ea",
        "gas": "0x103b2",
        "value": "0x0",
        "data": "0x9674ca6e000000000000000000000000c4587d8110d0fe59abb24188473e9c5a9df4684f",
        "nonce": "0x89"
      },
      "additionalContracts": [],
      "isFixedGasLimit": false
    },
    {
      "hash": "0x9da01e8fb63e3c6a3c9abeca95e77db71a74c9f4225da532cc187edf534aec20",
      "transactionType": "CALL",
      "contractName": "RiveraAutoCompoundingVaultV2Whitelisted",
      "contractAddress": "0xD7D4E7FBD3e7aa3a3bef0267b2B077f9f12b01EA",
      "function": "newWhitelist(address)",
      "arguments": [
        "0x16B7a584fecc9Da0833f2E96b9fC770Db906c9c4"
      ],
      "rpc": "https://rpc.testnet.mantle.xyz",
      "transaction": {
        "type": "0x00",
        "from": "0x29782e6eefef1255d1ddc2bd1b4851b890614868",
        "to": "0xd7d4e7fbd3e7aa3a3bef0267b2b077f9f12b01ea",
        "gas": "0x103b2",
        "value": "0x0",
        "data": "0x9674ca6e00000000000000000000000016b7a584fecc9da0833f2e96b9fc770db906c9c4",
        "nonce": "0x8a"
      },
      "additionalContracts": [],
      "isFixedGasLimit": false
    },
    {
      "hash": "0xd79ce74ba1d6200f3bf18953248c4a2ea2edd597e3ccc070d07e6bc905e2dfe7",
      "transactionType": "CALL",
      "contractName": "RiveraAutoCompoundingVaultV2Whitelisted",
      "contractAddress": "0xD7D4E7FBD3e7aa3a3bef0267b2B077f9f12b01EA",
      "function": "newWhitelist(address)",
      "arguments": [
        "0xf925488428e935228d0200C515399b80017f53e6"
      ],
      "rpc": "https://rpc.testnet.mantle.xyz",
      "transaction": {
        "type": "0x00",
        "from": "0x29782e6eefef1255d1ddc2bd1b4851b890614868",
        "to": "0xd7d4e7fbd3e7aa3a3bef0267b2b077f9f12b01ea",
        "gas": "0x103a1",
        "value": "0x0",
        "data": "0x9674ca6e000000000000000000000000f925488428e935228d0200c515399b80017f53e6",
        "nonce": "0x8b"
      },
      "additionalContracts": [],
      "isFixedGasLimit": false
    },
    {
      "hash": "0x992db32ca0c6b4db15f48b39aba3d2ffffc766e96d92807c5daea90bc846c6de",
      "transactionType": "CALL",
      "contractName": "RiveraAutoCompoundingVaultV2Whitelisted",
      "contractAddress": "0xD7D4E7FBD3e7aa3a3bef0267b2B077f9f12b01EA",
      "function": "newWhitelist(address)",
      "arguments": [
        "0x8A48F4c34A24dcFa962d2E86ac9C2c00251a0A92"
      ],
      "rpc": "https://rpc.testnet.mantle.xyz",
      "transaction": {
        "type": "0x00",
        "from": "0x29782e6eefef1255d1ddc2bd1b4851b890614868",
        "to": "0xd7d4e7fbd3e7aa3a3bef0267b2b077f9f12b01ea",
        "gas": "0x103a1",
        "value": "0x0",
        "data": "0x9674ca6e0000000000000000000000008a48f4c34a24dcfa962d2e86ac9c2c00251a0a92",
        "nonce": "0x8c"
      },
      "additionalContracts": [],
      "isFixedGasLimit": false
    },
    {
      "hash": "0xeb83ddf2d85e5e7a0be434eeea5ecc53a4959996a38977c21b5ecfed81b3a3d2",
      "transactionType": "CALL",
      "contractName": null,
      "contractAddress": "0x8734110e5e1dcF439c7F549db740E546fea82d66",
      "function": "approve(address,uint256):(bool)",
      "arguments": [
        "0xD7D4E7FBD3e7aa3a3bef0267b2B077f9f12b01EA",
        "2000000000000000000"
      ],
      "rpc": "https://rpc.testnet.mantle.xyz",
      "transaction": {
        "type": "0x00",
        "from": "0x2acc49a84919ab9cf0eb6576432e9b09d78650e6",
        "to": "0x8734110e5e1dcf439c7f549db740e546fea82d66",
        "gas": "0x107ab",
        "value": "0x0",
        "data": "0x095ea7b3000000000000000000000000d7d4e7fbd3e7aa3a3bef0267b2b077f9f12b01ea0000000000000000000000000000000000000000000000001bc16d674ec80000",
        "nonce": "0x19"
      },
      "additionalContracts": [],
      "isFixedGasLimit": false
    },
    {
      "hash": "0xb6b9069e82670a2c35fd8c8e51132d8b4aa5efc86de7ba807b3ba1d51d12e2d6",
      "transactionType": "CALL",
      "contractName": "RiveraAutoCompoundingVaultV2Whitelisted",
      "contractAddress": "0xD7D4E7FBD3e7aa3a3bef0267b2B077f9f12b01EA",
      "function": "deposit(uint256,address):(uint256)",
      "arguments": [
        "2000000000000000000",
        "0x2aCC49a84919Ab9Cf0eb6576432E9b09D78650E6"
      ],
      "rpc": "https://rpc.testnet.mantle.xyz",
      "transaction": {
        "type": "0x00",
        "from": "0x2acc49a84919ab9cf0eb6576432e9b09d78650e6",
        "to": "0xd7d4e7fbd3e7aa3a3bef0267b2b077f9f12b01ea",
        "gas": "0x116d8c",
        "value": "0x0",
        "data": "0x6e553f650000000000000000000000000000000000000000000000001bc16d674ec800000000000000000000000000002acc49a84919ab9cf0eb6576432e9b09d78650e6",
        "nonce": "0x1a"
      },
      "additionalContracts": [],
      "isFixedGasLimit": false
    },
    {
      "hash": "0x14df944d91b29dcfa310d9e0d98550f28276c91c49b796f4d014ff555e6d0fb6",
      "transactionType": "CALL",
      "contractName": null,
      "contractAddress": "0x8734110e5e1dcF439c7F549db740E546fea82d66",
      "function": "approve(address,uint256):(bool)",
      "arguments": [
        "0xD7D4E7FBD3e7aa3a3bef0267b2B077f9f12b01EA",
        "2000000000000000000"
      ],
      "rpc": "https://rpc.testnet.mantle.xyz",
      "transaction": {
        "type": "0x00",
        "from": "0xcf288dc70983d17c83ea1b80579b211c51043801",
        "to": "0x8734110e5e1dcf439c7f549db740e546fea82d66",
        "gas": "0x107ab",
        "value": "0x0",
        "data": "0x095ea7b3000000000000000000000000d7d4e7fbd3e7aa3a3bef0267b2b077f9f12b01ea0000000000000000000000000000000000000000000000001bc16d674ec80000",
        "nonce": "0x6"
      },
      "additionalContracts": [],
      "isFixedGasLimit": false
    },
    {
      "hash": "0x56ebb6bd2c72cd454fcc83ddac814d643f32e8276e2cbd8baca1b218e48fd078",
      "transactionType": "CALL",
      "contractName": "RiveraAutoCompoundingVaultV2Whitelisted",
      "contractAddress": "0xD7D4E7FBD3e7aa3a3bef0267b2B077f9f12b01EA",
      "function": "deposit(uint256,address):(uint256)",
      "arguments": [
        "2000000000000000000",
        "0xcf288Dc70983D17C83EA1b80579b211c51043801"
      ],
      "rpc": "https://rpc.testnet.mantle.xyz",
      "transaction": {
        "type": "0x00",
        "from": "0xcf288dc70983d17c83ea1b80579b211c51043801",
        "to": "0xd7d4e7fbd3e7aa3a3bef0267b2b077f9f12b01ea",
        "gas": "0x86dec",
        "value": "0x0",
        "data": "0x6e553f650000000000000000000000000000000000000000000000001bc16d674ec80000000000000000000000000000cf288dc70983d17c83ea1b80579b211c51043801",
        "nonce": "0x7"
      },
      "additionalContracts": [],
      "isFixedGasLimit": false
    }
  ],
  "receipts": [
    {
      "transactionHash": "0x9e69345c4c66efadf69934e83fc2c069a15126aaa3960e5efc49e36528084667",
      "transactionIndex": "0x0",
      "blockHash": "0x47a9abf8cc258a0b8f960d3b1b244f2bcea1a5d084c88165bd9cea81c06aa776",
      "blockNumber": "0xb74e4b",
      "from": "0x29782e6eefef1255D1DDC2Bd1b4851B890614868",
      "to": "0xbfAe7bA13712783Bb14877930Cb9b7579C39F43E",
      "cumulativeGasUsed": "0x698de7",
      "gasUsed": "0x698de7",
      "contractAddress": null,
      "logs": [
        {
          "address": "0xD7D4E7FBD3e7aa3a3bef0267b2B077f9f12b01EA",
          "topics": [
            "0x8be0079c531659141344cd1fd0a4f28419497f9722a3daafe3b4186f6b6457e0",
            "0x0000000000000000000000000000000000000000000000000000000000000000",
            "0x000000000000000000000000bfae7ba13712783bb14877930cb9b7579c39f43e"
          ],
          "data": "0x",
          "blockHash": "0x47a9abf8cc258a0b8f960d3b1b244f2bcea1a5d084c88165bd9cea81c06aa776",
          "blockNumber": "0xb74e4b",
          "transactionHash": "0x9e69345c4c66efadf69934e83fc2c069a15126aaa3960e5efc49e36528084667",
          "transactionIndex": "0x0",
          "logIndex": "0x0",
          "removed": false
        },
        {
          "address": "0x7bC5961CFA47c00bF7F3bed25C3270B1Cb309060",
          "topics": [
            "0x8be0079c531659141344cd1fd0a4f28419497f9722a3daafe3b4186f6b6457e0",
            "0x0000000000000000000000000000000000000000000000000000000000000000",
            "0x0000000000000000000000002e346ae1e70696f05060e4b53721a0d29cb2d10d"
          ],
          "data": "0x",
          "blockHash": "0x47a9abf8cc258a0b8f960d3b1b244f2bcea1a5d084c88165bd9cea81c06aa776",
          "blockNumber": "0xb74e4b",
          "transactionHash": "0x9e69345c4c66efadf69934e83fc2c069a15126aaa3960e5efc49e36528084667",
          "transactionIndex": "0x0",
          "logIndex": "0x1",
          "removed": false
        },
        {
          "address": "0x6dFB16bc471982f19DB32DEE9b6Fb40Db4503cBF",
          "topics": [
            "0x8c5be1e5ebec7d5bd14f71427d1e84f3dd0314c0f7b2291e5b200ac8c7c3b925",
            "0x0000000000000000000000007bc5961cfa47c00bf7f3bed25c3270b1cb309060",
            "0x000000000000000000000000e3a68317a2f1c41e5b2efbce2951088efb0cf524"
          ],
          "data": "0x0000000000000000000000000000000000000000000000000000000000000000",
          "blockHash": "0x47a9abf8cc258a0b8f960d3b1b244f2bcea1a5d084c88165bd9cea81c06aa776",
          "blockNumber": "0xb74e4b",
          "transactionHash": "0x9e69345c4c66efadf69934e83fc2c069a15126aaa3960e5efc49e36528084667",
          "transactionIndex": "0x0",
          "logIndex": "0x2",
          "removed": false
        },
        {
          "address": "0x6dFB16bc471982f19DB32DEE9b6Fb40Db4503cBF",
          "topics": [
            "0x8c5be1e5ebec7d5bd14f71427d1e84f3dd0314c0f7b2291e5b200ac8c7c3b925",
            "0x0000000000000000000000007bc5961cfa47c00bf7f3bed25c3270b1cb309060",
            "0x000000000000000000000000e3a68317a2f1c41e5b2efbce2951088efb0cf524"
          ],
          "data": "0xffffffffffffffffffffffffffffffffffffffffffffffffffffffffffffffff",
          "blockHash": "0x47a9abf8cc258a0b8f960d3b1b244f2bcea1a5d084c88165bd9cea81c06aa776",
          "blockNumber": "0xb74e4b",
          "transactionHash": "0x9e69345c4c66efadf69934e83fc2c069a15126aaa3960e5efc49e36528084667",
          "transactionIndex": "0x0",
          "logIndex": "0x3",
          "removed": false
        },
        {
          "address": "0x6dFB16bc471982f19DB32DEE9b6Fb40Db4503cBF",
          "topics": [
            "0x8c5be1e5ebec7d5bd14f71427d1e84f3dd0314c0f7b2291e5b200ac8c7c3b925",
            "0x0000000000000000000000007bc5961cfa47c00bf7f3bed25c3270b1cb309060",
            "0x000000000000000000000000e3a68317a2f1c41e5b2efbce2951088efb0cf524"
          ],
          "data": "0x0000000000000000000000000000000000000000000000000000000000000000",
          "blockHash": "0x47a9abf8cc258a0b8f960d3b1b244f2bcea1a5d084c88165bd9cea81c06aa776",
          "blockNumber": "0xb74e4b",
          "transactionHash": "0x9e69345c4c66efadf69934e83fc2c069a15126aaa3960e5efc49e36528084667",
          "transactionIndex": "0x0",
          "logIndex": "0x4",
          "removed": false
        },
        {
          "address": "0x6dFB16bc471982f19DB32DEE9b6Fb40Db4503cBF",
          "topics": [
            "0x8c5be1e5ebec7d5bd14f71427d1e84f3dd0314c0f7b2291e5b200ac8c7c3b925",
            "0x0000000000000000000000007bc5961cfa47c00bf7f3bed25c3270b1cb309060",
            "0x000000000000000000000000e3a68317a2f1c41e5b2efbce2951088efb0cf524"
          ],
          "data": "0xffffffffffffffffffffffffffffffffffffffffffffffffffffffffffffffff",
          "blockHash": "0x47a9abf8cc258a0b8f960d3b1b244f2bcea1a5d084c88165bd9cea81c06aa776",
          "blockNumber": "0xb74e4b",
          "transactionHash": "0x9e69345c4c66efadf69934e83fc2c069a15126aaa3960e5efc49e36528084667",
          "transactionIndex": "0x0",
          "logIndex": "0x5",
          "removed": false
        },
        {
          "address": "0x8734110e5e1dcF439c7F549db740E546fea82d66",
          "topics": [
            "0x8c5be1e5ebec7d5bd14f71427d1e84f3dd0314c0f7b2291e5b200ac8c7c3b925",
            "0x0000000000000000000000007bc5961cfa47c00bf7f3bed25c3270b1cb309060",
            "0x000000000000000000000000e3a68317a2f1c41e5b2efbce2951088efb0cf524"
          ],
          "data": "0x0000000000000000000000000000000000000000000000000000000000000000",
          "blockHash": "0x47a9abf8cc258a0b8f960d3b1b244f2bcea1a5d084c88165bd9cea81c06aa776",
          "blockNumber": "0xb74e4b",
          "transactionHash": "0x9e69345c4c66efadf69934e83fc2c069a15126aaa3960e5efc49e36528084667",
          "transactionIndex": "0x0",
          "logIndex": "0x6",
          "removed": false
        },
        {
          "address": "0x8734110e5e1dcF439c7F549db740E546fea82d66",
          "topics": [
            "0x8c5be1e5ebec7d5bd14f71427d1e84f3dd0314c0f7b2291e5b200ac8c7c3b925",
            "0x0000000000000000000000007bc5961cfa47c00bf7f3bed25c3270b1cb309060",
            "0x000000000000000000000000e3a68317a2f1c41e5b2efbce2951088efb0cf524"
          ],
          "data": "0xffffffffffffffffffffffffffffffffffffffffffffffffffffffffffffffff",
          "blockHash": "0x47a9abf8cc258a0b8f960d3b1b244f2bcea1a5d084c88165bd9cea81c06aa776",
          "blockNumber": "0xb74e4b",
          "transactionHash": "0x9e69345c4c66efadf69934e83fc2c069a15126aaa3960e5efc49e36528084667",
          "transactionIndex": "0x0",
          "logIndex": "0x7",
          "removed": false
        },
        {
          "address": "0x6dFB16bc471982f19DB32DEE9b6Fb40Db4503cBF",
          "topics": [
            "0x8c5be1e5ebec7d5bd14f71427d1e84f3dd0314c0f7b2291e5b200ac8c7c3b925",
            "0x0000000000000000000000007bc5961cfa47c00bf7f3bed25c3270b1cb309060",
            "0x00000000000000000000000094705da51466f3bb1e8c1591d71c09c9760f5f59"
          ],
          "data": "0x0000000000000000000000000000000000000000000000000000000000000000",
          "blockHash": "0x47a9abf8cc258a0b8f960d3b1b244f2bcea1a5d084c88165bd9cea81c06aa776",
          "blockNumber": "0xb74e4b",
          "transactionHash": "0x9e69345c4c66efadf69934e83fc2c069a15126aaa3960e5efc49e36528084667",
          "transactionIndex": "0x0",
          "logIndex": "0x8",
          "removed": false
        },
        {
          "address": "0x6dFB16bc471982f19DB32DEE9b6Fb40Db4503cBF",
          "topics": [
            "0x8c5be1e5ebec7d5bd14f71427d1e84f3dd0314c0f7b2291e5b200ac8c7c3b925",
            "0x0000000000000000000000007bc5961cfa47c00bf7f3bed25c3270b1cb309060",
            "0x00000000000000000000000094705da51466f3bb1e8c1591d71c09c9760f5f59"
          ],
          "data": "0xffffffffffffffffffffffffffffffffffffffffffffffffffffffffffffffff",
          "blockHash": "0x47a9abf8cc258a0b8f960d3b1b244f2bcea1a5d084c88165bd9cea81c06aa776",
          "blockNumber": "0xb74e4b",
          "transactionHash": "0x9e69345c4c66efadf69934e83fc2c069a15126aaa3960e5efc49e36528084667",
          "transactionIndex": "0x0",
          "logIndex": "0x9",
          "removed": false
        },
        {
          "address": "0x8734110e5e1dcF439c7F549db740E546fea82d66",
          "topics": [
            "0x8c5be1e5ebec7d5bd14f71427d1e84f3dd0314c0f7b2291e5b200ac8c7c3b925",
            "0x0000000000000000000000007bc5961cfa47c00bf7f3bed25c3270b1cb309060",
            "0x00000000000000000000000094705da51466f3bb1e8c1591d71c09c9760f5f59"
          ],
          "data": "0x0000000000000000000000000000000000000000000000000000000000000000",
          "blockHash": "0x47a9abf8cc258a0b8f960d3b1b244f2bcea1a5d084c88165bd9cea81c06aa776",
          "blockNumber": "0xb74e4b",
          "transactionHash": "0x9e69345c4c66efadf69934e83fc2c069a15126aaa3960e5efc49e36528084667",
          "transactionIndex": "0x0",
          "logIndex": "0xa",
          "removed": false
        },
        {
          "address": "0x8734110e5e1dcF439c7F549db740E546fea82d66",
          "topics": [
            "0x8c5be1e5ebec7d5bd14f71427d1e84f3dd0314c0f7b2291e5b200ac8c7c3b925",
            "0x0000000000000000000000007bc5961cfa47c00bf7f3bed25c3270b1cb309060",
            "0x00000000000000000000000094705da51466f3bb1e8c1591d71c09c9760f5f59"
          ],
          "data": "0xffffffffffffffffffffffffffffffffffffffffffffffffffffffffffffffff",
          "blockHash": "0x47a9abf8cc258a0b8f960d3b1b244f2bcea1a5d084c88165bd9cea81c06aa776",
          "blockNumber": "0xb74e4b",
          "transactionHash": "0x9e69345c4c66efadf69934e83fc2c069a15126aaa3960e5efc49e36528084667",
          "transactionIndex": "0x0",
          "logIndex": "0xb",
          "removed": false
        },
        {
          "address": "0x7bC5961CFA47c00bF7F3bed25C3270B1Cb309060",
          "topics": [
            "0x7f26b83ff96e1f2b6a682f133852f6798a09c465da95921460cefb3847402498"
          ],
          "data": "0x0000000000000000000000000000000000000000000000000000000000000001",
          "blockHash": "0x47a9abf8cc258a0b8f960d3b1b244f2bcea1a5d084c88165bd9cea81c06aa776",
          "blockNumber": "0xb74e4b",
          "transactionHash": "0x9e69345c4c66efadf69934e83fc2c069a15126aaa3960e5efc49e36528084667",
          "transactionIndex": "0x0",
          "logIndex": "0xc",
          "removed": false
        },
        {
          "address": "0x7bC5961CFA47c00bF7F3bed25C3270B1Cb309060",
          "topics": [
            "0x8be0079c531659141344cd1fd0a4f28419497f9722a3daafe3b4186f6b6457e0",
            "0x0000000000000000000000002e346ae1e70696f05060e4b53721a0d29cb2d10d",
            "0x00000000000000000000000029782e6eefef1255d1ddc2bd1b4851b890614868"
          ],
          "data": "0x",
          "blockHash": "0x47a9abf8cc258a0b8f960d3b1b244f2bcea1a5d084c88165bd9cea81c06aa776",
          "blockNumber": "0xb74e4b",
          "transactionHash": "0x9e69345c4c66efadf69934e83fc2c069a15126aaa3960e5efc49e36528084667",
          "transactionIndex": "0x0",
          "logIndex": "0xd",
          "removed": false
        },
        {
          "address": "0x7bC5961CFA47c00bF7F3bed25C3270B1Cb309060",
          "topics": [
            "0x54a6385aa0292b04e1ef8513253c17d1863f7cdfc87029d77fd55cc4c2e717e2"
          ],
          "data": "0x000000000000000000000000150cc4f90516c23e64231d2b92d737893dbb2515",
          "blockHash": "0x47a9abf8cc258a0b8f960d3b1b244f2bcea1a5d084c88165bd9cea81c06aa776",
          "blockNumber": "0xb74e4b",
          "transactionHash": "0x9e69345c4c66efadf69934e83fc2c069a15126aaa3960e5efc49e36528084667",
          "transactionIndex": "0x0",
          "logIndex": "0xe",
          "removed": false
        },
        {
          "address": "0xD7D4E7FBD3e7aa3a3bef0267b2B077f9f12b01EA",
          "topics": [
            "0x8be0079c531659141344cd1fd0a4f28419497f9722a3daafe3b4186f6b6457e0",
            "0x000000000000000000000000bfae7ba13712783bb14877930cb9b7579c39f43e",
            "0x00000000000000000000000029782e6eefef1255d1ddc2bd1b4851b890614868"
          ],
          "data": "0x",
          "blockHash": "0x47a9abf8cc258a0b8f960d3b1b244f2bcea1a5d084c88165bd9cea81c06aa776",
          "blockNumber": "0xb74e4b",
          "transactionHash": "0x9e69345c4c66efadf69934e83fc2c069a15126aaa3960e5efc49e36528084667",
          "transactionIndex": "0x0",
          "logIndex": "0xf",
          "removed": false
        },
        {
          "address": "0xD7D4E7FBD3e7aa3a3bef0267b2B077f9f12b01EA",
          "topics": [
            "0x7f26b83ff96e1f2b6a682f133852f6798a09c465da95921460cefb3847402498"
          ],
          "data": "0x0000000000000000000000000000000000000000000000000000000000000001",
          "blockHash": "0x47a9abf8cc258a0b8f960d3b1b244f2bcea1a5d084c88165bd9cea81c06aa776",
          "blockNumber": "0xb74e4b",
          "transactionHash": "0x9e69345c4c66efadf69934e83fc2c069a15126aaa3960e5efc49e36528084667",
          "transactionIndex": "0x0",
          "logIndex": "0x10",
          "removed": false
        },
        {
          "address": "0xbfAe7bA13712783Bb14877930Cb9b7579C39F43E",
          "topics": [
            "0x897c133dfbfe1f6239e98b4ffd7e4f6c86a62350a131a7a37790419f58af02f9",
            "0x00000000000000000000000029782e6eefef1255d1ddc2bd1b4851b890614868",
            "0x00000000000000000000000030f63e60ab33b05f3baff97e5a35010de6f4ea9d"
          ],
          "data": "0x000000000000000000000000d7d4e7fbd3e7aa3a3bef0267b2b077f9f12b01ea",
          "blockHash": "0x47a9abf8cc258a0b8f960d3b1b244f2bcea1a5d084c88165bd9cea81c06aa776",
          "blockNumber": "0xb74e4b",
          "transactionHash": "0x9e69345c4c66efadf69934e83fc2c069a15126aaa3960e5efc49e36528084667",
          "transactionIndex": "0x0",
          "logIndex": "0x11",
          "removed": false
        }
      ],
      "status": "0x1",
      "logsBloom": "0x00000000000001000000000000000000000008000080000100800000000000000000000000000000000000000000000000000000000000000000000200200000000000000000000020000040000000000001020000000000004001024000000000000200020000600000020000200840000000000000040000000000000002404000000000024000400020000000000000000001000082000000080000000000020140000000000100000000000400000020000010002000000000000000004020000000000080000000000000040000000000000000000001000000000020010010000000000000020000000080001000000000000000000000000000000000"
    },
    {
      "transactionHash": "0x7c7bfd0c988668645a951ef8e834602293dffb874e8d47d39f27d57bb2fc40f4",
      "transactionIndex": "0x0",
      "blockHash": "0x22b3c13ea2ebd4b935bd746935bb92feb5d1da00fd44c0426c989552c5bc1399",
      "blockNumber": "0xb74e54",
      "from": "0x29782e6eefef1255D1DDC2Bd1b4851B890614868",
      "to": "0xD7D4E7FBD3e7aa3a3bef0267b2B077f9f12b01EA",
      "cumulativeGasUsed": "0xbc04",
      "gasUsed": "0xbc04",
      "contractAddress": null,
      "logs": [
        {
          "address": "0xD7D4E7FBD3e7aa3a3bef0267b2B077f9f12b01EA",
          "topics": [
            "0x74dd9d466f35e6d6ff9fa8b6ba203f926982ab037ba5d8e8457a0a9516e27e14",
            "0x0000000000000000000000002acc49a84919ab9cf0eb6576432e9b09d78650e6",
            "0x00000000000000000000000029782e6eefef1255d1ddc2bd1b4851b890614868"
          ],
          "data": "0x",
          "blockHash": "0x22b3c13ea2ebd4b935bd746935bb92feb5d1da00fd44c0426c989552c5bc1399",
          "blockNumber": "0xb74e54",
          "transactionHash": "0x7c7bfd0c988668645a951ef8e834602293dffb874e8d47d39f27d57bb2fc40f4",
          "transactionIndex": "0x0",
          "logIndex": "0x0",
          "removed": false
        }
      ],
      "status": "0x1",
      "logsBloom": "0x000000000000010000000000000000000200000000000000000000000000000000000000000000000040000000010000000000000000000000000000000000000000001000000000000000000000000000000200000000000040000000000000000000000000000000000000000000000000000000000000000000000000000000000000000000000000000000000000000000010000000000000000100000000000400000000000000000000000000000000000000000000000000000000000000000000000a0000000000000000000000000000000000000000000000000000000000000000000000000000000000000000000000000000000000000000000"
    },
    {
      "transactionHash": "0x561f68d0f14a91981f7f6e292425e0c25b5e8f3b22b67590e25bf96cac482e55",
      "transactionIndex": "0x0",
      "blockHash": "0x0ed61ac666b22c4facd08ac4780af763eb29e72c6f0a06ad11995d3fd0f0061a",
      "blockNumber": "0xb74e5d",
      "from": "0x29782e6eefef1255D1DDC2Bd1b4851B890614868",
      "to": "0xD7D4E7FBD3e7aa3a3bef0267b2B077f9f12b01EA",
      "cumulativeGasUsed": "0xbc04",
      "gasUsed": "0xbc04",
      "contractAddress": null,
      "logs": [
        {
          "address": "0xD7D4E7FBD3e7aa3a3bef0267b2B077f9f12b01EA",
          "topics": [
            "0x74dd9d466f35e6d6ff9fa8b6ba203f926982ab037ba5d8e8457a0a9516e27e14",
            "0x000000000000000000000000cf288dc70983d17c83ea1b80579b211c51043801",
            "0x00000000000000000000000029782e6eefef1255d1ddc2bd1b4851b890614868"
          ],
          "data": "0x",
          "blockHash": "0x0ed61ac666b22c4facd08ac4780af763eb29e72c6f0a06ad11995d3fd0f0061a",
          "blockNumber": "0xb74e5d",
          "transactionHash": "0x561f68d0f14a91981f7f6e292425e0c25b5e8f3b22b67590e25bf96cac482e55",
          "transactionIndex": "0x0",
          "logIndex": "0x0",
          "removed": false
        }
      ],
      "status": "0x1",
      "logsBloom": "0x00000000000001000000000000000000020000000000000000000000000000000000000000000000004000000000000000000000000000000000000000000000000000000000000000000000000000000000020000000000004000000000000000000000000000000000000000800000000000000000000008000000000000000000000000000000000000000000000000000001000000000000000010000000000040000000000000000000000000000000000000000000000000000000000000000000000080000000000000000000000000000000000000000000010000000000000000000000000000000000000000000000000000000000000000000000"
    },
    {
      "transactionHash": "0x2bf6e0364ce5b6fc3fb6f5581c0d1602458bd68a4933321195cc23289d3fc7a2",
      "transactionIndex": "0x0",
      "blockHash": "0x19b65135547566c4b7cf86889b3c48ef23c63956bba73bb836424fae7b08ef09",
      "blockNumber": "0xb74e66",
      "from": "0x29782e6eefef1255D1DDC2Bd1b4851B890614868",
      "to": "0xD7D4E7FBD3e7aa3a3bef0267b2B077f9f12b01EA",
      "cumulativeGasUsed": "0xbc04",
      "gasUsed": "0xbc04",
      "contractAddress": null,
      "logs": [
        {
          "address": "0xD7D4E7FBD3e7aa3a3bef0267b2B077f9f12b01EA",
          "topics": [
            "0x74dd9d466f35e6d6ff9fa8b6ba203f926982ab037ba5d8e8457a0a9516e27e14",
            "0x000000000000000000000000e620ddc3b46fc30d7ba98c6b315aa17f69302b0c",
            "0x00000000000000000000000029782e6eefef1255d1ddc2bd1b4851b890614868"
          ],
          "data": "0x",
          "blockHash": "0x19b65135547566c4b7cf86889b3c48ef23c63956bba73bb836424fae7b08ef09",
          "blockNumber": "0xb74e66",
          "transactionHash": "0x2bf6e0364ce5b6fc3fb6f5581c0d1602458bd68a4933321195cc23289d3fc7a2",
          "transactionIndex": "0x0",
          "logIndex": "0x0",
          "removed": false
        }
      ],
      "status": "0x1",
      "logsBloom": "0x00000000000001000000000000000000020000000000000000000000000000000000000000000000004000000000040000000000000000000000000000000000000000000000000000000000800000000000020000000000004000000000000000000000000000000000000000000000000000000000000000000000000000000000000000000000000000000000000000000001000000000000000010000000000040000000000000000000000000000000000000000000000000000000000008000000000080000000000000000000000000000000000000000000000000000000000000000000000000000000000000000000000000000000000000000000"
    },
    {
      "transactionHash": "0x2fc9963692513f57388af4c84f58ee083cbc462432a7496be7c5df6893af506b",
      "transactionIndex": "0x0",
      "blockHash": "0x0715199d5974517a22d24014c0052227b2570c2c9e11ff5794f556371315883d",
      "blockNumber": "0xb74e71",
      "from": "0x29782e6eefef1255D1DDC2Bd1b4851B890614868",
      "to": "0xD7D4E7FBD3e7aa3a3bef0267b2B077f9f12b01EA",
      "cumulativeGasUsed": "0xbc04",
      "gasUsed": "0xbc04",
      "contractAddress": null,
      "logs": [
        {
          "address": "0xD7D4E7FBD3e7aa3a3bef0267b2B077f9f12b01EA",
          "topics": [
            "0x74dd9d466f35e6d6ff9fa8b6ba203f926982ab037ba5d8e8457a0a9516e27e14",
            "0x000000000000000000000000e1427b8a742f489c866c42874f83afc0c5d003e8",
            "0x00000000000000000000000029782e6eefef1255d1ddc2bd1b4851b890614868"
          ],
          "data": "0x",
          "blockHash": "0x0715199d5974517a22d24014c0052227b2570c2c9e11ff5794f556371315883d",
          "blockNumber": "0xb74e71",
          "transactionHash": "0x2fc9963692513f57388af4c84f58ee083cbc462432a7496be7c5df6893af506b",
          "transactionIndex": "0x0",
          "logIndex": "0x0",
          "removed": false
        }
      ],
      "status": "0x1",
      "logsBloom": "0x00000000000001000000000000020000020000000000000000000000000000000000000000000000004000000000000000000000000000000000000000000000000000000000000000000000010000000000020000000000004000000000000000000000000000000000000000000000000000000000000000000000000000000000000000000000000000000000000000000001000000000000000010000000000040000000000000000000000000000000000000000000000000000000000000000000000080000000000000000000000000000000000000000000000000000000000000000000000000000000000000000040000000000000000000000000"
    },
    {
      "transactionHash": "0xbf504a2c420fb82f775df48b60c39d183802dabb0eff1ddf476986fa2899f8cd",
      "transactionIndex": "0x0",
      "blockHash": "0x5b67140f8866e9d912b372b59d0b0369dd514637365467d6c618447c8a2e5710",
      "blockNumber": "0xb74e72",
      "from": "0x29782e6eefef1255D1DDC2Bd1b4851B890614868",
      "to": "0xD7D4E7FBD3e7aa3a3bef0267b2B077f9f12b01EA",
      "cumulativeGasUsed": "0xbc04",
      "gasUsed": "0xbc04",
      "contractAddress": null,
      "logs": [
        {
          "address": "0xD7D4E7FBD3e7aa3a3bef0267b2B077f9f12b01EA",
          "topics": [
            "0x74dd9d466f35e6d6ff9fa8b6ba203f926982ab037ba5d8e8457a0a9516e27e14",
            "0x000000000000000000000000c4587d8110d0fe59abb24188473e9c5a9df4684f",
            "0x00000000000000000000000029782e6eefef1255d1ddc2bd1b4851b890614868"
          ],
          "data": "0x",
          "blockHash": "0x5b67140f8866e9d912b372b59d0b0369dd514637365467d6c618447c8a2e5710",
          "blockNumber": "0xb74e72",
          "transactionHash": "0xbf504a2c420fb82f775df48b60c39d183802dabb0eff1ddf476986fa2899f8cd",
          "transactionIndex": "0x0",
          "logIndex": "0x0",
          "removed": false
        }
      ],
      "status": "0x1",
      "logsBloom": "0x00000000000001000000000000000000020000000000400000000000000000000000000000000000004000000000000000000000000000000000000000000000000000000000000000000000000000000000020000000000004000000000000000000000000000000000000000000000000000000000000000000000000000000000000000000000000000000000000000000001000000000000000010080000800040000000000000000000000000000000000000000000000000000000000000000000000080000000000000000000000000000000000000000000000000000000000000000000000000000000000000000000000000000000000000000000"
    },
    {
      "transactionHash": "0x9da01e8fb63e3c6a3c9abeca95e77db71a74c9f4225da532cc187edf534aec20",
      "transactionIndex": "0x0",
      "blockHash": "0xf2cf4be596beb09e541223696d6743e19ba7665739e66832ef88cb1f4435cb19",
      "blockNumber": "0xb74e7b",
      "from": "0x29782e6eefef1255D1DDC2Bd1b4851B890614868",
      "to": "0xD7D4E7FBD3e7aa3a3bef0267b2B077f9f12b01EA",
      "cumulativeGasUsed": "0xbc04",
      "gasUsed": "0xbc04",
      "contractAddress": null,
      "logs": [
        {
          "address": "0xD7D4E7FBD3e7aa3a3bef0267b2B077f9f12b01EA",
          "topics": [
            "0x74dd9d466f35e6d6ff9fa8b6ba203f926982ab037ba5d8e8457a0a9516e27e14",
            "0x00000000000000000000000016b7a584fecc9da0833f2e96b9fc770db906c9c4",
            "0x00000000000000000000000029782e6eefef1255d1ddc2bd1b4851b890614868"
          ],
          "data": "0x",
          "blockHash": "0xf2cf4be596beb09e541223696d6743e19ba7665739e66832ef88cb1f4435cb19",
          "blockNumber": "0xb74e7b",
          "transactionHash": "0x9da01e8fb63e3c6a3c9abeca95e77db71a74c9f4225da532cc187edf534aec20",
          "transactionIndex": "0x0",
          "logIndex": "0x0",
          "removed": false
        }
      ],
      "status": "0x1",
      "logsBloom": "0x00000000000001000000000000000000020000000000000000000000000000000000000000000000004000000000000000000000000000000000000000000008000000000000000000000000000000000000020000000000004000000000000000000000000000000000000000000000000000000000000000000000000000000000000000000000000000000000000000000001000000000000000010000080000040000000000000000000000000000000000000000000000000000000000000000000000080000000000000000000000000000000000000000000000000000000000000000000000008000000000000000000000000000000000000000000"
    },
    {
      "transactionHash": "0xd79ce74ba1d6200f3bf18953248c4a2ea2edd597e3ccc070d07e6bc905e2dfe7",
      "transactionIndex": "0x0",
      "blockHash": "0xee50d68b4915c9d568e284ec5104d65a3013ff60017caadf240ea02ad65a27e1",
      "blockNumber": "0xb74e82",
      "from": "0x29782e6eefef1255D1DDC2Bd1b4851B890614868",
      "to": "0xD7D4E7FBD3e7aa3a3bef0267b2B077f9f12b01EA",
      "cumulativeGasUsed": "0xbbf8",
      "gasUsed": "0xbbf8",
      "contractAddress": null,
      "logs": [
        {
          "address": "0xD7D4E7FBD3e7aa3a3bef0267b2B077f9f12b01EA",
          "topics": [
            "0x74dd9d466f35e6d6ff9fa8b6ba203f926982ab037ba5d8e8457a0a9516e27e14",
            "0x000000000000000000000000f925488428e935228d0200c515399b80017f53e6",
            "0x00000000000000000000000029782e6eefef1255d1ddc2bd1b4851b890614868"
          ],
          "data": "0x",
          "blockHash": "0xee50d68b4915c9d568e284ec5104d65a3013ff60017caadf240ea02ad65a27e1",
          "blockNumber": "0xb74e82",
          "transactionHash": "0xd79ce74ba1d6200f3bf18953248c4a2ea2edd597e3ccc070d07e6bc905e2dfe7",
          "transactionIndex": "0x0",
          "logIndex": "0x0",
          "removed": false
        }
      ],
      "status": "0x1",
      "logsBloom": "0x00000000000001000000000000000000020000000000000000000000000000000000000000000000004000000000000000000000000000000000000000000000000000000000000000000000000000000000020000000000004000000000000000000000000000000000000000000000000000000801000000000000000000000000000000000000000000000000000000000001000000000000000010000000000040000000000000000000000000000000000000000000000000000000000000004000000080000000000000000000000000000000000000000000000000000000000000000000000000000000000000000000000000000000000000000000"
    },
    {
      "transactionHash": "0x992db32ca0c6b4db15f48b39aba3d2ffffc766e96d92807c5daea90bc846c6de",
      "transactionIndex": "0x0",
      "blockHash": "0x1338a6a9caefa2779e0c05471ca6021d815f4862f4fcc9061532dbb05078044e",
      "blockNumber": "0xb74e8b",
      "from": "0x29782e6eefef1255D1DDC2Bd1b4851B890614868",
      "to": "0xD7D4E7FBD3e7aa3a3bef0267b2B077f9f12b01EA",
      "cumulativeGasUsed": "0xbbf8",
      "gasUsed": "0xbbf8",
      "contractAddress": null,
      "logs": [
        {
          "address": "0xD7D4E7FBD3e7aa3a3bef0267b2B077f9f12b01EA",
          "topics": [
            "0x74dd9d466f35e6d6ff9fa8b6ba203f926982ab037ba5d8e8457a0a9516e27e14",
            "0x0000000000000000000000008a48f4c34a24dcfa962d2e86ac9c2c00251a0a92",
            "0x00000000000000000000000029782e6eefef1255d1ddc2bd1b4851b890614868"
          ],
          "data": "0x",
          "blockHash": "0x1338a6a9caefa2779e0c05471ca6021d815f4862f4fcc9061532dbb05078044e",
          "blockNumber": "0xb74e8b",
          "transactionHash": "0x992db32ca0c6b4db15f48b39aba3d2ffffc766e96d92807c5daea90bc846c6de",
          "transactionIndex": "0x0",
          "logIndex": "0x0",
          "removed": false
        }
      ],
      "status": "0x1",
      "logsBloom": "0x00000000000001000000000000000000020000000000000000000000000000000000000000000000004000000000000000000000000000000000000000000000000000000000000000002000000000000000020000000000004000000000000000000000000000000000000000000000000000000000000000000000000000000000000000000000000000000000000400000001000000000000000010000000000040000000000000000000000000000000000000000000000000000000000040000000000080000000000000000000000000000000000000000000000000000000000000000000000000000000000000000000000000000000000000000000"
    },
    {
      "transactionHash": "0xeb83ddf2d85e5e7a0be434eeea5ecc53a4959996a38977c21b5ecfed81b3a3d2",
      "transactionIndex": "0x0",
      "blockHash": "0x5caf0333d6b4dacf92fe353a4bdff0781877f0eb73476c0af632052dce96ecbe",
      "blockNumber": "0xb74e90",
      "from": "0x2aCC49a84919Ab9Cf0eb6576432E9b09D78650E6",
      "to": "0x8734110e5e1dcF439c7F549db740E546fea82d66",
      "cumulativeGasUsed": "0xb44a",
      "gasUsed": "0xb44a",
      "contractAddress": null,
      "logs": [
        {
          "address": "0x8734110e5e1dcF439c7F549db740E546fea82d66",
          "topics": [
            "0x8c5be1e5ebec7d5bd14f71427d1e84f3dd0314c0f7b2291e5b200ac8c7c3b925",
            "0x0000000000000000000000002acc49a84919ab9cf0eb6576432e9b09d78650e6",
            "0x000000000000000000000000d7d4e7fbd3e7aa3a3bef0267b2b077f9f12b01ea"
          ],
          "data": "0x0000000000000000000000000000000000000000000000001bc16d674ec80000",
          "blockHash": "0x5caf0333d6b4dacf92fe353a4bdff0781877f0eb73476c0af632052dce96ecbe",
          "blockNumber": "0xb74e90",
          "transactionHash": "0xeb83ddf2d85e5e7a0be434eeea5ecc53a4959996a38977c21b5ecfed81b3a3d2",
          "transactionIndex": "0x0",
          "logIndex": "0x0",
          "removed": false
        }
      ],
      "status": "0x1",
      "logsBloom": "0x00000000000000000800000000000000000000000000000000000000000000000000000000000000000000000001000000000000000000000000000000200080000000100000000020000000000000000000000000000000000000000000000000000000000000200000000000000000000000000000000000000000000000000000000000000000000000000000000000000000000000000000080000000000020000000000000000000000000000000000000000000000000000000000000000000000000020000000000000000000000000000000000000000000000000000010000000000000000000000000000000200000000000000000000000000000"
    },
    {
      "transactionHash": "0xb6b9069e82670a2c35fd8c8e51132d8b4aa5efc86de7ba807b3ba1d51d12e2d6",
      "transactionIndex": "0x0",
      "blockHash": "0x78475ca3ef6e162ad911555b72c0fe0ec0782517be23e3418fb6735273dbddf1",
      "blockNumber": "0xb74e94",
      "from": "0x2aCC49a84919Ab9Cf0eb6576432E9b09D78650E6",
      "to": "0xD7D4E7FBD3e7aa3a3bef0267b2B077f9f12b01EA",
      "cumulativeGasUsed": "0xc9e15",
      "gasUsed": "0xc9e15",
      "contractAddress": null,
      "logs": [
        {
          "address": "0x8734110e5e1dcF439c7F549db740E546fea82d66",
          "topics": [
            "0xddf252ad1be2c89b69c2b068fc378daa952ba7f163c4a11628f55a4df523b3ef",
            "0x0000000000000000000000002acc49a84919ab9cf0eb6576432e9b09d78650e6",
            "0x000000000000000000000000d7d4e7fbd3e7aa3a3bef0267b2b077f9f12b01ea"
          ],
          "data": "0x0000000000000000000000000000000000000000000000001bc16d674ec80000",
          "blockHash": "0x78475ca3ef6e162ad911555b72c0fe0ec0782517be23e3418fb6735273dbddf1",
          "blockNumber": "0xb74e94",
          "transactionHash": "0xb6b9069e82670a2c35fd8c8e51132d8b4aa5efc86de7ba807b3ba1d51d12e2d6",
          "transactionIndex": "0x0",
          "logIndex": "0x0",
          "removed": false
        },
        {
          "address": "0x8734110e5e1dcF439c7F549db740E546fea82d66",
          "topics": [
            "0xddf252ad1be2c89b69c2b068fc378daa952ba7f163c4a11628f55a4df523b3ef",
            "0x000000000000000000000000d7d4e7fbd3e7aa3a3bef0267b2b077f9f12b01ea",
            "0x0000000000000000000000007bc5961cfa47c00bf7f3bed25c3270b1cb309060"
          ],
          "data": "0x0000000000000000000000000000000000000000000000001bc16d674ec80000",
          "blockHash": "0x78475ca3ef6e162ad911555b72c0fe0ec0782517be23e3418fb6735273dbddf1",
          "blockNumber": "0xb74e94",
          "transactionHash": "0xb6b9069e82670a2c35fd8c8e51132d8b4aa5efc86de7ba807b3ba1d51d12e2d6",
          "transactionIndex": "0x0",
          "logIndex": "0x1",
          "removed": false
        },
        {
          "address": "0x8734110e5e1dcF439c7F549db740E546fea82d66",
          "topics": [
            "0xddf252ad1be2c89b69c2b068fc378daa952ba7f163c4a11628f55a4df523b3ef",
            "0x0000000000000000000000007bc5961cfa47c00bf7f3bed25c3270b1cb309060",
            "0x00000000000000000000000030f63e60ab33b05f3baff97e5a35010de6f4ea9d"
          ],
          "data": "0x0000000000000000000000000000000000000000000000001bc16d674ec80000",
          "blockHash": "0x78475ca3ef6e162ad911555b72c0fe0ec0782517be23e3418fb6735273dbddf1",
          "blockNumber": "0xb74e94",
          "transactionHash": "0xb6b9069e82670a2c35fd8c8e51132d8b4aa5efc86de7ba807b3ba1d51d12e2d6",
          "transactionIndex": "0x0",
          "logIndex": "0x2",
          "removed": false
        },
        {
          "address": "0x30F63e60Ab33B05f3baFf97E5A35010De6F4Ea9D",
          "topics": [
            "0x7a53080ba414158be7ec69b987b5fb7d07dee101fe85488f0853ae16239d0bde",
            "0x00000000000000000000000094705da51466f3bb1e8c1591d71c09c9760f5f59",
            "0x000000000000000000000000000000000000000000000000000000000000b608",
            "0x000000000000000000000000000000000000000000000000000000000000be3c"
          ],
          "data": "0x00000000000000000000000094705da51466f3bb1e8c1591d71c09c9760f5f59000000000000000000000000000000000000000000000000186583ef56be736d00000000000000000000000000000000000000000000000000000000000000000000000000000000000000000000000000000000000000001bc16d674ec80000",
          "blockHash": "0x78475ca3ef6e162ad911555b72c0fe0ec0782517be23e3418fb6735273dbddf1",
          "blockNumber": "0xb74e94",
          "transactionHash": "0xb6b9069e82670a2c35fd8c8e51132d8b4aa5efc86de7ba807b3ba1d51d12e2d6",
          "transactionIndex": "0x0",
          "logIndex": "0x3",
          "removed": false
        },
        {
          "address": "0x94705da51466F3Bb1E8c1591D71C09c9760f5F59",
          "topics": [
            "0xddf252ad1be2c89b69c2b068fc378daa952ba7f163c4a11628f55a4df523b3ef",
            "0x0000000000000000000000000000000000000000000000000000000000000000",
            "0x0000000000000000000000007bc5961cfa47c00bf7f3bed25c3270b1cb309060",
            "0x0000000000000000000000000000000000000000000000000000000000019fb5"
          ],
          "data": "0x",
          "blockHash": "0x78475ca3ef6e162ad911555b72c0fe0ec0782517be23e3418fb6735273dbddf1",
          "blockNumber": "0xb74e94",
          "transactionHash": "0xb6b9069e82670a2c35fd8c8e51132d8b4aa5efc86de7ba807b3ba1d51d12e2d6",
          "transactionIndex": "0x0",
          "logIndex": "0x4",
          "removed": false
        },
        {
          "address": "0x94705da51466F3Bb1E8c1591D71C09c9760f5F59",
          "topics": [
            "0x3067048beee31b25b2f1681f88dac838c8bba36af25bfb2b7cf7473a5847e35f",
            "0x0000000000000000000000000000000000000000000000000000000000019fb5"
          ],
          "data": "0x000000000000000000000000000000000000000000000000186583ef56be736d00000000000000000000000000000000000000000000000000000000000000000000000000000000000000000000000000000000000000001bc16d674ec80000",
          "blockHash": "0x78475ca3ef6e162ad911555b72c0fe0ec0782517be23e3418fb6735273dbddf1",
          "blockNumber": "0xb74e94",
          "transactionHash": "0xb6b9069e82670a2c35fd8c8e51132d8b4aa5efc86de7ba807b3ba1d51d12e2d6",
          "transactionIndex": "0x0",
          "logIndex": "0x5",
          "removed": false
        },
        {
          "address": "0x94705da51466F3Bb1E8c1591D71C09c9760f5F59",
          "topics": [
            "0x8c5be1e5ebec7d5bd14f71427d1e84f3dd0314c0f7b2291e5b200ac8c7c3b925",
            "0x0000000000000000000000007bc5961cfa47c00bf7f3bed25c3270b1cb309060",
            "0x0000000000000000000000000000000000000000000000000000000000000000",
            "0x0000000000000000000000000000000000000000000000000000000000019fb5"
          ],
          "data": "0x",
          "blockHash": "0x78475ca3ef6e162ad911555b72c0fe0ec0782517be23e3418fb6735273dbddf1",
          "blockNumber": "0xb74e94",
          "transactionHash": "0xb6b9069e82670a2c35fd8c8e51132d8b4aa5efc86de7ba807b3ba1d51d12e2d6",
          "transactionIndex": "0x0",
          "logIndex": "0x6",
          "removed": false
        },
        {
          "address": "0x94705da51466F3Bb1E8c1591D71C09c9760f5F59",
          "topics": [
            "0xddf252ad1be2c89b69c2b068fc378daa952ba7f163c4a11628f55a4df523b3ef",
            "0x0000000000000000000000007bc5961cfa47c00bf7f3bed25c3270b1cb309060",
            "0x0000000000000000000000009316938eaa09e71cbb1bf713212a42becba2998f",
            "0x0000000000000000000000000000000000000000000000000000000000019fb5"
          ],
          "data": "0x",
          "blockHash": "0x78475ca3ef6e162ad911555b72c0fe0ec0782517be23e3418fb6735273dbddf1",
          "blockNumber": "0xb74e94",
          "transactionHash": "0xb6b9069e82670a2c35fd8c8e51132d8b4aa5efc86de7ba807b3ba1d51d12e2d6",
          "transactionIndex": "0x0",
          "logIndex": "0x7",
          "removed": false
        },
        {
          "address": "0x9316938Eaa09E71CBB1Bf713212A42beCBa2998F",
          "topics": [
            "0xee8f6362d59839b4b3c990d7e085a63a0fe2c58f4eff4a9a2b6de93a4c645ae3",
            "0x00000000000000000000000094705da51466f3bb1e8c1591d71c09c9760f5f59",
            "0x0000000000000000000000000000000000000000000000000000000000000001",
            "0x0000000000000000000000000000000000000000000000000000000000019fb5"
          ],
          "data": "0x000000000000000000000000000000000000000000000000186583ef56be736d000000000000000000000000000000000000000000000000000000000000b608000000000000000000000000000000000000000000000000000000000000be3c",
          "blockHash": "0x78475ca3ef6e162ad911555b72c0fe0ec0782517be23e3418fb6735273dbddf1",
          "blockNumber": "0xb74e94",
          "transactionHash": "0xb6b9069e82670a2c35fd8c8e51132d8b4aa5efc86de7ba807b3ba1d51d12e2d6",
          "transactionIndex": "0x0",
          "logIndex": "0x8",
          "removed": false
        },
        {
          "address": "0x9316938Eaa09E71CBB1Bf713212A42beCBa2998F",
          "topics": [
            "0xb19157bff94fdd40c58c7d4a5d52e8eb8c2d570ca17b322b49a2bbbeedc82fbf",
            "0x0000000000000000000000007bc5961cfa47c00bf7f3bed25c3270b1cb309060",
            "0x0000000000000000000000000000000000000000000000000000000000000001",
            "0x0000000000000000000000000000000000000000000000000000000000019fb5"
          ],
          "data": "0x000000000000000000000000000000000000000000000000186583ef56be736d000000000000000000000000000000000000000000000000000000000000b608000000000000000000000000000000000000000000000000000000000000be3c",
          "blockHash": "0x78475ca3ef6e162ad911555b72c0fe0ec0782517be23e3418fb6735273dbddf1",
          "blockNumber": "0xb74e94",
          "transactionHash": "0xb6b9069e82670a2c35fd8c8e51132d8b4aa5efc86de7ba807b3ba1d51d12e2d6",
          "transactionIndex": "0x0",
          "logIndex": "0x9",
          "removed": false
        },
        {
          "address": "0xD7D4E7FBD3e7aa3a3bef0267b2B077f9f12b01EA",
          "topics": [
            "0xddf252ad1be2c89b69c2b068fc378daa952ba7f163c4a11628f55a4df523b3ef",
            "0x0000000000000000000000000000000000000000000000000000000000000000",
            "0x0000000000000000000000002acc49a84919ab9cf0eb6576432e9b09d78650e6"
          ],
          "data": "0x0000000000000000000000000000000000000000000000001bc16d674ec80000",
          "blockHash": "0x78475ca3ef6e162ad911555b72c0fe0ec0782517be23e3418fb6735273dbddf1",
          "blockNumber": "0xb74e94",
          "transactionHash": "0xb6b9069e82670a2c35fd8c8e51132d8b4aa5efc86de7ba807b3ba1d51d12e2d6",
          "transactionIndex": "0x0",
          "logIndex": "0xa",
          "removed": false
        },
        {
          "address": "0xD7D4E7FBD3e7aa3a3bef0267b2B077f9f12b01EA",
          "topics": [
            "0xdcbc1c05240f31ff3ad067ef1ee35ce4997762752e3a095284754544f4c709d7",
            "0x0000000000000000000000002acc49a84919ab9cf0eb6576432e9b09d78650e6",
            "0x0000000000000000000000002acc49a84919ab9cf0eb6576432e9b09d78650e6"
          ],
          "data": "0x0000000000000000000000000000000000000000000000001bc16d674ec800000000000000000000000000000000000000000000000000001bc16d674ec80000",
          "blockHash": "0x78475ca3ef6e162ad911555b72c0fe0ec0782517be23e3418fb6735273dbddf1",
          "blockNumber": "0xb74e94",
          "transactionHash": "0xb6b9069e82670a2c35fd8c8e51132d8b4aa5efc86de7ba807b3ba1d51d12e2d6",
          "transactionIndex": "0x0",
          "logIndex": "0xb",
          "removed": false
        }
      ],
      "status": "0x1",
      "logsBloom": "0x00000000000001000800100000000000000008000000000000000000000400000000200000000000000000000001080000000001100000000400000000240080000000500000000020000008000000010000000000040001004010404000000000000000020000208000020000a008000000000108040000000000100000000000000000080040000001000000000000800000000000020000400800010000000200000000000001000000000001040000000000000000000000000000000000000000020000a4000000080000000000000000000009000000000000000060010010080000000000000080000000001000200800000000024000400000000800"
    },
    {
      "transactionHash": "0x14df944d91b29dcfa310d9e0d98550f28276c91c49b796f4d014ff555e6d0fb6",
      "transactionIndex": "0x0",
      "blockHash": "0x6b67b1f657279f740a1a1eca55e9e53e55a3426b0831a5da7d1da73d7477d15e",
      "blockNumber": "0xb74ea0",
      "from": "0xcf288Dc70983D17C83EA1b80579b211c51043801",
      "to": "0x8734110e5e1dcF439c7F549db740E546fea82d66",
      "cumulativeGasUsed": "0xb44a",
      "gasUsed": "0xb44a",
      "contractAddress": null,
      "logs": [
        {
          "address": "0x8734110e5e1dcF439c7F549db740E546fea82d66",
          "topics": [
            "0x8c5be1e5ebec7d5bd14f71427d1e84f3dd0314c0f7b2291e5b200ac8c7c3b925",
            "0x000000000000000000000000cf288dc70983d17c83ea1b80579b211c51043801",
            "0x000000000000000000000000d7d4e7fbd3e7aa3a3bef0267b2b077f9f12b01ea"
          ],
          "data": "0x0000000000000000000000000000000000000000000000001bc16d674ec80000",
          "blockHash": "0x6b67b1f657279f740a1a1eca55e9e53e55a3426b0831a5da7d1da73d7477d15e",
          "blockNumber": "0xb74ea0",
          "transactionHash": "0x14df944d91b29dcfa310d9e0d98550f28276c91c49b796f4d014ff555e6d0fb6",
          "transactionIndex": "0x0",
          "logIndex": "0x0",
          "removed": false
        }
      ],
      "status": "0x1",
      "logsBloom": "0x00000000000000000800000000000000000000000000000000000000000000000000000000000000000000000000000000000000000000000000000000200080000000000000000020000000000000000000000000000000000000000000000000000000000000200000000000800000000000000000000008000000000000000000000000000000000000000000000000000000000000000000080000000000020000000000000000000000000000000000000000000000000000000000000000000000000000000000000000000000000000000000000000000000010000000010000000000000000000000000000000200000000000000000000000000000"
    },
    {
      "transactionHash": "0x56ebb6bd2c72cd454fcc83ddac814d643f32e8276e2cbd8baca1b218e48fd078",
      "transactionIndex": "0x0",
      "blockHash": "0x1751c628c2feaf1c6ce50a3e9a5c8d2d910e9c267c694ecc5b029ad4c1a5922d",
      "blockNumber": "0xb74ea9",
      "from": "0xcf288Dc70983D17C83EA1b80579b211c51043801",
      "to": "0xD7D4E7FBD3e7aa3a3bef0267b2B077f9f12b01EA",
      "cumulativeGasUsed": "0x64e8c",
      "gasUsed": "0x64e8c",
      "contractAddress": null,
      "logs": [
        {
          "address": "0x8734110e5e1dcF439c7F549db740E546fea82d66",
          "topics": [
            "0xddf252ad1be2c89b69c2b068fc378daa952ba7f163c4a11628f55a4df523b3ef",
            "0x000000000000000000000000cf288dc70983d17c83ea1b80579b211c51043801",
            "0x000000000000000000000000d7d4e7fbd3e7aa3a3bef0267b2b077f9f12b01ea"
          ],
          "data": "0x0000000000000000000000000000000000000000000000001bc16d674ec80000",
          "blockHash": "0x1751c628c2feaf1c6ce50a3e9a5c8d2d910e9c267c694ecc5b029ad4c1a5922d",
          "blockNumber": "0xb74ea9",
          "transactionHash": "0x56ebb6bd2c72cd454fcc83ddac814d643f32e8276e2cbd8baca1b218e48fd078",
          "transactionIndex": "0x0",
          "logIndex": "0x0",
          "removed": false
        },
        {
          "address": "0x8734110e5e1dcF439c7F549db740E546fea82d66",
          "topics": [
            "0xddf252ad1be2c89b69c2b068fc378daa952ba7f163c4a11628f55a4df523b3ef",
            "0x000000000000000000000000d7d4e7fbd3e7aa3a3bef0267b2b077f9f12b01ea",
            "0x0000000000000000000000007bc5961cfa47c00bf7f3bed25c3270b1cb309060"
          ],
          "data": "0x0000000000000000000000000000000000000000000000001bc16d674ec80000",
          "blockHash": "0x1751c628c2feaf1c6ce50a3e9a5c8d2d910e9c267c694ecc5b029ad4c1a5922d",
          "blockNumber": "0xb74ea9",
          "transactionHash": "0x56ebb6bd2c72cd454fcc83ddac814d643f32e8276e2cbd8baca1b218e48fd078",
          "transactionIndex": "0x0",
          "logIndex": "0x1",
          "removed": false
        },
        {
          "address": "0x8734110e5e1dcF439c7F549db740E546fea82d66",
          "topics": [
            "0xddf252ad1be2c89b69c2b068fc378daa952ba7f163c4a11628f55a4df523b3ef",
            "0x0000000000000000000000007bc5961cfa47c00bf7f3bed25c3270b1cb309060",
            "0x00000000000000000000000030f63e60ab33b05f3baff97e5a35010de6f4ea9d"
          ],
          "data": "0x0000000000000000000000000000000000000000000000001bc16d674ec80000",
          "blockHash": "0x1751c628c2feaf1c6ce50a3e9a5c8d2d910e9c267c694ecc5b029ad4c1a5922d",
          "blockNumber": "0xb74ea9",
          "transactionHash": "0x56ebb6bd2c72cd454fcc83ddac814d643f32e8276e2cbd8baca1b218e48fd078",
          "transactionIndex": "0x0",
          "logIndex": "0x2",
          "removed": false
        },
        {
          "address": "0x30F63e60Ab33B05f3baFf97E5A35010De6F4Ea9D",
          "topics": [
            "0x7a53080ba414158be7ec69b987b5fb7d07dee101fe85488f0853ae16239d0bde",
            "0x00000000000000000000000094705da51466f3bb1e8c1591d71c09c9760f5f59",
            "0x000000000000000000000000000000000000000000000000000000000000b608",
            "0x000000000000000000000000000000000000000000000000000000000000be3c"
          ],
          "data": "0x00000000000000000000000094705da51466f3bb1e8c1591d71c09c9760f5f59000000000000000000000000000000000000000000000000186583ef56be736d00000000000000000000000000000000000000000000000000000000000000000000000000000000000000000000000000000000000000001bc16d674ec80000",
          "blockHash": "0x1751c628c2feaf1c6ce50a3e9a5c8d2d910e9c267c694ecc5b029ad4c1a5922d",
          "blockNumber": "0xb74ea9",
          "transactionHash": "0x56ebb6bd2c72cd454fcc83ddac814d643f32e8276e2cbd8baca1b218e48fd078",
          "transactionIndex": "0x0",
          "logIndex": "0x3",
          "removed": false
        },
        {
          "address": "0x94705da51466F3Bb1E8c1591D71C09c9760f5F59",
          "topics": [
            "0x3067048beee31b25b2f1681f88dac838c8bba36af25bfb2b7cf7473a5847e35f",
            "0x0000000000000000000000000000000000000000000000000000000000019fb5"
          ],
          "data": "0x000000000000000000000000000000000000000000000000186583ef56be736d00000000000000000000000000000000000000000000000000000000000000000000000000000000000000000000000000000000000000001bc16d674ec80000",
          "blockHash": "0x1751c628c2feaf1c6ce50a3e9a5c8d2d910e9c267c694ecc5b029ad4c1a5922d",
          "blockNumber": "0xb74ea9",
          "transactionHash": "0x56ebb6bd2c72cd454fcc83ddac814d643f32e8276e2cbd8baca1b218e48fd078",
          "transactionIndex": "0x0",
          "logIndex": "0x4",
          "removed": false
        },
        {
          "address": "0x9316938Eaa09E71CBB1Bf713212A42beCBa2998F",
          "topics": [
            "0xee8f6362d59839b4b3c990d7e085a63a0fe2c58f4eff4a9a2b6de93a4c645ae3",
            "0x0000000000000000000000007bc5961cfa47c00bf7f3bed25c3270b1cb309060",
            "0x0000000000000000000000000000000000000000000000000000000000000001",
            "0x0000000000000000000000000000000000000000000000000000000000019fb5"
          ],
          "data": "0x000000000000000000000000000000000000000000000000186583ef56be736d000000000000000000000000000000000000000000000000000000000000b608000000000000000000000000000000000000000000000000000000000000be3c",
          "blockHash": "0x1751c628c2feaf1c6ce50a3e9a5c8d2d910e9c267c694ecc5b029ad4c1a5922d",
          "blockNumber": "0xb74ea9",
          "transactionHash": "0x56ebb6bd2c72cd454fcc83ddac814d643f32e8276e2cbd8baca1b218e48fd078",
          "transactionIndex": "0x0",
          "logIndex": "0x5",
          "removed": false
        },
        {
          "address": "0xD7D4E7FBD3e7aa3a3bef0267b2B077f9f12b01EA",
          "topics": [
            "0xddf252ad1be2c89b69c2b068fc378daa952ba7f163c4a11628f55a4df523b3ef",
            "0x0000000000000000000000000000000000000000000000000000000000000000",
            "0x000000000000000000000000cf288dc70983d17c83ea1b80579b211c51043801"
          ],
          "data": "0x0000000000000000000000000000000000000000000000001bc16d674ec80000",
          "blockHash": "0x1751c628c2feaf1c6ce50a3e9a5c8d2d910e9c267c694ecc5b029ad4c1a5922d",
          "blockNumber": "0xb74ea9",
          "transactionHash": "0x56ebb6bd2c72cd454fcc83ddac814d643f32e8276e2cbd8baca1b218e48fd078",
          "transactionIndex": "0x0",
          "logIndex": "0x6",
          "removed": false
        },
        {
          "address": "0xD7D4E7FBD3e7aa3a3bef0267b2B077f9f12b01EA",
          "topics": [
            "0xdcbc1c05240f31ff3ad067ef1ee35ce4997762752e3a095284754544f4c709d7",
            "0x000000000000000000000000cf288dc70983d17c83ea1b80579b211c51043801",
            "0x000000000000000000000000cf288dc70983d17c83ea1b80579b211c51043801"
          ],
          "data": "0x0000000000000000000000000000000000000000000000001bc16d674ec800000000000000000000000000000000000000000000000000001bc16d674ec80000",
          "blockHash": "0x1751c628c2feaf1c6ce50a3e9a5c8d2d910e9c267c694ecc5b029ad4c1a5922d",
          "blockNumber": "0xb74ea9",
          "transactionHash": "0x56ebb6bd2c72cd454fcc83ddac814d643f32e8276e2cbd8baca1b218e48fd078",
          "transactionIndex": "0x0",
          "logIndex": "0x7",
          "removed": false
        }
      ],
      "status": "0x1",
      "logsBloom": "0x00000000000001000800100000000000000008000000000000000000000400000000200000000000000000000000080000000001100000000400000000040080000000400000000020000008000000000000000000040001004010404000000000000000020000200000020000a00800000000000804000008000010000000000000000008004000000100000000000080000000000002000040080001000000000000000000000100000000000104000000000000000000000000000000000000000002000080000000080000000000000000000009000000000000010060010000000000000000000000000000001000200800000000024000400000000800"
    }
  ],
  "libraries": [],
  "pending": [],
  "path": "/Users/prajwalghate/Documents/Authlink/Private/alphav2/new/farming-vault-factory-old/broadcast/DeployWhitelistedVaultV2Mantle.s.sol/5001/run-latest.json",
  "returns": {},
  "timestamp": 1687430832,
  "chain": 5001,
  "multi": false,
  "commit": "50faf44"
}